{
    "contractName": "Market",
    "abi": [
        {
            "inputs": [],
            "stateMutability": "nonpayable",
            "type": "constructor"
        },
        {
            "anonymous": false,
            "inputs": [
                {
                    "indexed": true,
                    "internalType": "address",
                    "name": "admin",
                    "type": "address"
                }
            ],
            "name": "AdminRemoved",
            "type": "event"
        },
        {
            "anonymous": false,
            "inputs": [
                {
                    "indexed": true,
                    "internalType": "address",
                    "name": "admin",
                    "type": "address"
                }
            ],
            "name": "NewAdmin",
            "type": "event"
        },
        {
            "anonymous": false,
            "inputs": [
                {
                    "indexed": true,
                    "internalType": "address",
                    "name": "previousOwner",
                    "type": "address"
                },
                {
                    "indexed": true,
                    "internalType": "address",
                    "name": "newOwner",
                    "type": "address"
                }
            ],
            "name": "OwnershipTransferred",
            "type": "event"
        },
        {
            "inputs": [
                {
                    "internalType": "address",
                    "name": "_tokenERC20",
                    "type": "address"
                }
            ],
            "name": "ChangeTokenOTRO",
            "outputs": [
                {
                    "internalType": "bool",
                    "name": "",
                    "type": "bool"
                }
            ],
            "stateMutability": "nonpayable",
            "type": "function"
        },
        {
            "inputs": [
                {
                    "internalType": "address",
                    "name": "",
                    "type": "address"
                }
            ],
            "name": "admin",
            "outputs": [
                {
                    "internalType": "bool",
                    "name": "",
                    "type": "bool"
                }
            ],
            "stateMutability": "view",
            "type": "function"
        },
        {
            "inputs": [
                {
                    "internalType": "uint256",
                    "name": "_value",
                    "type": "uint256"
                }
            ],
            "name": "buyCoins",
            "outputs": [
                {
                    "internalType": "bool",
                    "name": "",
                    "type": "bool"
                }
            ],
            "stateMutability": "nonpayable",
            "type": "function"
        },
        {
            "inputs": [
                {
                    "internalType": "uint256",
                    "name": "_value",
                    "type": "uint256"
                }
            ],
            "name": "buyItem",
            "outputs": [
                {
                    "internalType": "bool",
                    "name": "",
                    "type": "bool"
                }
            ],
            "stateMutability": "nonpayable",
            "type": "function"
        },
        {
            "inputs": [
                {
                    "internalType": "uint256",
                    "name": "_value",
                    "type": "uint256"
                }
            ],
            "name": "gastarCoins",
            "outputs": [
                {
                    "internalType": "bool",
                    "name": "",
                    "type": "bool"
                }
            ],
            "stateMutability": "nonpayable",
            "type": "function"
        },
        {
            "inputs": [
                {
                    "internalType": "uint256",
                    "name": "_value",
                    "type": "uint256"
                },
                {
                    "internalType": "address",
                    "name": "_user",
                    "type": "address"
                }
            ],
            "name": "gastarCoinsfrom",
            "outputs": [
                {
                    "internalType": "bool",
                    "name": "",
                    "type": "bool"
                }
            ],
            "stateMutability": "nonpayable",
            "type": "function"
        },
        {
            "inputs": [
                {
                    "internalType": "address",
                    "name": "",
                    "type": "address"
                }
            ],
            "name": "inventario",
            "outputs": [
                {
                    "internalType": "string",
                    "name": "nombre",
                    "type": "string"
                },
                {
                    "internalType": "uint256",
                    "name": "valor",
                    "type": "uint256"
                },
                {
                    "internalType": "bool",
                    "name": "ilimitado",
                    "type": "bool"
                },
                {
                    "internalType": "uint256",
                    "name": "cantidad",
                    "type": "uint256"
                }
            ],
            "stateMutability": "view",
            "type": "function"
        },
        {
            "inputs": [
                {
                    "internalType": "address",
                    "name": "",
                    "type": "address"
                }
            ],
            "name": "investors",
            "outputs": [
                {
                    "internalType": "bool",
                    "name": "registered",
                    "type": "bool"
                },
                {
                    "internalType": "string",
                    "name": "correo",
                    "type": "string"
                },
                {
                    "internalType": "uint256",
                    "name": "balance",
                    "type": "uint256"
                },
                {
                    "internalType": "uint256",
                    "name": "gastado",
                    "type": "uint256"
                }
            ],
            "stateMutability": "view",
            "type": "function"
        },
        {
            "inputs": [
                {
                    "internalType": "uint256",
                    "name": "",
                    "type": "uint256"
                }
            ],
            "name": "items",
            "outputs": [
                {
                    "internalType": "string",
                    "name": "nombre",
                    "type": "string"
                },
                {
                    "internalType": "uint256",
                    "name": "valor",
                    "type": "uint256"
                },
                {
                    "internalType": "bool",
                    "name": "ilimitado",
                    "type": "bool"
                },
                {
                    "internalType": "uint256",
                    "name": "cantidad",
                    "type": "uint256"
                }
            ],
            "stateMutability": "view",
            "type": "function"
        },
        {
            "inputs": [
                {
                    "internalType": "address payable",
                    "name": "_newadmin",
                    "type": "address"
                }
            ],
            "name": "makeNewAdmin",
            "outputs": [],
            "stateMutability": "nonpayable",
            "type": "function"
        },
        {
            "inputs": [
                {
                    "internalType": "address payable",
                    "name": "_oldadmin",
                    "type": "address"
                }
            ],
            "name": "makeRemoveAdmin",
            "outputs": [],
            "stateMutability": "nonpayable",
            "type": "function"
        },
        {
            "inputs": [],
            "name": "owner",
            "outputs": [
                {
                    "internalType": "address payable",
                    "name": "",
                    "type": "address"
                }
            ],
            "stateMutability": "view",
            "type": "function"
        },
        {
            "inputs": [],
            "name": "redimETH",
            "outputs": [
                {
                    "internalType": "uint256",
                    "name": "",
                    "type": "uint256"
                }
            ],
            "stateMutability": "nonpayable",
            "type": "function"
        },
        {
            "inputs": [],
            "name": "redimOTRO",
            "outputs": [
                {
                    "internalType": "uint256",
                    "name": "",
                    "type": "uint256"
                }
            ],
            "stateMutability": "nonpayable",
            "type": "function"
        },
        {
            "inputs": [],
            "name": "redimTokenPrincipal01",
            "outputs": [
                {
                    "internalType": "uint256",
                    "name": "",
                    "type": "uint256"
                }
            ],
            "stateMutability": "nonpayable",
            "type": "function"
        },
        {
            "inputs": [
                {
                    "internalType": "uint256",
                    "name": "_value",
                    "type": "uint256"
                }
            ],
            "name": "redimTokenPrincipal02",
            "outputs": [
                {
                    "internalType": "uint256",
                    "name": "",
                    "type": "uint256"
                }
            ],
            "stateMutability": "nonpayable",
            "type": "function"
        },
        {
            "inputs": [
                {
                    "internalType": "string",
                    "name": "_correo",
                    "type": "string"
                }
            ],
            "name": "registro",
            "outputs": [],
            "stateMutability": "nonpayable",
            "type": "function"
        },
        {
            "inputs": [],
            "name": "token",
            "outputs": [
                {
                    "internalType": "address",
                    "name": "",
                    "type": "address"
                }
            ],
            "stateMutability": "view",
            "type": "function"
        },
        {
            "inputs": [
                {
                    "internalType": "address payable",
                    "name": "newOwner",
                    "type": "address"
                }
            ],
            "name": "transferOwnership",
            "outputs": [],
            "stateMutability": "nonpayable",
            "type": "function"
        }
    ],
    "bytecode": "6080604052600480546001600160a01b03191673038987095f309d3640f51644430dc6c7c4e2e40917905534801561003657600080fd5b50600080546001600160a01b0319163390811782558152600160208181526040808420805460ff1916909317909255828052600790528051608081019091527f6d5257204ebe7d88fd91ae87941cb2dd9d8062b64ae5a2bd2d28ec40b9fbf6df8054829082906100a5906101b5565b80601f01602080910402602001604051908101604052809291908181526020018280546100d1906101b5565b801561011e5780601f106100f35761010080835404028352916020019161011e565b820191906000526020600020905b81548152906001019060200180831161010157829003601f168201915b5050509183525050600182015460208083019190915260028084015460ff161515604080850191909152600390940154606093840152835160c0810185526080810182815261743160f01b60a083015281526843c33c193756480000928101929092526000938201939093526103e891015260045481546001600160a01b0319166001600160a01b03909116179055506101f09050565b600181811c908216806101c957607f821691505b602082108114156101ea57634e487b7160e01b600052602260045260246000fd5b50919050565b611094806101ff6000396000f3fe608060405234801561001057600080fd5b50600436106101215760003560e01c806370a0966b116100ad578063e7fb74c711610071578063e7fb74c714610287578063eb5b455a1461029a578063f2fde38b146102a2578063fc0c546a146102b5578063fe4681961461028757600080fd5b806370a0966b1461021b5780638929cbc51461022e5780638da5cb5b1461023657806396ba536314610261578063bfb231d21461027457600080fd5b80634a646a6e116100f45780634a646a6e1461018a57806363a846f8146101ad57806363f8de41146101d057806369ed1e0a146101e55780636f7bc9be146101f857600080fd5b8063035092d9146101265780631140e85b1461014e5780632e9928d31461016f57806330dc1a2914610177575b600080fd5b610139610134366004610df1565b6102c8565b60405190151581526020015b60405180910390f35b61016161015c366004610e21565b61034e565b604051908152602001610145565b61016161047b565b610139610185366004610e21565b6104e1565b61019d610198366004610e3a565b610540565b6040516101459493929190610ea4565b6101396101bb366004610e3a565b60016020526000908152604090205460ff1681565b6101e36101de366004610ee9565b6105f6565b005b6101e36101f3366004610e3a565b610639565b61020b610206366004610e3a565b6106be565b6040516101459493929190610f9a565b6101e3610229366004610e3a565b610773565b6101616107f2565b600054610249906001600160a01b031681565b6040516001600160a01b039091168152602001610145565b61013961026f366004610e3a565b61099d565b61019d610282366004610e21565b6109da565b610139610295366004610e21565b6109f5565b610161610b41565b6101e36102b0366004610e3a565b610c98565b600454610249906001600160a01b031681565b3360009081526001602052604081205460ff166102e457600080fd5b6001600160a01b0382166000908152600560205260409020805460ff16801561031f57506002810154600382015461031c9086610d1d565b11155b1561012157838160030160008282546103389190610fc8565b9091555060019250610348915050565b92915050565b600080546001600160a01b0316331461036657600080fd5b6002546040516370a0823160e01b815230600482015283916001600160a01b0316906370a082319060240160206040518083038186803b1580156103a957600080fd5b505afa1580156103bd573d6000803e3d6000fd5b505050506040513d601f19601f820116820180604052508101906103e19190610fee565b10156103ec57600080fd5b60025460005460405163a9059cbb60e01b81526001600160a01b0391821660048201526024810185905291169063a9059cbb90604401602060405180830381600087803b15801561043c57600080fd5b505af1158015610450573d6000803e3d6000fd5b505050506040513d601f19601f820116820180604052508101906104749190611007565b5090919050565b600080546001600160a01b0316331461049357600080fd5b600047116104a057600080fd5b600080546040516001600160a01b03909116914780156108fc02929091818181858888f193505050501580156104da573d6000803e3d6000fd5b5047905090565b336000908152600560205260408120805460ff1680156105135750600281015460038201546105109085610d1d565b11155b15610121578281600301600082825461052c9190610fc8565b909155506001949350505050565b50919050565b60066020526000908152604090208054819061055b90611029565b80601f016020809104026020016040519081016040528092919081815260200182805461058790611029565b80156105d45780601f106105a9576101008083540402835291602001916105d4565b820191906000526020600020905b8154815290600101906020018083116105b757829003601f168201915b50505050600183015460028401546003909401549293909260ff909116915084565b336000908152600560205260409020805460ff161561061457600080fd5b805460ff1916600190811782558251610634918301906020850190610d40565b505050565b6000546001600160a01b0316331461065057600080fd5b6001600160a01b03811661066357600080fd5b6040516001600160a01b038216907f71614071b88dee5e0b2ae578a9dd7b2ebbe9ae832ba419dc0242cd065a290b6c90600090a26001600160a01b03166000908152600160208190526040909120805460ff19169091179055565b6005602052600090815260409020805460018201805460ff90921692916106e490611029565b80601f016020809104026020016040519081016040528092919081815260200182805461071090611029565b801561075d5780601f106107325761010080835404028352916020019161075d565b820191906000526020600020905b81548152906001019060200180831161074057829003601f168201915b5050505050908060020154908060030154905084565b6000546001600160a01b0316331461078a57600080fd5b6001600160a01b03811661079d57600080fd5b6040516001600160a01b038216907fa3b62bc36326052d97ea62d63c3d60308ed4c3ea8ac079dd8499f1e9c4f80c0f90600090a26001600160a01b03166000908152600160205260409020805460ff19169055565b600080546001600160a01b0316331461080a57600080fd5b6003546040516370a0823160e01b81523060048201526000916001600160a01b0316906370a082319060240160206040518083038186803b15801561084e57600080fd5b505afa158015610862573d6000803e3d6000fd5b505050506040513d601f19601f820116820180604052508101906108869190610fee565b1161089057600080fd5b6003546040516370a0823160e01b81523060048201526000916001600160a01b0316906370a082319060240160206040518083038186803b1580156108d457600080fd5b505afa1580156108e8573d6000803e3d6000fd5b505050506040513d601f19601f8201168201806040525081019061090c9190610fee565b60035460005460405163a9059cbb60e01b81526001600160a01b03918216600482015260248101849052929350169063a9059cbb906044015b602060405180830381600087803b15801561095f57600080fd5b505af1158015610973573d6000803e3d6000fd5b505050506040513d601f19601f820116820180604052508101906109979190611007565b50905090565b600080546001600160a01b031633146109b557600080fd5b50600380546001600160a01b0383166001600160a01b03199091161790556001919050565b60076020526000908152604090208054819061055b90611029565b336000908152600560205260408120805460ff161561012157600254604051636eb1769f60e11b815233600482015230602482015284916001600160a01b03169063dd62ed3e9060440160206040518083038186803b158015610a5757600080fd5b505afa158015610a6b573d6000803e3d6000fd5b505050506040513d601f19601f82011682018060405250810190610a8f9190610fee565b1015610a9a57600080fd5b6002546040516323b872dd60e01b8152336004820152306024820152604481018590526001600160a01b03909116906323b872dd90606401602060405180830381600087803b158015610aec57600080fd5b505af1158015610b00573d6000803e3d6000fd5b505050506040513d601f19601f82011682018060405250810190610b249190611007565b610b2d57600080fd5b8281600201600082825461052c9190610fc8565b600080546001600160a01b03163314610b5957600080fd5b6002546040516370a0823160e01b81523060048201526000916001600160a01b0316906370a082319060240160206040518083038186803b158015610b9d57600080fd5b505afa158015610bb1573d6000803e3d6000fd5b505050506040513d601f19601f82011682018060405250810190610bd59190610fee565b11610bdf57600080fd5b6002546040516370a0823160e01b81523060048201526000916001600160a01b0316906370a082319060240160206040518083038186803b158015610c2357600080fd5b505afa158015610c37573d6000803e3d6000fd5b505050506040513d601f19601f82011682018060405250810190610c5b9190610fee565b60025460005460405163a9059cbb60e01b81526001600160a01b03918216600482015260248101849052929350169063a9059cbb90604401610945565b6000546001600160a01b03163314610caf57600080fd5b6001600160a01b038116610cc257600080fd5b600080546040516001600160a01b03808516939216917f8be0079c531659141344cd1fd0a4f28419497f9722a3daafe3b4186f6b6457e091a3600080546001600160a01b0319166001600160a01b0392909216919091179055565b600080610d2a8385610fc8565b905083811015610d3957600080fd5b9392505050565b828054610d4c90611029565b90600052602060002090601f016020900481019282610d6e5760008555610db4565b82601f10610d8757805160ff1916838001178555610db4565b82800160010185558215610db4579182015b82811115610db4578251825591602001919060010190610d99565b50610dc0929150610dc4565b5090565b5b80821115610dc05760008155600101610dc5565b6001600160a01b0381168114610dee57600080fd5b50565b60008060408385031215610e0457600080fd5b823591506020830135610e1681610dd9565b809150509250929050565b600060208284031215610e3357600080fd5b5035919050565b600060208284031215610e4c57600080fd5b8135610d3981610dd9565b6000815180845260005b81811015610e7d57602081850181015186830182015201610e61565b81811115610e8f576000602083870101525b50601f01601f19169290920160200192915050565b608081526000610eb76080830187610e57565b6020830195909552509115156040830152606090910152919050565b634e487b7160e01b600052604160045260246000fd5b600060208284031215610efb57600080fd5b813567ffffffffffffffff80821115610f1357600080fd5b818401915084601f830112610f2757600080fd5b813581811115610f3957610f39610ed3565b604051601f8201601f19908116603f01168101908382118183101715610f6157610f61610ed3565b81604052828152876020848701011115610f7a57600080fd5b826020860160208301376000928101602001929092525095945050505050565b8415158152608060208201526000610fb56080830186610e57565b6040830194909452506060015292915050565b60008219821115610fe957634e487b7160e01b600052601160045260246000fd5b500190565b60006020828403121561100057600080fd5b5051919050565b60006020828403121561101957600080fd5b81518015158114610d3957600080fd5b600181811c9082168061103d57607f821691505b6020821081141561053a57634e487b7160e01b600052602260045260246000fdfea26469706673582212206bf5572f8be633a70d26958129d6133d51c9605a1f7b414c9e23c09391163c0264736f6c63430008090033",
    "sourcePath": "c:/Users/STC/Documents/GitHub/FootBall-ICO/contracts/Market/market.sol",
    "compiler": {
        "name": "solc",
        "version": "0.8.9+commit.e5eed63a"
    },
    "functionHashes": {
        "ChangeTokenOTRO(address)": "96ba5363",
        "admin(address)": "63a846f8",
        "buyCoins(uint256)": "fe468196",
        "buyItem(uint256)": "e7fb74c7",
        "gastarCoins(uint256)": "30dc1a29",
        "gastarCoinsfrom(uint256,address)": "035092d9",
        "inventario(address)": "4a646a6e",
        "investors(address)": "6f7bc9be",
        "items(uint256)": "bfb231d2",
        "makeNewAdmin(address)": "69ed1e0a",
        "makeRemoveAdmin(address)": "70a0966b",
        "owner()": "8da5cb5b",
        "redimETH()": "2e9928d3",
        "redimOTRO()": "8929cbc5",
        "redimTokenPrincipal01()": "eb5b455a",
        "redimTokenPrincipal02(uint256)": "1140e85b",
        "registro(string)": "63f8de41",
        "token()": "fc0c546a",
        "transferOwnership(address)": "f2fde38b"
    },
    "gasEstimates": {
        "creation": {
            "codeDepositCost": "848800",
            "executionCost": "infinite",
            "totalCost": "infinite"
        },
        "external": {
            "ChangeTokenOTRO(address)": "26853",
            "admin(address)": "2559",
            "buyCoins(uint256)": "infinite",
            "buyItem(uint256)": "infinite",
            "gastarCoins(uint256)": "infinite",
            "gastarCoinsfrom(uint256,address)": "infinite",
            "inventario(address)": "infinite",
            "investors(address)": "infinite",
            "items(uint256)": "infinite",
            "makeNewAdmin(address)": "28047",
            "makeRemoveAdmin(address)": "27963",
            "owner()": "2404",
            "redimETH()": "infinite",
            "redimOTRO()": "infinite",
            "redimTokenPrincipal01()": "infinite",
            "redimTokenPrincipal02(uint256)": "infinite",
            "registro(string)": "infinite",
            "token()": "2425",
            "transferOwnership(address)": "30460"
        }
    }
}