{
    "contractName": "Market",
    "abi": [
        {
            "inputs": [],
            "stateMutability": "nonpayable",
            "type": "constructor"
        },
        {
            "anonymous": false,
            "inputs": [
                {
                    "indexed": true,
                    "internalType": "address",
                    "name": "admin",
                    "type": "address"
                }
            ],
            "name": "AdminRemoved",
            "type": "event"
        },
        {
            "anonymous": false,
            "inputs": [
                {
                    "indexed": true,
                    "internalType": "address",
                    "name": "admin",
                    "type": "address"
                }
            ],
            "name": "NewAdmin",
            "type": "event"
        },
        {
            "anonymous": false,
            "inputs": [
                {
                    "indexed": true,
                    "internalType": "address",
                    "name": "previousOwner",
                    "type": "address"
                },
                {
                    "indexed": true,
                    "internalType": "address",
                    "name": "newOwner",
                    "type": "address"
                }
            ],
            "name": "OwnershipTransferred",
            "type": "event"
        },
        {
            "inputs": [
                {
                    "internalType": "address",
                    "name": "_tokenERC20",
                    "type": "address"
                }
            ],
            "name": "ChangePrincipalToken",
            "outputs": [
                {
                    "internalType": "bool",
                    "name": "",
                    "type": "bool"
                }
            ],
            "stateMutability": "nonpayable",
            "type": "function"
        },
        {
            "inputs": [
                {
                    "internalType": "address",
                    "name": "_tokenERC20",
                    "type": "address"
                }
            ],
            "name": "ChangeTokenOTRO",
            "outputs": [
                {
                    "internalType": "bool",
                    "name": "",
                    "type": "bool"
                }
            ],
            "stateMutability": "nonpayable",
            "type": "function"
        },
        {
            "inputs": [
                {
                    "internalType": "string",
                    "name": "_nombre",
                    "type": "string"
                },
                {
                    "internalType": "string",
                    "name": "_tipo",
                    "type": "string"
                },
                {
                    "internalType": "uint256",
                    "name": "_value",
                    "type": "uint256"
                },
                {
                    "internalType": "bool",
                    "name": "_acumulable",
                    "type": "bool"
                },
                {
                    "internalType": "bool",
                    "name": "_ilimitado",
                    "type": "bool"
                },
                {
                    "internalType": "uint256",
                    "name": "_cantidad",
                    "type": "uint256"
                }
            ],
            "name": "addItem",
            "outputs": [
                {
                    "internalType": "bool",
                    "name": "",
                    "type": "bool"
                }
            ],
            "stateMutability": "nonpayable",
            "type": "function"
        },
        {
            "inputs": [
                {
                    "internalType": "string",
                    "name": "_tipo",
                    "type": "string"
                },
                {
                    "internalType": "bool",
                    "name": "_ilimitado",
                    "type": "bool"
                },
                {
                    "internalType": "uint256",
                    "name": "_cantidad",
                    "type": "uint256"
                }
            ],
            "name": "addOption",
            "outputs": [
                {
                    "internalType": "bool",
                    "name": "",
                    "type": "bool"
                }
            ],
            "stateMutability": "nonpayable",
            "type": "function"
        },
        {
            "inputs": [
                {
                    "internalType": "address",
                    "name": "",
                    "type": "address"
                }
            ],
            "name": "admin",
            "outputs": [
                {
                    "internalType": "bool",
                    "name": "",
                    "type": "bool"
                }
            ],
            "stateMutability": "view",
            "type": "function"
        },
        {
            "inputs": [
                {
                    "internalType": "uint256",
                    "name": "_value",
                    "type": "uint256"
                },
                {
                    "internalType": "address",
                    "name": "_user",
                    "type": "address"
                }
            ],
            "name": "asignarCoinsTo",
            "outputs": [
                {
                    "internalType": "bool",
                    "name": "",
                    "type": "bool"
                }
            ],
            "stateMutability": "nonpayable",
            "type": "function"
        },
        {
            "inputs": [
                {
                    "internalType": "uint256",
                    "name": "_value",
                    "type": "uint256"
                }
            ],
            "name": "buyCoins",
            "outputs": [
                {
                    "internalType": "bool",
                    "name": "",
                    "type": "bool"
                }
            ],
            "stateMutability": "nonpayable",
            "type": "function"
        },
        {
            "inputs": [
                {
                    "internalType": "uint256",
                    "name": "_id",
                    "type": "uint256"
                }
            ],
            "name": "buyItem",
            "outputs": [
                {
                    "internalType": "bool",
                    "name": "",
                    "type": "bool"
                }
            ],
            "stateMutability": "nonpayable",
            "type": "function"
        },
        {
            "inputs": [
                {
                    "internalType": "uint256",
                    "name": "_id",
                    "type": "uint256"
                },
                {
                    "internalType": "string",
                    "name": "_nombre",
                    "type": "string"
                },
                {
                    "internalType": "string",
                    "name": "_tipo",
                    "type": "string"
                },
                {
                    "internalType": "uint256",
                    "name": "_value",
                    "type": "uint256"
                },
                {
                    "internalType": "bool",
                    "name": "_acumulable",
                    "type": "bool"
                },
                {
                    "internalType": "bool",
                    "name": "_ilimitado",
                    "type": "bool"
                },
                {
                    "internalType": "uint256",
                    "name": "_cantidad",
                    "type": "uint256"
                }
            ],
            "name": "editItem",
            "outputs": [
                {
                    "internalType": "bool",
                    "name": "",
                    "type": "bool"
                }
            ],
            "stateMutability": "nonpayable",
            "type": "function"
        },
        {
            "inputs": [
                {
                    "internalType": "uint256",
                    "name": "_id",
                    "type": "uint256"
                },
                {
                    "internalType": "string",
                    "name": "_tipo",
                    "type": "string"
                },
                {
                    "internalType": "bool",
                    "name": "_ilimitado",
                    "type": "bool"
                },
                {
                    "internalType": "uint256",
                    "name": "_cantidad",
                    "type": "uint256"
                }
            ],
            "name": "editOption",
            "outputs": [
                {
                    "internalType": "bool",
                    "name": "",
                    "type": "bool"
                }
            ],
            "stateMutability": "nonpayable",
            "type": "function"
        },
        {
            "inputs": [
                {
                    "internalType": "uint256",
                    "name": "_value",
                    "type": "uint256"
                }
            ],
            "name": "gastarCoins",
            "outputs": [
                {
                    "internalType": "bool",
                    "name": "",
                    "type": "bool"
                }
            ],
            "stateMutability": "nonpayable",
            "type": "function"
        },
        {
            "inputs": [
                {
                    "internalType": "uint256",
                    "name": "_value",
                    "type": "uint256"
                },
                {
                    "internalType": "address",
                    "name": "_user",
                    "type": "address"
                }
            ],
            "name": "gastarCoinsfrom",
            "outputs": [
                {
                    "internalType": "bool",
                    "name": "",
                    "type": "bool"
                }
            ],
            "stateMutability": "nonpayable",
            "type": "function"
        },
        {
            "inputs": [
                {
                    "internalType": "address",
                    "name": "",
                    "type": "address"
                },
                {
                    "internalType": "uint256",
                    "name": "",
                    "type": "uint256"
                }
            ],
            "name": "inventario",
            "outputs": [
                {
                    "internalType": "string",
                    "name": "nombre",
                    "type": "string"
                },
                {
                    "internalType": "string",
                    "name": "tipo",
                    "type": "string"
                },
                {
                    "internalType": "uint256",
                    "name": "valor",
                    "type": "uint256"
                },
                {
                    "internalType": "bool",
                    "name": "acumulable",
                    "type": "bool"
                },
                {
                    "internalType": "bool",
                    "name": "ilimitado",
                    "type": "bool"
                },
                {
                    "internalType": "uint256",
                    "name": "cantidad",
                    "type": "uint256"
                }
            ],
            "stateMutability": "view",
            "type": "function"
        },
        {
            "inputs": [
                {
                    "internalType": "address",
                    "name": "",
                    "type": "address"
                }
            ],
            "name": "investors",
            "outputs": [
                {
                    "internalType": "bool",
                    "name": "registered",
                    "type": "bool"
                },
                {
                    "internalType": "string",
                    "name": "correo",
                    "type": "string"
                },
                {
                    "internalType": "uint256",
                    "name": "balance",
                    "type": "uint256"
                },
                {
                    "internalType": "uint256",
                    "name": "gastado",
                    "type": "uint256"
                }
            ],
            "stateMutability": "view",
            "type": "function"
        },
        {
            "inputs": [
                {
                    "internalType": "uint256",
                    "name": "",
                    "type": "uint256"
                }
            ],
            "name": "items",
            "outputs": [
                {
                    "internalType": "string",
                    "name": "nombre",
                    "type": "string"
                },
                {
                    "internalType": "string",
                    "name": "tipo",
                    "type": "string"
                },
                {
                    "internalType": "uint256",
                    "name": "valor",
                    "type": "uint256"
                },
                {
                    "internalType": "bool",
                    "name": "acumulable",
                    "type": "bool"
                },
                {
                    "internalType": "bool",
                    "name": "ilimitado",
                    "type": "bool"
                },
                {
                    "internalType": "uint256",
                    "name": "cantidad",
                    "type": "uint256"
                }
            ],
            "stateMutability": "view",
            "type": "function"
        },
        {
            "inputs": [
                {
                    "internalType": "address",
                    "name": "_user",
                    "type": "address"
                }
            ],
            "name": "largoInventario",
            "outputs": [
                {
                    "internalType": "uint256",
                    "name": "",
                    "type": "uint256"
                }
            ],
            "stateMutability": "view",
            "type": "function"
        },
        {
            "inputs": [],
            "name": "largoItems",
            "outputs": [
                {
                    "internalType": "uint256",
                    "name": "",
                    "type": "uint256"
                }
            ],
            "stateMutability": "view",
            "type": "function"
        },
        {
            "inputs": [],
            "name": "largoOptions",
            "outputs": [
                {
                    "internalType": "uint256",
                    "name": "",
                    "type": "uint256"
                }
            ],
            "stateMutability": "view",
            "type": "function"
        },
        {
            "inputs": [
                {
                    "internalType": "address payable",
                    "name": "_newadmin",
                    "type": "address"
                }
            ],
            "name": "makeNewAdmin",
            "outputs": [],
            "stateMutability": "nonpayable",
            "type": "function"
        },
        {
            "inputs": [
                {
                    "internalType": "address payable",
                    "name": "_oldadmin",
                    "type": "address"
                }
            ],
            "name": "makeRemoveAdmin",
            "outputs": [],
            "stateMutability": "nonpayable",
            "type": "function"
        },
        {
            "inputs": [
                {
                    "internalType": "uint256",
                    "name": "",
                    "type": "uint256"
                }
            ],
            "name": "opciones",
            "outputs": [
                {
                    "internalType": "string",
                    "name": "tipo",
                    "type": "string"
                },
                {
                    "internalType": "bool",
                    "name": "ilimitados",
                    "type": "bool"
                },
                {
                    "internalType": "uint256",
                    "name": "cantidad",
                    "type": "uint256"
                }
            ],
            "stateMutability": "view",
            "type": "function"
        },
        {
            "inputs": [],
            "name": "owner",
            "outputs": [
                {
                    "internalType": "address payable",
                    "name": "",
                    "type": "address"
                }
            ],
            "stateMutability": "view",
            "type": "function"
        },
        {
            "inputs": [],
            "name": "redimETH",
            "outputs": [
                {
                    "internalType": "uint256",
                    "name": "",
                    "type": "uint256"
                }
            ],
            "stateMutability": "nonpayable",
            "type": "function"
        },
        {
            "inputs": [],
            "name": "redimOTRO",
            "outputs": [
                {
                    "internalType": "uint256",
                    "name": "",
                    "type": "uint256"
                }
            ],
            "stateMutability": "nonpayable",
            "type": "function"
        },
        {
            "inputs": [],
            "name": "redimTokenPrincipal01",
            "outputs": [
                {
                    "internalType": "uint256",
                    "name": "",
                    "type": "uint256"
                }
            ],
            "stateMutability": "nonpayable",
            "type": "function"
        },
        {
            "inputs": [
                {
                    "internalType": "uint256",
                    "name": "_value",
                    "type": "uint256"
                }
            ],
            "name": "redimTokenPrincipal02",
            "outputs": [
                {
                    "internalType": "uint256",
                    "name": "",
                    "type": "uint256"
                }
            ],
            "stateMutability": "nonpayable",
            "type": "function"
        },
        {
            "inputs": [
                {
                    "internalType": "string",
                    "name": "_correo",
                    "type": "string"
                }
            ],
            "name": "registro",
            "outputs": [],
            "stateMutability": "nonpayable",
            "type": "function"
        },
        {
            "inputs": [
                {
                    "internalType": "uint256",
                    "name": "_value",
                    "type": "uint256"
                }
            ],
            "name": "sellCoins",
            "outputs": [
                {
                    "internalType": "bool",
                    "name": "",
                    "type": "bool"
                }
            ],
            "stateMutability": "nonpayable",
            "type": "function"
        },
        {
            "inputs": [],
            "name": "token",
            "outputs": [
                {
                    "internalType": "address",
                    "name": "",
                    "type": "address"
                }
            ],
            "stateMutability": "view",
            "type": "function"
        },
        {
            "inputs": [
                {
                    "internalType": "address payable",
                    "name": "newOwner",
                    "type": "address"
                }
            ],
            "name": "transferOwnership",
            "outputs": [],
            "stateMutability": "nonpayable",
            "type": "function"
        },
        {
            "inputs": [
                {
                    "internalType": "string",
                    "name": "_correo",
                    "type": "string"
                }
            ],
            "name": "updateRegistro",
            "outputs": [],
            "stateMutability": "nonpayable",
            "type": "function"
        },
        {
            "inputs": [
                {
                    "internalType": "address",
                    "name": "_user",
                    "type": "address"
                },
                {
                    "internalType": "string",
                    "name": "_correo",
                    "type": "string"
                }
            ],
            "name": "updateRegistroMaster",
            "outputs": [],
            "stateMutability": "nonpayable",
            "type": "function"
        }
    ],
    "bytecode": "60806040526002805473038987095f309d3640f51644430dc6c7c4e2e4096001600160a01b03199182168117909255600380548216831790556004805490911690911790553480156200005157600080fd5b50600080546001600160a01b0319163390811782558152600160208181526040808420805460ff191684179055805161010081018252601460c082019081527f74312d6272617a696c2d6c6567656e646172696f00000000000000000000000060e0830152815281518083018352600a8152696c6567656e646172696f60b01b81850152818401526843c33c1937564800009181019190915260608101849052608081018490526103e860a082015260078054938401815590935282518051600590930260008051602062003807833981519152019262000136928492019062000cc6565b50602082810151805162000151926001850192019062000cc6565b50604082810151600283015560608084015160038401805460808088015161ffff1990921693151561ff0019169390931761010091151582021790915560a09586015160049095019490945582519384018352601760c085019081527f74322d617267656e74696e612d6c6567656e646172696f00000000000000000060e0860152845282518084018452600a8152696c6567656e646172696f60b01b602082810191909152808601919091526843c33c19375648000093850193909352600091840182905283018190526103e89383019390935260078054600181018255935281518051929360008051602062003807833981519152600590910201926200025e928492019062000cc6565b50602082810151805162000279926001850192019062000cc6565b50604082810151600283015560608084015160038401805460808088015161ffff1990921693151561ff0019169390931761010091151582021790915560a09586015160049095019490945582519384018352601660c085019081527f74332d616c656d616e69612d6c6567656e646172696f0000000000000000000060e0860152845282518084018452600a8152696c6567656e646172696f60b01b602082810191909152808601919091526843c33c19375648000093850193909352600091840182905283018190526103e893830193909352600780546001810182559352815180519293600080516020620038078339815191526005909102019262000386928492019062000cc6565b506020828101518051620003a1926001850192019062000cc6565b50604082810151600283015560608084015160038401805460808088015161ffff1990921693151561ff0019169390931761010091151582021790915560a09586015160049095019490945582519384018352600e60c085019081526d74342d6a61706f6e2d657069636f60901b60e0860152845282518084018452600580825264657069636f60d81b60208381019190915280870192909252682f6f10780d22cc00009486019490945260009285018390529084018290526101f494840194909452600780546001810182559152825180519394600080516020620038078339815191529290930291909101926200049e928492019062000cc6565b506020828101518051620004b9926001850192019062000cc6565b50604082810151600283015560608084015160038401805460808088015161ffff1990921693151561ff0019169390931761010091151582021790915560a09586015160049095019490945582519384018352601160c085019081527074352d636f6c6f6d6269612d657069636f60781b60e0860152845282518084018452600580825264657069636f60d81b60208381019190915280870192909252682f6f10780d22cc00009486019490945260009285018390529084018290526101f49484019490945260078054600181018255915282518051939460008051602062003807833981519152929093029190910192620005b9928492019062000cc6565b506020828101518051620005d4926001850192019062000cc6565b50604082810151600283015560608084015160038401805460808088015161ffff1990921693151561ff0019169390931761010091151582021790915560a09586015160049095019490945582519384018352600f60c085019081526e74362d6d657869636f2d657069636f60881b60e0860152845282518084018452600580825264657069636f60d81b60208381019190915280870192909252682f6f10780d22cc00009486019490945260009285018390529084018290526105dc9484019490945260078054600181018255915282518051939460008051602062003807833981519152929093029190910192620006d2928492019062000cc6565b506020828101518051620006ed926001850192019062000cc6565b50604082810151600283015560608084015160038401805460808088015161ffff1990921693151561ff0019169390931761010091151582021790915560a09586015160049095019490945582519384018352601060c085019081526f74372d63726f616369612d657069636f60801b60e0860152845282518084018452600580825264657069636f60d81b60208381019190915280870192909252682f6f10780d22cc00009486019490945260009285018390529084018290526102ee9484019490945260078054600181018255915282518051939460008051602062003807833981519152929093029190910192620007ec928492019062000cc6565b50602082810151805162000807926001850192019062000cc6565b50604082810151600283015560608084015160038401805460808088015161ffff1990921693151561ff0019169390931761010091151582021790915560a09586015160049095019490945582519384018352600b60c085019081526a74382d45552d657069636f60a81b60e0860152845282518084018452600580825264657069636f60d81b60208381019190915280870192909252682f6f10780d22cc00009486019490945260009285018390529084018290526101f4948401949094526007805460018101825591528251805193946000805160206200380783398151915292909302919091019262000901928492019062000cc6565b5060208281015180516200091c926001850192019062000cc6565b50604082810151600283015560608084015160038401805460808088015161ffff1990921693151561ff0019169390931761010091151582021790915560a09586015160049095019490945582519384018352601160c085019081527074392d706f72747567616c2d657069636f60781b60e0860152845282518084018452600580825264657069636f60d81b60208381019190915280870192909252682f6f10780d22cc00009486019490945260009285018390529084018290526102ee948401949094526007805460018101825591528251805193946000805160206200380783398151915292909302919091019262000a1c928492019062000cc6565b50602082810151805162000a37926001850192019062000cc6565b50604082810151600283015560608084015160038401805460808088015161ffff1990921693151561ff0019169390931761010091151582021790915560a09586015160049095019490945582519384018352600d60c085019081526c7431302d6573702d657069636f60981b60e0860152845282518084018452600580825264657069636f60d81b60208381019190915280870192909252682f6f10780d22cc00009486019490945260009285018390529084018290526101f4948401949094526007805460018101825591528251805193946000805160206200380783398151915292909302919091019262000b33928492019062000cc6565b50602082810151805162000b4e926001850192019062000cc6565b5060408281015160028301556060808401516003808501805460808089015161ffff1990921694151561ff001916949094176101009115159190910217905560a09586015160049095019490945582519485018352600a918501918252696c6567656e646172696f60b01b908501528352600060208085018290526001928501839052600880549384018155909152835180516000805160206200382783398151915293909402929092019262000c09928492019062000cc6565b506020828101516001808401805492151560ff1990931692909217909155604093840151600290930192909255825160a08101845260056060820190815264657069636f60d81b60808301528152600081830181905293810183905260088054938401815590935282518051600390930260008051602062003827833981519152019262000c9b928492019062000cc6565b50602082015160018201805460ff191691151591909117905560409091015160029091015562000da9565b82805462000cd49062000d6c565b90600052602060002090601f01602090048101928262000cf8576000855562000d43565b82601f1062000d1357805160ff191683800117855562000d43565b8280016001018555821562000d43579182015b8281111562000d4357825182559160200191906001019062000d26565b5062000d5192915062000d55565b5090565b5b8082111562000d51576000815560010162000d56565b600181811c9082168062000d8157607f821691505b6020821081141562000da357634e487b7160e01b600052602260045260246000fd5b50919050565b612a4e8062000db96000396000f3fe608060405234801561001057600080fd5b50600436106101ef5760003560e01c806370a0966b1161010f578063c991c474116100a2578063eb5b455a11610071578063eb5b455a1461045a578063f2fde38b14610462578063fc0c546a14610475578063fe4681961461048857600080fd5b8063c991c47414610419578063cc3600581461042c578063dd62e6b31461043f578063e7fb74c71461044757600080fd5b806396ba5363116100de57806396ba5363146103bb578063a999d3e0146103ce578063ab97fd60146103e1578063bfb231d21461040657600080fd5b806370a0966b146103625780638929cbc5146103755780638da5cb5b1461037d57806394c37f30146103a857600080fd5b806336ec5fe41161018757806363a846f81161015657806363a846f8146102f457806363f8de411461031757806369ed1e0a1461032c5780636f7bc9be1461033f57600080fd5b806336ec5fe4146102a857806351a4cd73146102bb57806351e954f7146102ce578063571c94d7146102e157600080fd5b806317262d8a116101c357806317262d8a14610263578063238393e4146102855780632e9928d31461028d57806330dc1a291461029557600080fd5b8062cffbcd146101f4578063035092d91461021c57806309650b8e1461022f5780631140e85b14610242575b600080fd5b61020761020236600461244f565b61049b565b60405190151581526020015b60405180910390f35b61020761022a3660046124be565b61054c565b61020761023d3660046124ee565b6105d0565b61025561025036600461254f565b610672565b604051908152602001610213565b61027661027136600461254f565b61079f565b604051610213939291906125c0565b600754610255565b610255610865565b6102076102a336600461254f565b6108cb565b6102076102b63660046125e5565b610929565b6102076102c936600461254f565b610a2a565b6102076102dc366004612682565b610ba7565b6102076102ef3660046124be565b610c9a565b61020761030236600461272a565b60016020526000908152604090205460ff1681565b61032a610325366004612747565b610d0f565b005b61032a61033a36600461272a565b610d52565b61035261034d36600461272a565b610dd7565b6040516102139493929190612784565b61032a61037036600461272a565b610e8c565b610255610f0b565b600054610390906001600160a01b031681565b6040516001600160a01b039091168152602001610213565b61032a6103b63660046127b2565b6110c6565b6102076103c936600461272a565b61111e565b61032a6103dc366004612747565b61115b565b6103f46103ef366004612802565b61118d565b6040516102139695949392919061282e565b6103f461041436600461254f565b611300565b61025561042736600461272a565b611333565b61020761043a36600461272a565b611502565b600854610255565b61020761045536600461254f565b61154d565b610255611a06565b61032a61047036600461272a565b611b5d565b600254610390906001600160a01b031681565b61020761049636600461254f565b611be2565b600080546001600160a01b031633146104b357600080fd5b604080516060810182528581528415156020808301919091529181018490526008805460018101825560009190915281518051929360039092027ff3f7a9fe364faab93b216da50a3214154f22a0a2b415b23a84c8169e8b636ee3019261051d9284920190612302565b5060208201516001828101805460ff191692151592909217909155604090920151600290910155949350505050565b3360009081526001602052604081205460ff1661056857600080fd5b6001600160a01b0382166000908152600560205260409020805460ff161580156105a35750600281015460038201546105a19086611d4b565b115b156105ad57600080fd5b838160030160008282546105c1919061288f565b90915550600195945050505050565b600080546001600160a01b031633146105e857600080fd5b604051806060016040528085815260200184151581526020018381525060088681548110610618576106186128a7565b90600052602060002090600302016000820151816000019080519060200190610642929190612302565b5060208201516001828101805460ff19169215159290921790915560409092015160029091015595945050505050565b600080546001600160a01b0316331461068a57600080fd5b6003546040516370a0823160e01b815230600482015283916001600160a01b0316906370a082319060240160206040518083038186803b1580156106cd57600080fd5b505afa1580156106e1573d6000803e3d6000fd5b505050506040513d601f19601f8201168201806040525081019061070591906128bd565b101561071057600080fd5b60035460005460405163a9059cbb60e01b81526001600160a01b0391821660048201526024810185905291169063a9059cbb90604401602060405180830381600087803b15801561076057600080fd5b505af1158015610774573d6000803e3d6000fd5b505050506040513d601f19601f8201168201806040525081019061079891906128d6565b5090919050565b600881815481106107af57600080fd5b90600052602060002090600302016000915090508060000180546107d2906128f3565b80601f01602080910402602001604051908101604052809291908181526020018280546107fe906128f3565b801561084b5780601f106108205761010080835404028352916020019161084b565b820191906000526020600020905b81548152906001019060200180831161082e57829003601f168201915b505050506001830154600290930154919260ff1691905083565b600080546001600160a01b0316331461087d57600080fd5b6000471161088a57600080fd5b600080546040516001600160a01b03909116914780156108fc02929091818181858888f193505050501580156108c4573d6000803e3d6000fd5b5047905090565b336000908152600560205260408120805460ff161580156108fd5750600281015460038201546108fb9085611d4b565b115b1561090757600080fd5b8281600301600082825461091b919061288f565b909155506001949350505050565b600080546001600160a01b0316331461094157600080fd5b6040805160c08101825288815260208082018990529181018790528515156060820152841515608082015260a081018490526007805460018101825560009190915281518051929360059092027fa66cc928b5edb82af9bd49922954155ab7b0942694bea4ce44661d9a8736c68801926109be9284920190612302565b5060208281015180516109d79260018501920190612302565b50604082015160028201556060820151600382018054608085015115156101000261ff00199315159390931661ffff199091161791909117905560a0909101516004909101555060019695505050505050565b336000908152600560205260408120805460ff16610a4757600080fd5b8060020154838260030154610a5c919061288f565b1115610a6757600080fd5b6003546040516370a0823160e01b815230600482015284916001600160a01b0316906370a082319060240160206040518083038186803b158015610aaa57600080fd5b505afa158015610abe573d6000803e3d6000fd5b505050506040513d601f19601f82011682018060405250810190610ae291906128bd565b1015610aed57600080fd5b60035460405163a9059cbb60e01b8152336004820152602481018590526001600160a01b039091169063a9059cbb90604401602060405180830381600087803b158015610b3957600080fd5b505af1158015610b4d573d6000803e3d6000fd5b505050506040513d601f19601f82011682018060405250810190610b7191906128d6565b610b7a57600080fd5b82816003016000828254610b8e919061288f565b9250508190555082600a600082825461091b919061288f565b600080546001600160a01b03163314610bbf57600080fd5b6040518060c00160405280888152602001878152602001868152602001851515815260200184151581526020018381525060078981548110610c0357610c036128a7565b90600052602060002090600502016000820151816000019080519060200190610c2d929190612302565b506020828101518051610c469260018501920190612302565b50604082015160028201556060820151600382018054608085015115156101000261ff00199315159390931661ffff199091161791909117905560a090910151600490910155506001979650505050505050565b3360009081526001602052604081205460ff16610cb657600080fd5b6001600160a01b0382166000908152600560205260409020805460ff16158015610cf1575060028101546003820154610cef9086611d4b565b115b15610cfb57600080fd5b838160020160008282546105c1919061288f565b336000908152600560205260409020805460ff1615610d2d57600080fd5b805460ff1916600190811782558251610d4d918301906020850190612302565b505050565b6000546001600160a01b03163314610d6957600080fd5b6001600160a01b038116610d7c57600080fd5b6040516001600160a01b038216907f71614071b88dee5e0b2ae578a9dd7b2ebbe9ae832ba419dc0242cd065a290b6c90600090a26001600160a01b03166000908152600160208190526040909120805460ff19169091179055565b6005602052600090815260409020805460018201805460ff9092169291610dfd906128f3565b80601f0160208091040260200160405190810160405280929190818152602001828054610e29906128f3565b8015610e765780601f10610e4b57610100808354040283529160200191610e76565b820191906000526020600020905b815481529060010190602001808311610e5957829003601f168201915b5050505050908060020154908060030154905084565b6000546001600160a01b03163314610ea357600080fd5b6001600160a01b038116610eb657600080fd5b6040516001600160a01b038216907fa3b62bc36326052d97ea62d63c3d60308ed4c3ea8ac079dd8499f1e9c4f80c0f90600090a26001600160a01b03166000908152600160205260409020805460ff19169055565b600080546001600160a01b03163314610f2357600080fd5b600480546040516370a0823160e01b815230928101929092526000916001600160a01b03909116906370a082319060240160206040518083038186803b158015610f6c57600080fd5b505afa158015610f80573d6000803e3d6000fd5b505050506040513d601f19601f82011682018060405250810190610fa491906128bd565b11610fae57600080fd5b600480546040516370a0823160e01b815230928101929092526000916001600160a01b03909116906370a082319060240160206040518083038186803b158015610ff757600080fd5b505afa15801561100b573d6000803e3d6000fd5b505050506040513d601f19601f8201168201806040525081019061102f91906128bd565b6004805460005460405163a9059cbb60e01b81526001600160a01b039182169381019390935260248301849052929350919091169063a9059cbb906044015b602060405180830381600087803b15801561108857600080fd5b505af115801561109c573d6000803e3d6000fd5b505050506040513d601f19601f820116820180604052508101906110c091906128d6565b50905090565b6000546001600160a01b031633146110dd57600080fd5b6001600160a01b0382166000908152600560205260409020805460ff1661110357600080fd5b81516111189060018301906020850190612302565b50505050565b600080546001600160a01b0316331461113657600080fd5b50600480546001600160a01b0383166001600160a01b03199091161790556001919050565b336000908152600560205260409020805460ff1661117857600080fd5b8151610d4d9060018301906020850190612302565b600660205281600052604060002081815481106111a957600080fd5b9060005260206000209060050201600091509150508060000180546111cd906128f3565b80601f01602080910402602001604051908101604052809291908181526020018280546111f9906128f3565b80156112465780601f1061121b57610100808354040283529160200191611246565b820191906000526020600020905b81548152906001019060200180831161122957829003601f168201915b50505050509080600101805461125b906128f3565b80601f0160208091040260200160405190810160405280929190818152602001828054611287906128f3565b80156112d45780601f106112a9576101008083540402835291602001916112d4565b820191906000526020600020905b8154815290600101906020018083116112b757829003601f168201915b505050600284015460038501546004909501549394909360ff8083169450610100909204909116915086565b6007818154811061131057600080fd5b90600052602060002090600502016000915090508060000180546111cd906128f3565b6001600160a01b038116600090815260066020908152604080832080548251818502810185019093528083528493849084015b828210156114f557838290600052602060002090600502016040518060c0016040529081600082018054611399906128f3565b80601f01602080910402602001604051908101604052809291908181526020018280546113c5906128f3565b80156114125780601f106113e757610100808354040283529160200191611412565b820191906000526020600020905b8154815290600101906020018083116113f557829003601f168201915b5050505050815260200160018201805461142b906128f3565b80601f0160208091040260200160405190810160405280929190818152602001828054611457906128f3565b80156114a45780601f10611479576101008083540402835291602001916114a4565b820191906000526020600020905b81548152906001019060200180831161148757829003601f168201915b50505091835250506002820154602080830191909152600383015460ff8082161515604085015261010090910416151560608301526004909201546080909101529082526001929092019101611366565b5050915195945050505050565b600080546001600160a01b0316331461151a57600080fd5b50600480546001600160a01b0383166001600160a01b031991821681179092556002805490911690911790556001919050565b336000908152600560209081526040808320815160808101909252805460ff1615158252600181018054859484019190611586906128f3565b80601f01602080910402602001604051908101604052809291908181526020018280546115b2906128f3565b80156115ff5780601f106115d4576101008083540402835291602001916115ff565b820191906000526020600020905b8154815290600101906020018083116115e257829003601f168201915b50505050508152602001600282015481526020016003820154815250509050600060078481548110611633576116336128a7565b90600052602060002090600502016040518060c001604052908160008201805461165c906128f3565b80601f0160208091040260200160405190810160405280929190818152602001828054611688906128f3565b80156116d55780601f106116aa576101008083540402835291602001916116d5565b820191906000526020600020905b8154815290600101906020018083116116b857829003601f168201915b505050505081526020016001820180546116ee906128f3565b80601f016020809104026020016040519081016040528092919081815260200182805461171a906128f3565b80156117675780601f1061173c57610100808354040283529160200191611767565b820191906000526020600020905b81548152906001019060200180831161174a57829003601f168201915b505050918352505060028201546020820152600382015460ff808216151560408401526101009091041615156060808301919091526004909201546080909101528101519091506117c5576117bb84611d6e565b156117c557600080fd5b81516117d057600080fd5b80608001516117e75760a08101516117e757600080fd5b6040818101516003549151636eb1769f60e11b815233600482015230602482015290916001600160a01b03169063dd62ed3e9060440160206040518083038186803b15801561183557600080fd5b505afa158015611849573d6000803e3d6000fd5b505050506040513d601f19601f8201168201806040525081019061186d91906128bd565b101561187857600080fd5b60035460408281015190516323b872dd60e01b815233600482015230602482015260448101919091526001600160a01b03909116906323b872dd90606401602060405180830381600087803b1580156118d057600080fd5b505af11580156118e4573d6000803e3d6000fd5b505050506040513d601f19601f8201168201806040525081019061190891906128d6565b61191157600080fd5b80608001516119555760016007858154811061192f5761192f6128a7565b9060005260206000209060050201600401600082825461194f919061292e565b90915550505b33600090815260066020908152604082208054600181018255908352918190208351805185946005029092019261199192849290910190612302565b5060208281015180516119aa9260018501920190612302565b5060408281015160028301556060830151600383018054608086015115156101000261ff00199315159390931661ffff199091161791909117905560a090920151600490910155810151600980546000906105c190849061288f565b600080546001600160a01b03163314611a1e57600080fd5b6003546040516370a0823160e01b81523060048201526000916001600160a01b0316906370a082319060240160206040518083038186803b158015611a6257600080fd5b505afa158015611a76573d6000803e3d6000fd5b505050506040513d601f19601f82011682018060405250810190611a9a91906128bd565b11611aa457600080fd5b6003546040516370a0823160e01b81523060048201526000916001600160a01b0316906370a082319060240160206040518083038186803b158015611ae857600080fd5b505afa158015611afc573d6000803e3d6000fd5b505050506040513d601f19601f82011682018060405250810190611b2091906128bd565b60035460005460405163a9059cbb60e01b81526001600160a01b03918216600482015260248101849052929350169063a9059cbb9060440161106e565b6000546001600160a01b03163314611b7457600080fd5b6001600160a01b038116611b8757600080fd5b600080546040516001600160a01b03808516939216917f8be0079c531659141344cd1fd0a4f28419497f9722a3daafe3b4186f6b6457e091a3600080546001600160a01b0319166001600160a01b0392909216919091179055565b336000908152600560205260408120805460ff16611bff57600080fd5b600354604051636eb1769f60e11b815233600482015230602482015284916001600160a01b03169063dd62ed3e9060440160206040518083038186803b158015611c4857600080fd5b505afa158015611c5c573d6000803e3d6000fd5b505050506040513d601f19601f82011682018060405250810190611c8091906128bd565b1015611c8b57600080fd5b6003546040516323b872dd60e01b8152336004820152306024820152604481018590526001600160a01b03909116906323b872dd90606401602060405180830381600087803b158015611cdd57600080fd5b505af1158015611cf1573d6000803e3d6000fd5b505050506040513d601f19601f82011682018060405250810190611d1591906128d6565b611d1e57600080fd5b82816002016000828254611d32919061288f565b92505081905550826009600082825461091b919061288f565b600080611d58838561288f565b905083811015611d6757600080fd5b9392505050565b60008060078381548110611d8457611d846128a7565b90600052602060002090600502016040518060c0016040529081600082018054611dad906128f3565b80601f0160208091040260200160405190810160405280929190818152602001828054611dd9906128f3565b8015611e265780601f10611dfb57610100808354040283529160200191611e26565b820191906000526020600020905b815481529060010190602001808311611e0957829003601f168201915b50505050508152602001600182018054611e3f906128f3565b80601f0160208091040260200160405190810160405280929190818152602001828054611e6b906128f3565b8015611eb85780601f10611e8d57610100808354040283529160200191611eb8565b820191906000526020600020905b815481529060010190602001808311611e9b57829003601f168201915b50505091835250506002820154602080830191909152600383015460ff8082161515604080860191909152610100909204161515606084015260049093015460809092019190915233600090815260068252828120805484518185028101850190955280855294955090939091849084015b828210156120b957838290600052602060002090600502016040518060c0016040529081600082018054611f5d906128f3565b80601f0160208091040260200160405190810160405280929190818152602001828054611f89906128f3565b8015611fd65780601f10611fab57610100808354040283529160200191611fd6565b820191906000526020600020905b815481529060010190602001808311611fb957829003601f168201915b50505050508152602001600182018054611fef906128f3565b80601f016020809104026020016040519081016040528092919081815260200182805461201b906128f3565b80156120685780601f1061203d57610100808354040283529160200191612068565b820191906000526020600020905b81548152906001019060200180831161204b57829003601f168201915b50505091835250506002820154602080830191909152600383015460ff8082161515604085015261010090910416151560608301526004909201546080909101529082526001929092019101611f2a565b5050505090506000805b82518110156122f95783516040516120de9190602001612945565b60405160208183030381529060405280519060200120838281518110612106576121066128a7565b6020026020010151600001516040516020016121229190612945565b60405160208183030381529060405280519060200120141561214757600191506122f9565b60208085015160405161215a9201612945565b60405160208183030381529060405280519060200120838281518110612182576121826128a7565b60200260200101516020015160405160200161219e9190612945565b6040516020818303038152906040528051906020012014156122e7576000805b6008548110156122e457600881815481106121db576121db6128a7565b90600052602060002090600302016000016040516020016121fc9190612961565b60405160208183030381529060405280519060200120858481518110612224576122246128a7565b6020026020010151602001516040516020016122409190612945565b6040516020818303038152906040528051906020012014156122d25781612266816129fd565b9250506008818154811061227c5761227c6128a7565b90600052602060002090600302016002015482101580156122c45750600881815481106122ab576122ab6128a7565b600091825260209091206001600390920201015460ff16155b156122d257600193506122e4565b806122dc816129fd565b9150506121be565b50505b806122f1816129fd565b9150506120c3565b50949350505050565b82805461230e906128f3565b90600052602060002090601f0160209004810192826123305760008555612376565b82601f1061234957805160ff1916838001178555612376565b82800160010185558215612376579182015b8281111561237657825182559160200191906001019061235b565b50612382929150612386565b5090565b5b808211156123825760008155600101612387565b634e487b7160e01b600052604160045260246000fd5b600082601f8301126123c257600080fd5b813567ffffffffffffffff808211156123dd576123dd61239b565b604051601f8301601f19908116603f011681019082821181831017156124055761240561239b565b8160405283815286602085880101111561241e57600080fd5b836020870160208301376000602085830101528094505050505092915050565b801515811461244c57600080fd5b50565b60008060006060848603121561246457600080fd5b833567ffffffffffffffff81111561247b57600080fd5b612487868287016123b1565b93505060208401356124988161243e565b929592945050506040919091013590565b6001600160a01b038116811461244c57600080fd5b600080604083850312156124d157600080fd5b8235915060208301356124e3816124a9565b809150509250929050565b6000806000806080858703121561250457600080fd5b84359350602085013567ffffffffffffffff81111561252257600080fd5b61252e878288016123b1565b935050604085013561253f8161243e565b9396929550929360600135925050565b60006020828403121561256157600080fd5b5035919050565b60005b8381101561258357818101518382015260200161256b565b838111156111185750506000910152565b600081518084526125ac816020860160208601612568565b601f01601f19169290920160200192915050565b6060815260006125d36060830186612594565b93151560208301525060400152919050565b60008060008060008060c087890312156125fe57600080fd5b863567ffffffffffffffff8082111561261657600080fd5b6126228a838b016123b1565b9750602089013591508082111561263857600080fd5b5061264589828a016123b1565b95505060408701359350606087013561265d8161243e565b9250608087013561266d8161243e565b8092505060a087013590509295509295509295565b600080600080600080600060e0888a03121561269d57600080fd5b87359650602088013567ffffffffffffffff808211156126bc57600080fd5b6126c88b838c016123b1565b975060408a01359150808211156126de57600080fd5b506126eb8a828b016123b1565b9550506060880135935060808801356127038161243e565b925060a08801356127138161243e565b8092505060c0880135905092959891949750929550565b60006020828403121561273c57600080fd5b8135611d67816124a9565b60006020828403121561275957600080fd5b813567ffffffffffffffff81111561277057600080fd5b61277c848285016123b1565b949350505050565b841515815260806020820152600061279f6080830186612594565b6040830194909452506060015292915050565b600080604083850312156127c557600080fd5b82356127d0816124a9565b9150602083013567ffffffffffffffff8111156127ec57600080fd5b6127f8858286016123b1565b9150509250929050565b6000806040838503121561281557600080fd5b8235612820816124a9565b946020939093013593505050565b60c08152600061284160c0830189612594565b82810360208401526128538189612594565b604084019790975250509215156060840152901515608083015260a09091015292915050565b634e487b7160e01b600052601160045260246000fd5b600082198211156128a2576128a2612879565b500190565b634e487b7160e01b600052603260045260246000fd5b6000602082840312156128cf57600080fd5b5051919050565b6000602082840312156128e857600080fd5b8151611d678161243e565b600181811c9082168061290757607f821691505b6020821081141561292857634e487b7160e01b600052602260045260246000fd5b50919050565b60008282101561294057612940612879565b500390565b60008251612957818460208701612568565b9190910192915050565b600080835481600182811c91508083168061297d57607f831692505b602080841082141561299d57634e487b7160e01b86526022600452602486fd5b8180156129b157600181146129c2576129ef565b60ff198616895284890196506129ef565b60008a81526020902060005b868110156129e75781548b8201529085019083016129ce565b505084890196505b509498975050505050505050565b6000600019821415612a1157612a11612879565b506001019056fea26469706673582212203dae2f21e719a19c40915edfb495e712795320862d7e3163bac10241f4b9557c64736f6c63430008090033a66cc928b5edb82af9bd49922954155ab7b0942694bea4ce44661d9a8736c688f3f7a9fe364faab93b216da50a3214154f22a0a2b415b23a84c8169e8b636ee3",
    "sourcePath": "c:/Users/STC/Documents/GitHub/FootBall-ICO/contracts/Market/market.sol",
    "compiler": {
        "name": "solc",
        "version": "0.8.9+commit.e5eed63a"
    },
    "functionHashes": {
        "ChangePrincipalToken(address)": "cc360058",
        "ChangeTokenOTRO(address)": "96ba5363",
        "addItem(string,string,uint256,bool,bool,uint256)": "36ec5fe4",
        "addOption(string,bool,uint256)": "00cffbcd",
        "admin(address)": "63a846f8",
        "asignarCoinsTo(uint256,address)": "571c94d7",
        "buyCoins(uint256)": "fe468196",
        "buyItem(uint256)": "e7fb74c7",
        "editItem(uint256,string,string,uint256,bool,bool,uint256)": "51e954f7",
        "editOption(uint256,string,bool,uint256)": "09650b8e",
        "gastarCoins(uint256)": "30dc1a29",
        "gastarCoinsfrom(uint256,address)": "035092d9",
        "inventario(address,uint256)": "ab97fd60",
        "investors(address)": "6f7bc9be",
        "items(uint256)": "bfb231d2",
        "largoInventario(address)": "c991c474",
        "largoItems()": "238393e4",
        "largoOptions()": "dd62e6b3",
        "makeNewAdmin(address)": "69ed1e0a",
        "makeRemoveAdmin(address)": "70a0966b",
        "opciones(uint256)": "17262d8a",
        "owner()": "8da5cb5b",
        "redimETH()": "2e9928d3",
        "redimOTRO()": "8929cbc5",
        "redimTokenPrincipal01()": "eb5b455a",
        "redimTokenPrincipal02(uint256)": "1140e85b",
        "registro(string)": "63f8de41",
        "sellCoins(uint256)": "51a4cd73",
        "token()": "fc0c546a",
        "transferOwnership(address)": "f2fde38b",
        "updateRegistro(string)": "a999d3e0",
        "updateRegistroMaster(address,string)": "94c37f30"
    },
    "gasEstimates": {
        "creation": {
            "codeDepositCost": "2166000",
            "executionCost": "infinite",
            "totalCost": "infinite"
        },
        "external": {
            "ChangePrincipalToken(address)": "51064",
            "ChangeTokenOTRO(address)": "26809",
            "addItem(string,string,uint256,bool,bool,uint256)": "infinite",
            "addOption(string,bool,uint256)": "infinite",
            "admin(address)": "2559",
            "asignarCoinsTo(uint256,address)": "infinite",
            "buyCoins(uint256)": "infinite",
            "buyItem(uint256)": "infinite",
            "editItem(uint256,string,string,uint256,bool,bool,uint256)": "infinite",
            "editOption(uint256,string,bool,uint256)": "infinite",
            "gastarCoins(uint256)": "infinite",
            "gastarCoinsfrom(uint256,address)": "infinite",
            "inventario(address,uint256)": "infinite",
            "investors(address)": "infinite",
            "items(uint256)": "infinite",
            "largoInventario(address)": "infinite",
            "largoItems()": "2360",
            "largoOptions()": "2381",
            "makeNewAdmin(address)": "28047",
            "makeRemoveAdmin(address)": "27986",
            "opciones(uint256)": "infinite",
            "owner()": "2427",
            "redimETH()": "infinite",
            "redimOTRO()": "infinite",
            "redimTokenPrincipal01()": "infinite",
            "redimTokenPrincipal02(uint256)": "infinite",
            "registro(string)": "infinite",
            "sellCoins(uint256)": "infinite",
            "token()": "2425",
            "transferOwnership(address)": "30460",
            "updateRegistro(string)": "infinite",
            "updateRegistroMaster(address,string)": "infinite"
        },
        "internal": {
            "viewDuplicatedItem(uint256)": "infinite"
        }
    }
}