{
    "contractName": "Market",
    "abi": [
        {
            "inputs": [],
            "stateMutability": "nonpayable",
            "type": "constructor"
        },
        {
            "anonymous": false,
            "inputs": [
                {
                    "indexed": true,
                    "internalType": "address",
                    "name": "admin",
                    "type": "address"
                }
            ],
            "name": "AdminRemoved",
            "type": "event"
        },
        {
            "anonymous": false,
            "inputs": [
                {
                    "indexed": true,
                    "internalType": "address",
                    "name": "admin",
                    "type": "address"
                }
            ],
            "name": "NewAdmin",
            "type": "event"
        },
        {
            "anonymous": false,
            "inputs": [
                {
                    "indexed": true,
                    "internalType": "address",
                    "name": "previousOwner",
                    "type": "address"
                },
                {
                    "indexed": true,
                    "internalType": "address",
                    "name": "newOwner",
                    "type": "address"
                }
            ],
            "name": "OwnershipTransferred",
            "type": "event"
        },
        {
            "inputs": [
                {
                    "internalType": "address",
                    "name": "_tokenERC20",
                    "type": "address"
                }
            ],
            "name": "ChangeTokenOTRO",
            "outputs": [
                {
                    "internalType": "bool",
                    "name": "",
                    "type": "bool"
                }
            ],
            "stateMutability": "nonpayable",
            "type": "function"
        },
        {
            "inputs": [
                {
                    "internalType": "address",
                    "name": "",
                    "type": "address"
                }
            ],
            "name": "admin",
            "outputs": [
                {
                    "internalType": "bool",
                    "name": "",
                    "type": "bool"
                }
            ],
            "stateMutability": "view",
            "type": "function"
        },
        {
            "inputs": [
                {
                    "internalType": "uint256",
                    "name": "_value",
                    "type": "uint256"
                }
            ],
            "name": "buyCoins",
            "outputs": [
                {
                    "internalType": "bool",
                    "name": "",
                    "type": "bool"
                }
            ],
            "stateMutability": "nonpayable",
            "type": "function"
        },
        {
            "inputs": [
                {
                    "internalType": "uint256",
                    "name": "_id",
                    "type": "uint256"
                }
            ],
            "name": "buyItem",
            "outputs": [
                {
                    "internalType": "bool",
                    "name": "",
                    "type": "bool"
                }
            ],
            "stateMutability": "nonpayable",
            "type": "function"
        },
        {
            "inputs": [
                {
                    "internalType": "uint256",
                    "name": "_value",
                    "type": "uint256"
                }
            ],
            "name": "gastarCoins",
            "outputs": [
                {
                    "internalType": "bool",
                    "name": "",
                    "type": "bool"
                }
            ],
            "stateMutability": "nonpayable",
            "type": "function"
        },
        {
            "inputs": [
                {
                    "internalType": "uint256",
                    "name": "_value",
                    "type": "uint256"
                },
                {
                    "internalType": "address",
                    "name": "_user",
                    "type": "address"
                }
            ],
            "name": "gastarCoinsfrom",
            "outputs": [
                {
                    "internalType": "bool",
                    "name": "",
                    "type": "bool"
                }
            ],
            "stateMutability": "nonpayable",
            "type": "function"
        },
        {
            "inputs": [
                {
                    "internalType": "address",
                    "name": "",
                    "type": "address"
                },
                {
                    "internalType": "uint256",
                    "name": "",
                    "type": "uint256"
                }
            ],
            "name": "inventario",
            "outputs": [
                {
                    "internalType": "string",
                    "name": "nombre",
                    "type": "string"
                },
                {
                    "internalType": "uint256",
                    "name": "valor",
                    "type": "uint256"
                },
                {
                    "internalType": "bool",
                    "name": "ilimitado",
                    "type": "bool"
                },
                {
                    "internalType": "uint256",
                    "name": "cantidad",
                    "type": "uint256"
                }
            ],
            "stateMutability": "view",
            "type": "function"
        },
        {
            "inputs": [
                {
                    "internalType": "address",
                    "name": "",
                    "type": "address"
                }
            ],
            "name": "investors",
            "outputs": [
                {
                    "internalType": "bool",
                    "name": "registered",
                    "type": "bool"
                },
                {
                    "internalType": "string",
                    "name": "correo",
                    "type": "string"
                },
                {
                    "internalType": "uint256",
                    "name": "balance",
                    "type": "uint256"
                },
                {
                    "internalType": "uint256",
                    "name": "gastado",
                    "type": "uint256"
                }
            ],
            "stateMutability": "view",
            "type": "function"
        },
        {
            "inputs": [
                {
                    "internalType": "uint256",
                    "name": "",
                    "type": "uint256"
                }
            ],
            "name": "items",
            "outputs": [
                {
                    "internalType": "string",
                    "name": "nombre",
                    "type": "string"
                },
                {
                    "internalType": "uint256",
                    "name": "valor",
                    "type": "uint256"
                },
                {
                    "internalType": "bool",
                    "name": "ilimitado",
                    "type": "bool"
                },
                {
                    "internalType": "uint256",
                    "name": "cantidad",
                    "type": "uint256"
                }
            ],
            "stateMutability": "view",
            "type": "function"
        },
        {
            "inputs": [
                {
                    "internalType": "address payable",
                    "name": "_newadmin",
                    "type": "address"
                }
            ],
            "name": "makeNewAdmin",
            "outputs": [],
            "stateMutability": "nonpayable",
            "type": "function"
        },
        {
            "inputs": [
                {
                    "internalType": "address payable",
                    "name": "_oldadmin",
                    "type": "address"
                }
            ],
            "name": "makeRemoveAdmin",
            "outputs": [],
            "stateMutability": "nonpayable",
            "type": "function"
        },
        {
            "inputs": [],
            "name": "owner",
            "outputs": [
                {
                    "internalType": "address payable",
                    "name": "",
                    "type": "address"
                }
            ],
            "stateMutability": "view",
            "type": "function"
        },
        {
            "inputs": [],
            "name": "redimETH",
            "outputs": [
                {
                    "internalType": "uint256",
                    "name": "",
                    "type": "uint256"
                }
            ],
            "stateMutability": "nonpayable",
            "type": "function"
        },
        {
            "inputs": [],
            "name": "redimOTRO",
            "outputs": [
                {
                    "internalType": "uint256",
                    "name": "",
                    "type": "uint256"
                }
            ],
            "stateMutability": "nonpayable",
            "type": "function"
        },
        {
            "inputs": [],
            "name": "redimTokenPrincipal01",
            "outputs": [
                {
                    "internalType": "uint256",
                    "name": "",
                    "type": "uint256"
                }
            ],
            "stateMutability": "nonpayable",
            "type": "function"
        },
        {
            "inputs": [
                {
                    "internalType": "uint256",
                    "name": "_value",
                    "type": "uint256"
                }
            ],
            "name": "redimTokenPrincipal02",
            "outputs": [
                {
                    "internalType": "uint256",
                    "name": "",
                    "type": "uint256"
                }
            ],
            "stateMutability": "nonpayable",
            "type": "function"
        },
        {
            "inputs": [
                {
                    "internalType": "string",
                    "name": "_correo",
                    "type": "string"
                }
            ],
            "name": "registro",
            "outputs": [],
            "stateMutability": "nonpayable",
            "type": "function"
        },
        {
            "inputs": [],
            "name": "token",
            "outputs": [
                {
                    "internalType": "address",
                    "name": "",
                    "type": "address"
                }
            ],
            "stateMutability": "view",
            "type": "function"
        },
        {
            "inputs": [
                {
                    "internalType": "address payable",
                    "name": "newOwner",
                    "type": "address"
                }
            ],
            "name": "transferOwnership",
            "outputs": [],
            "stateMutability": "nonpayable",
            "type": "function"
        }
    ],
    "bytecode": "6080604052600480546001600160a01b03191673038987095f309d3640f51644430dc6c7c4e2e4091790553480156200003757600080fd5b50600080546001600160a01b0319163390811782558152600160208181526040808420805460ff1916909317909255815160c0810183526014608082019081527f74312d6272617a696c2d6c6567656e646172696f00000000000000000000000060a083015281526843c33c193756480000818301529182018390526103e860608301529180526007825280518051919283927f6d5257204ebe7d88fd91ae87941cb2dd9d8062b64ae5a2bd2d28ec40b9fbf6df92620000fc928492910190620002f8565b5060208281015160018381019190915560408085015160028501805460ff1916911515919091179055606094850151600390940193909355825160c0810184526017608082019081527f74322d617267656e74696e612d6c6567656e646172696f00000000000000000060a083015281526843c33c193756480000818401526000938101849052600a94810194909452909152600781528151805192935083927fb39221ace053465ec3453ce2b36430bd138b997ecea25c1043da0c366812b82892620001ce928492910190620002f8565b506020828101516001838101919091556040808501516002808601805460ff191692151592909217909155606095860151600390950194909455805160c0810182526016608082019081527f74332d616c656d616e69612d6c6567656e646172696f0000000000000000000060a083015281526843c33c1937564800008185015260009181018290529485019190915291909152600781528151805192935083927fb7c774451310d1be4108bc180d1b52823cb0ee0274a6c0081bcaf94f115fb96d92620002a1928492910190620002f8565b506020820151600182015560408201516002808301805492151560ff199093169290921790915560609092015160039091015560045481546001600160a01b0319166001600160a01b0390911617905550620003db565b82805462000306906200039e565b90600052602060002090601f0160209004810192826200032a576000855562000375565b82601f106200034557805160ff191683800117855562000375565b8280016001018555821562000375579182015b828111156200037557825182559160200191906001019062000358565b506200038392915062000387565b5090565b5b8082111562000383576000815560010162000388565b600181811c90821680620003b357607f821691505b60208210811415620003d557634e487b7160e01b600052602260045260246000fd5b50919050565b61146980620003eb6000396000f3fe608060405234801561001057600080fd5b50600436106101215760003560e01c80638929cbc5116100ad578063e7fb74c711610071578063e7fb74c714610287578063eb5b455a1461029a578063f2fde38b146102a2578063fc0c546a146102b5578063fe468196146102c857600080fd5b80638929cbc51461020b5780638da5cb5b1461021357806396ba53631461023e578063ab97fd6014610251578063bfb231d21461027457600080fd5b806363a846f8116100f457806363a846f81461018a57806363f8de41146101ad57806369ed1e0a146101c25780636f7bc9be146101d557806370a0966b146101f857600080fd5b8063035092d9146101265780631140e85b1461014e5780632e9928d31461016f57806330dc1a2914610177575b600080fd5b61013961013436600461119a565b6102db565b60405190151581526020015b60405180910390f35b61016161015c3660046111ca565b610361565b604051908152602001610145565b61016161048e565b6101396101853660046111ca565b6104f4565b6101396101983660046111e3565b60016020526000908152604090205460ff1681565b6101c06101bb366004611216565b610553565b005b6101c06101d03660046111e3565b610596565b6101e86101e33660046111e3565b61061b565b6040516101459493929190611314565b6101c06102063660046111e3565b6106d0565b61016161074f565b600054610226906001600160a01b031681565b6040516001600160a01b039091168152602001610145565b61013961024c3660046111e3565b6108fa565b61026461025f366004611342565b610937565b604051610145949392919061136e565b6102646102823660046111ca565b610a12565b6101396102953660046111ca565b610a2d565b610161610d9e565b6101c06102b03660046111e3565b610ef5565b600454610226906001600160a01b031681565b6101396102d63660046111ca565b610f7a565b3360009081526001602052604081205460ff166102f757600080fd5b6001600160a01b0382166000908152600560205260409020805460ff16801561033257506002810154600382015461032f90866110c6565b11155b15610121578381600301600082825461034b919061139d565b909155506001925061035b915050565b92915050565b600080546001600160a01b0316331461037957600080fd5b6002546040516370a0823160e01b815230600482015283916001600160a01b0316906370a082319060240160206040518083038186803b1580156103bc57600080fd5b505afa1580156103d0573d6000803e3d6000fd5b505050506040513d601f19601f820116820180604052508101906103f491906113c3565b10156103ff57600080fd5b60025460005460405163a9059cbb60e01b81526001600160a01b0391821660048201526024810185905291169063a9059cbb90604401602060405180830381600087803b15801561044f57600080fd5b505af1158015610463573d6000803e3d6000fd5b505050506040513d601f19601f8201168201806040525081019061048791906113dc565b5090919050565b600080546001600160a01b031633146104a657600080fd5b600047116104b357600080fd5b600080546040516001600160a01b03909116914780156108fc02929091818181858888f193505050501580156104ed573d6000803e3d6000fd5b5047905090565b336000908152600560205260408120805460ff16801561052657506002810154600382015461052390856110c6565b11155b15610121578281600301600082825461053f919061139d565b909155506001949350505050565b50919050565b336000908152600560205260409020805460ff161561057157600080fd5b805460ff19166001908117825582516105919183019060208501906110e9565b505050565b6000546001600160a01b031633146105ad57600080fd5b6001600160a01b0381166105c057600080fd5b6040516001600160a01b038216907f71614071b88dee5e0b2ae578a9dd7b2ebbe9ae832ba419dc0242cd065a290b6c90600090a26001600160a01b03166000908152600160208190526040909120805460ff19169091179055565b6005602052600090815260409020805460018201805460ff9092169291610641906113fe565b80601f016020809104026020016040519081016040528092919081815260200182805461066d906113fe565b80156106ba5780601f1061068f576101008083540402835291602001916106ba565b820191906000526020600020905b81548152906001019060200180831161069d57829003601f168201915b5050505050908060020154908060030154905084565b6000546001600160a01b031633146106e757600080fd5b6001600160a01b0381166106fa57600080fd5b6040516001600160a01b038216907fa3b62bc36326052d97ea62d63c3d60308ed4c3ea8ac079dd8499f1e9c4f80c0f90600090a26001600160a01b03166000908152600160205260409020805460ff19169055565b600080546001600160a01b0316331461076757600080fd5b6003546040516370a0823160e01b81523060048201526000916001600160a01b0316906370a082319060240160206040518083038186803b1580156107ab57600080fd5b505afa1580156107bf573d6000803e3d6000fd5b505050506040513d601f19601f820116820180604052508101906107e391906113c3565b116107ed57600080fd5b6003546040516370a0823160e01b81523060048201526000916001600160a01b0316906370a082319060240160206040518083038186803b15801561083157600080fd5b505afa158015610845573d6000803e3d6000fd5b505050506040513d601f19601f8201168201806040525081019061086991906113c3565b60035460005460405163a9059cbb60e01b81526001600160a01b03918216600482015260248101849052929350169063a9059cbb906044015b602060405180830381600087803b1580156108bc57600080fd5b505af11580156108d0573d6000803e3d6000fd5b505050506040513d601f19601f820116820180604052508101906108f491906113dc565b50905090565b600080546001600160a01b0316331461091257600080fd5b50600380546001600160a01b0383166001600160a01b03199091161790556001919050565b6006602052816000526040600020818154811061095357600080fd5b906000526020600020906004020160009150915050806000018054610977906113fe565b80601f01602080910402602001604051908101604052809291908181526020018280546109a3906113fe565b80156109f05780601f106109c5576101008083540402835291602001916109f0565b820191906000526020600020905b8154815290600101906020018083116109d357829003601f168201915b50505050600183015460028401546003909401549293909260ff909116915084565b600760205260009081526040902080548190610977906113fe565b336000908152600560209081526040808320815160808101909252805460ff1615158252600181018054859484019190610a66906113fe565b80601f0160208091040260200160405190810160405280929190818152602001828054610a92906113fe565b8015610adf5780601f10610ab457610100808354040283529160200191610adf565b820191906000526020600020905b815481529060010190602001808311610ac257829003601f168201915b50505050508152602001600282015481526020016003820154815250509050600060076000858152602001908152602001600020604051806080016040529081600082018054610b2e906113fe565b80601f0160208091040260200160405190810160405280929190818152602001828054610b5a906113fe565b8015610ba75780601f10610b7c57610100808354040283529160200191610ba7565b820191906000526020600020905b815481529060010190602001808311610b8a57829003601f168201915b505050918352505060018201546020820152600282015460ff16151560408201526003909101546060909101528251909150610be257600080fd5b8060400151610bfd57600181606001511015610bfd57600080fd5b6020810151600254604051636eb1769f60e11b81523360048201523060248201526001600160a01b039091169063dd62ed3e9060440160206040518083038186803b158015610c4b57600080fd5b505afa158015610c5f573d6000803e3d6000fd5b505050506040513d601f19601f82011682018060405250810190610c8391906113c3565b1015610c8e57600080fd5b60025460208201516040516323b872dd60e01b815233600482015230602482015260448101919091526001600160a01b03909116906323b872dd90606401602060405180830381600087803b158015610ce657600080fd5b505af1158015610cfa573d6000803e3d6000fd5b505050506040513d601f19601f82011682018060405250810190610d1e91906113dc565b610d2757600080fd5b336000908152600660209081526040822080546001810182559083529181902083518051859460040290920192610d63928492909101906110e9565b506020820151600182810191909155604083015160028301805460ff1916911515919091179055606090920151600390910155949350505050565b600080546001600160a01b03163314610db657600080fd5b6002546040516370a0823160e01b81523060048201526000916001600160a01b0316906370a082319060240160206040518083038186803b158015610dfa57600080fd5b505afa158015610e0e573d6000803e3d6000fd5b505050506040513d601f19601f82011682018060405250810190610e3291906113c3565b11610e3c57600080fd5b6002546040516370a0823160e01b81523060048201526000916001600160a01b0316906370a082319060240160206040518083038186803b158015610e8057600080fd5b505afa158015610e94573d6000803e3d6000fd5b505050506040513d601f19601f82011682018060405250810190610eb891906113c3565b60025460005460405163a9059cbb60e01b81526001600160a01b03918216600482015260248101849052929350169063a9059cbb906044016108a2565b6000546001600160a01b03163314610f0c57600080fd5b6001600160a01b038116610f1f57600080fd5b600080546040516001600160a01b03808516939216917f8be0079c531659141344cd1fd0a4f28419497f9722a3daafe3b4186f6b6457e091a3600080546001600160a01b0319166001600160a01b0392909216919091179055565b336000908152600560205260408120805460ff161561012157600254604051636eb1769f60e11b815233600482015230602482015284916001600160a01b03169063dd62ed3e9060440160206040518083038186803b158015610fdc57600080fd5b505afa158015610ff0573d6000803e3d6000fd5b505050506040513d601f19601f8201168201806040525081019061101491906113c3565b101561101f57600080fd5b6002546040516323b872dd60e01b8152336004820152306024820152604481018590526001600160a01b03909116906323b872dd90606401602060405180830381600087803b15801561107157600080fd5b505af1158015611085573d6000803e3d6000fd5b505050506040513d601f19601f820116820180604052508101906110a991906113dc565b6110b257600080fd5b8281600201600082825461053f919061139d565b6000806110d3838561139d565b9050838110156110e257600080fd5b9392505050565b8280546110f5906113fe565b90600052602060002090601f016020900481019282611117576000855561115d565b82601f1061113057805160ff191683800117855561115d565b8280016001018555821561115d579182015b8281111561115d578251825591602001919060010190611142565b5061116992915061116d565b5090565b5b80821115611169576000815560010161116e565b6001600160a01b038116811461119757600080fd5b50565b600080604083850312156111ad57600080fd5b8235915060208301356111bf81611182565b809150509250929050565b6000602082840312156111dc57600080fd5b5035919050565b6000602082840312156111f557600080fd5b81356110e281611182565b634e487b7160e01b600052604160045260246000fd5b60006020828403121561122857600080fd5b813567ffffffffffffffff8082111561124057600080fd5b818401915084601f83011261125457600080fd5b81358181111561126657611266611200565b604051601f8201601f19908116603f0116810190838211818310171561128e5761128e611200565b816040528281528760208487010111156112a757600080fd5b826020860160208301376000928101602001929092525095945050505050565b6000815180845260005b818110156112ed576020818501810151868301820152016112d1565b818111156112ff576000602083870101525b50601f01601f19169290920160200192915050565b841515815260806020820152600061132f60808301866112c7565b6040830194909452506060015292915050565b6000806040838503121561135557600080fd5b823561136081611182565b946020939093013593505050565b60808152600061138160808301876112c7565b6020830195909552509115156040830152606090910152919050565b600082198211156113be57634e487b7160e01b600052601160045260246000fd5b500190565b6000602082840312156113d557600080fd5b5051919050565b6000602082840312156113ee57600080fd5b815180151581146110e257600080fd5b600181811c9082168061141257607f821691505b6020821081141561054d57634e487b7160e01b600052602260045260246000fdfea26469706673582212204be1aadef463130db0e67c5d4ec75fd4f8a8d1c05441321e0887fc2914c42a7264736f6c63430008090033",
    "sourcePath": "c:/Users/STC/Documents/GitHub/FootBall-ICO/contracts/Market/market.sol",
    "compiler": {
        "name": "solc",
        "version": "0.8.9+commit.e5eed63a"
    },
    "functionHashes": {
        "ChangeTokenOTRO(address)": "96ba5363",
        "admin(address)": "63a846f8",
        "buyCoins(uint256)": "fe468196",
        "buyItem(uint256)": "e7fb74c7",
        "gastarCoins(uint256)": "30dc1a29",
        "gastarCoinsfrom(uint256,address)": "035092d9",
        "inventario(address,uint256)": "ab97fd60",
        "investors(address)": "6f7bc9be",
        "items(uint256)": "bfb231d2",
        "makeNewAdmin(address)": "69ed1e0a",
        "makeRemoveAdmin(address)": "70a0966b",
        "owner()": "8da5cb5b",
        "redimETH()": "2e9928d3",
        "redimOTRO()": "8929cbc5",
        "redimTokenPrincipal01()": "eb5b455a",
        "redimTokenPrincipal02(uint256)": "1140e85b",
        "registro(string)": "63f8de41",
        "token()": "fc0c546a",
        "transferOwnership(address)": "f2fde38b"
    },
    "gasEstimates": {
        "creation": {
            "codeDepositCost": "1045000",
            "executionCost": "infinite",
            "totalCost": "infinite"
        },
        "external": {
            "ChangeTokenOTRO(address)": "26831",
            "admin(address)": "2537",
            "buyCoins(uint256)": "infinite",
            "buyItem(uint256)": "infinite",
            "gastarCoins(uint256)": "infinite",
            "gastarCoinsfrom(uint256,address)": "infinite",
            "inventario(address,uint256)": "infinite",
            "investors(address)": "infinite",
            "items(uint256)": "infinite",
            "makeNewAdmin(address)": "28025",
            "makeRemoveAdmin(address)": "28051",
            "owner()": "2382",
            "redimETH()": "infinite",
            "redimOTRO()": "infinite",
            "redimTokenPrincipal01()": "infinite",
            "redimTokenPrincipal02(uint256)": "infinite",
            "registro(string)": "infinite",
            "token()": "2425",
            "transferOwnership(address)": "30460"
        }
    }
}