{
    "contractName": "Voter",
    "abi": [
        {
            "inputs": [],
            "stateMutability": "nonpayable",
            "type": "constructor"
        },
        {
            "anonymous": false,
            "inputs": [
                {
                    "indexed": true,
                    "internalType": "address",
                    "name": "admin",
                    "type": "address"
                }
            ],
            "name": "AdminRemoved",
            "type": "event"
        },
        {
            "anonymous": false,
            "inputs": [
                {
                    "indexed": true,
                    "internalType": "address",
                    "name": "admin",
                    "type": "address"
                }
            ],
            "name": "NewAdmin",
            "type": "event"
        },
        {
            "anonymous": false,
            "inputs": [
                {
                    "indexed": true,
                    "internalType": "address",
                    "name": "previousOwner",
                    "type": "address"
                },
                {
                    "indexed": true,
                    "internalType": "address",
                    "name": "newOwner",
                    "type": "address"
                }
            ],
            "name": "OwnershipTransferred",
            "type": "event"
        },
        {
            "stateMutability": "payable",
            "type": "fallback"
        },
        {
            "inputs": [],
            "name": "ReIniciar",
            "outputs": [
                {
                    "internalType": "bool",
                    "name": "",
                    "type": "bool"
                }
            ],
            "stateMutability": "nonpayable",
            "type": "function"
        },
        {
            "inputs": [
                {
                    "internalType": "address",
                    "name": "",
                    "type": "address"
                }
            ],
            "name": "admin",
            "outputs": [
                {
                    "internalType": "bool",
                    "name": "",
                    "type": "bool"
                }
            ],
            "stateMutability": "view",
            "type": "function"
        },
        {
            "inputs": [
                {
                    "internalType": "address",
                    "name": "",
                    "type": "address"
                }
            ],
            "name": "fans",
            "outputs": [
                {
                    "internalType": "bool",
                    "name": "registrado",
                    "type": "bool"
                }
            ],
            "stateMutability": "view",
            "type": "function"
        },
        {
            "inputs": [],
            "name": "ganador",
            "outputs": [
                {
                    "internalType": "uint256",
                    "name": "",
                    "type": "uint256"
                }
            ],
            "stateMutability": "view",
            "type": "function"
        },
        {
            "inputs": [
                {
                    "internalType": "uint256",
                    "name": "",
                    "type": "uint256"
                }
            ],
            "name": "items",
            "outputs": [
                {
                    "internalType": "bool",
                    "name": "",
                    "type": "bool"
                }
            ],
            "stateMutability": "view",
            "type": "function"
        },
        {
            "inputs": [
                {
                    "internalType": "address",
                    "name": "_fan",
                    "type": "address"
                }
            ],
            "name": "largoFanItems",
            "outputs": [
                {
                    "internalType": "uint256",
                    "name": "",
                    "type": "uint256"
                }
            ],
            "stateMutability": "view",
            "type": "function"
        },
        {
            "inputs": [],
            "name": "largoItems",
            "outputs": [
                {
                    "internalType": "uint256",
                    "name": "",
                    "type": "uint256"
                }
            ],
            "stateMutability": "view",
            "type": "function"
        },
        {
            "inputs": [
                {
                    "internalType": "address payable",
                    "name": "_newadmin",
                    "type": "address"
                }
            ],
            "name": "makeNewAdmin",
            "outputs": [],
            "stateMutability": "nonpayable",
            "type": "function"
        },
        {
            "inputs": [
                {
                    "internalType": "address payable",
                    "name": "_oldadmin",
                    "type": "address"
                }
            ],
            "name": "makeRemoveAdmin",
            "outputs": [],
            "stateMutability": "nonpayable",
            "type": "function"
        },
        {
            "inputs": [],
            "name": "owner",
            "outputs": [
                {
                    "internalType": "address payable",
                    "name": "",
                    "type": "address"
                }
            ],
            "stateMutability": "view",
            "type": "function"
        },
        {
            "inputs": [],
            "name": "pool",
            "outputs": [
                {
                    "internalType": "uint256",
                    "name": "",
                    "type": "uint256"
                }
            ],
            "stateMutability": "view",
            "type": "function"
        },
        {
            "inputs": [],
            "name": "reclamar",
            "outputs": [
                {
                    "internalType": "uint256",
                    "name": "",
                    "type": "uint256"
                }
            ],
            "stateMutability": "nonpayable",
            "type": "function"
        },
        {
            "inputs": [],
            "name": "redimBNB",
            "outputs": [
                {
                    "internalType": "uint256",
                    "name": "",
                    "type": "uint256"
                }
            ],
            "stateMutability": "nonpayable",
            "type": "function"
        },
        {
            "inputs": [
                {
                    "internalType": "uint256",
                    "name": "_value",
                    "type": "uint256"
                }
            ],
            "name": "redimToken",
            "outputs": [
                {
                    "internalType": "uint256",
                    "name": "",
                    "type": "uint256"
                }
            ],
            "stateMutability": "nonpayable",
            "type": "function"
        },
        {
            "inputs": [
                {
                    "internalType": "uint256",
                    "name": "_item",
                    "type": "uint256"
                }
            ],
            "name": "setGanador",
            "outputs": [
                {
                    "internalType": "uint256",
                    "name": "",
                    "type": "uint256"
                }
            ],
            "stateMutability": "nonpayable",
            "type": "function"
        },
        {
            "inputs": [
                {
                    "internalType": "address",
                    "name": "_tokebp20",
                    "type": "address"
                }
            ],
            "name": "setToken",
            "outputs": [
                {
                    "internalType": "address",
                    "name": "",
                    "type": "address"
                }
            ],
            "stateMutability": "nonpayable",
            "type": "function"
        },
        {
            "inputs": [],
            "name": "tiempo",
            "outputs": [
                {
                    "internalType": "uint256",
                    "name": "",
                    "type": "uint256"
                }
            ],
            "stateMutability": "view",
            "type": "function"
        },
        {
            "inputs": [
                {
                    "internalType": "address payable",
                    "name": "newOwner",
                    "type": "address"
                }
            ],
            "name": "transferOwnership",
            "outputs": [],
            "stateMutability": "nonpayable",
            "type": "function"
        },
        {
            "inputs": [
                {
                    "internalType": "uint256[]",
                    "name": "_fases",
                    "type": "uint256[]"
                }
            ],
            "name": "updateFases",
            "outputs": [
                {
                    "internalType": "bool",
                    "name": "",
                    "type": "bool"
                }
            ],
            "stateMutability": "nonpayable",
            "type": "function"
        },
        {
            "inputs": [
                {
                    "internalType": "uint256[]",
                    "name": "_precios",
                    "type": "uint256[]"
                }
            ],
            "name": "updatePrecios",
            "outputs": [
                {
                    "internalType": "bool",
                    "name": "",
                    "type": "bool"
                }
            ],
            "stateMutability": "nonpayable",
            "type": "function"
        },
        {
            "inputs": [],
            "name": "valor",
            "outputs": [
                {
                    "internalType": "uint256",
                    "name": "",
                    "type": "uint256"
                }
            ],
            "stateMutability": "view",
            "type": "function"
        },
        {
            "inputs": [
                {
                    "internalType": "address",
                    "name": "_fan",
                    "type": "address"
                },
                {
                    "internalType": "uint256",
                    "name": "_i",
                    "type": "uint256"
                }
            ],
            "name": "verFanItems",
            "outputs": [
                {
                    "internalType": "bool",
                    "name": "",
                    "type": "bool"
                }
            ],
            "stateMutability": "view",
            "type": "function"
        },
        {
            "inputs": [
                {
                    "internalType": "uint256",
                    "name": "_item",
                    "type": "uint256"
                }
            ],
            "name": "votar",
            "outputs": [
                {
                    "internalType": "bool",
                    "name": "",
                    "type": "bool"
                }
            ],
            "stateMutability": "nonpayable",
            "type": "function"
        },
        {
            "inputs": [
                {
                    "internalType": "uint256",
                    "name": "",
                    "type": "uint256"
                }
            ],
            "name": "votos",
            "outputs": [
                {
                    "internalType": "uint256",
                    "name": "",
                    "type": "uint256"
                }
            ],
            "stateMutability": "view",
            "type": "function"
        },
        {
            "stateMutability": "payable",
            "type": "receive"
        }
    ],
    "bytecode": "600280546001600160a01b0319167355d398326f99059ff775485246999027b31979551790556101006040526361816e906080908152636186d0b060a052636188223060c052636188684460e0526200005d9060039060046200027f565b50604080516060810182526802b5e3af16b18800008152680410d586a20a4c0000602082015268056bc75e2d6310000091810191909152620000a4906004906003620002d7565b50600254600580546001600160a01b0319166001600160a01b039092169190911781556040805160a08101825260008082526020820181905291810182905260608101829052608081019190915262000101916007919062000320565b506040805160a0810182526000808252602082018190529181018290526060810182905260808101919091526200013d906008906005620003c7565b506007805462000150916009916200040a565b503480156200015e57600080fd5b50600080546001600160a01b0319163390811782558152600160208181526040808420805460ff191684179055805180820182529384526060848301528051808201825292835260098054825181850281018501909352808352848401938301828280156200020d57602002820191906000526020600020906000905b825461010083900a900460ff161515815260206001928301818104948501949093039092029101808411620001db5790505b5050505050815250905080600660006200022c6200027b60201b60201c565b6001600160a01b031681526020808201929092526040016000208251815460ff19169015151781558282015180519192620002709260018501929091019062000320565b509050505062000472565b3390565b828054828255906000526020600020908101928215620002c5579160200282015b82811115620002c5578251829063ffffffff16905591602001919060010190620002a0565b50620002d39291506200045b565b5090565b828054828255906000526020600020908101928215620002c5579160200282015b82811115620002c557825182906001600160481b0316905591602001919060010190620002f8565b82805482825590600052602060002090601f01602090048101928215620002c55791602002820160005b838211156200038957835183826101000a81548160ff02191690831515021790555092602001926001016020816000010492830192600103026200034a565b8015620003b85782816101000a81549060ff021916905560010160208160000104928301926001030262000389565b5050620002d39291506200045b565b828054828255906000526020600020908101928215620002c5579160200282015b82811115620002c5578251829060ff16905591602001919060010190620003e8565b82805482825590600052602060002090601f01602090048101928215620002c557600052602060002091601f016020900482015b82811115620002c55782548255916001019190600101906200043e565b5b80821115620002d357600081556001016200045c565b61160a80620004826000396000f3fe6080604052600436106101435760003560e01c806370a0966b116100b0578063cff6f53e1161006c578063cff6f53e146103ba578063e9a72315146103cf578063ecbac7cf146103ef578063eecd9c8514610404578063f2fde38b14610419578063fd14d5981461043957005b806370a0966b146103055780638da5cb5b146103255780639114bde8146103455780639d4c2be91461035a578063b2731f0e1461037a578063bfb231d21461039a57005b8063366cb3f2116100ff578063366cb3f2146102425780634b0749cc1461026257806350188c08146102825780635d553a9f1461029557806363a846f8146102b557806369ed1e0a146102e557005b8063074afa6d1461014c578063144fa6d71461019157806316f0115b146101c957806321606831146101ed578063238393e41461020d57806335e756c91461022257005b3661014a57005b005b34801561015857600080fd5b5061017c6101673660046113db565b60066020526000908152604090205460ff1681565b60405190151581526020015b60405180910390f35b34801561019d57600080fd5b506101b16101ac3660046113db565b61044e565b6040516001600160a01b039091168152602001610188565b3480156101d557600080fd5b506101df600a5481565b604051908152602001610188565b3480156101f957600080fd5b5061017c6102083660046113ff565b61049e565b34801561021957600080fd5b506007546101df565b34801561022e57600080fd5b506101df61023d3660046113ff565b6107b7565b34801561024e57600080fd5b5061017c61025d36600461142e565b61081e565b34801561026e57600080fd5b5061017c61027d3660046114ec565b61085b565b34801561028e57600080fd5b50426101df565b3480156102a157600080fd5b506101df6102b03660046113ff565b610928565b3480156102c157600080fd5b5061017c6102d03660046113db565b60016020526000908152604090205460ff1681565b3480156102f157600080fd5b5061014a6103003660046113db565b610a5e565b34801561031157600080fd5b5061014a6103203660046113db565b610aec565b34801561033157600080fd5b506000546101b1906001600160a01b031681565b34801561035157600080fd5b506101df610b74565b34801561036657600080fd5b5061017c61037536600461142e565b610ccf565b34801561038657600080fd5b506101df6103953660046113ff565b610d03565b3480156103a657600080fd5b5061017c6103b53660046113ff565b610d24565b3480156103c657600080fd5b5061017c610d58565b3480156103db57600080fd5b506101df6103ea3660046113db565b610d91565b3480156103fb57600080fd5b506101df610e42565b34801561041057600080fd5b506101df610f85565b34801561042557600080fd5b5061014a6104343660046113db565b611203565b34801561044557600080fd5b506101df611291565b600080546001600160a01b0316336001600160a01b03161461046f57600080fd5b50600580546001600160a01b0383166001600160a01b0319918216811790925560028054909116909117905590565b3360009081526006602052604081206009546001820154146104da57805460ff191660019081178255600980546104d89284019190611315565b505b60006104e4610e42565b11156107ae578060010183815481106104ff576104ff611518565b90600052602060002090602091828204019190069054906101000a900460ff16151560011515141561053057600080fd5b610538610e42565b6005546001600160a01b031663dd62ed3e336040516001600160e01b031960e084901b1681526001600160a01b03909116600482015230602482015260440160206040518083038186803b15801561058f57600080fd5b505afa1580156105a3573d6000803e3d6000fd5b505050506040513d601f19601f820116820180604052508101906105c7919061152e565b10156105d257600080fd5b6105da610e42565b6005546001600160a01b03166370a08231336040516001600160e01b031960e084901b1681526001600160a01b03909116600482015260240160206040518083038186803b15801561062b57600080fd5b505afa15801561063f573d6000803e3d6000fd5b505050506040513d601f19601f82011682018060405250810190610663919061152e565b101561066e57600080fd5b6005546001600160a01b03166323b872dd3330610689610e42565b6040516001600160e01b031960e086901b1681526001600160a01b0393841660048201529290911660248301526044820152606401602060405180830381600087803b1580156106d857600080fd5b505af11580156106ec573d6000803e3d6000fd5b505050506040513d601f19601f820116820180604052508101906107109190611547565b61071957600080fd5b6008838154811061072c5761072c611518565b600091825260208220018054916107428361157f565b9190505550600181600101848154811061075e5761075e611518565b90600052602060002090602091828204019190066101000a81548160ff02191690831515021790555061078f610e42565b600a60008282546107a0919061159a565b909155506001949350505050565b50600092915050565b600080546001600160a01b0316336001600160a01b0316146107d857600080fd5b6001600783815481106107ed576107ed611518565b90600052602060002090602091828204019190066101000a81548160ff021916908315150217905550819050919050565b600080546001600160a01b0316336001600160a01b03161461083f57600080fd5b8151610852906003906020850190611373565b50600192915050565b6001600160a01b038216600090815260066020908152604080832081518083018352815460ff16151581526001820180548451818702810187019095528085528695929485840193909291908301828280156108f657602002820191906000526020600020906000905b825461010083900a900460ff1615158152602060019283018181049485019490930390920291018084116108c55790505b50505050508152505090508060200151838151811061091757610917611518565b602002602001015191505092915050565b600080546001600160a01b0316336001600160a01b03161461094957600080fd5b6005546040516370a0823160e01b815230600482015283916001600160a01b0316906370a082319060240160206040518083038186803b15801561098c57600080fd5b505afa1580156109a0573d6000803e3d6000fd5b505050506040513d601f19601f820116820180604052508101906109c4919061152e565b10156109cf57600080fd5b60055460005460405163a9059cbb60e01b81526001600160a01b0391821660048201526024810185905291169063a9059cbb90604401602060405180830381600087803b158015610a1f57600080fd5b505af1158015610a33573d6000803e3d6000fd5b505050506040513d601f19601f82011682018060405250810190610a579190611547565b5090919050565b6000546001600160a01b0316336001600160a01b031614610a7e57600080fd5b6001600160a01b038116610a9157600080fd5b6040516001600160a01b038216907f71614071b88dee5e0b2ae578a9dd7b2ebbe9ae832ba419dc0242cd065a290b6c90600090a26001600160a01b03166000908152600160208190526040909120805460ff19169091179055565b6000546001600160a01b0316336001600160a01b031614610b0c57600080fd5b6001600160a01b038116610b1f57600080fd5b6040516001600160a01b038216907fa3b62bc36326052d97ea62d63c3d60308ed4c3ea8ac079dd8499f1e9c4f80c0f90600090a26001600160a01b03166000908152600160205260409020805460ff19169055565b33600090815260066020908152604080832081518083018352815460ff1615158152600182018054845181870281018701909552808552869592948584019390929190830182828015610c0657602002820191906000526020600020906000905b825461010083900a900460ff161515815260206001928301818104948501949093039092029101808411610bd55790505b5050505050815250509050600080600090505b600754811015610cc85760078181548110610c3657610c36611518565b90600052602060002090602091828204019190069054906101000a900460ff168015610c7c575082602001518181518110610c7357610c73611518565b60200260200101515b15610cb657610cb360088281548110610c9757610c97611518565b9060005260206000200154600a546112f390919063ffffffff16565b91505b80610cc08161157f565b915050610c19565b5092915050565b600080546001600160a01b0316336001600160a01b031614610cf057600080fd5b8151610852906004906020850190611373565b60088181548110610d1357600080fd5b600091825260209091200154905081565b60078181548110610d3457600080fd5b9060005260206000209060209182820401919006915054906101000a900460ff1681565b600080546001600160a01b0316336001600160a01b031614610d7957600080fd5b60098054610d8991600791611315565b506001905090565b6001600160a01b038116600090815260066020908152604080832081518083018352815460ff1615158152600182018054845181870281018701909552808552869592948584019390929190830182828015610e2c57602002820191906000526020600020906000905b825461010083900a900460ff161515815260206001928301818104948501949093039092029101808411610dfb5790505b5050509190925250505060200151519392505050565b60006003600081548110610e5857610e58611518565b90600052602060002001544210158015610e8f57506003600181548110610e8157610e81611518565b906000526020600020015442105b15610eb8576004600081548110610ea857610ea8611518565b9060005260206000200154905090565b6003600181548110610ecc57610ecc611518565b90600052602060002001544210158015610f0357506003600281548110610ef557610ef5611518565b906000526020600020015442105b15610f1c576004600181548110610ea857610ea8611518565b6003600281548110610f3057610f30611518565b90600052602060002001544210158015610f66575060038081548110610f5857610f58611518565b906000526020600020015442105b15610f7f576004600281548110610ea857610ea8611518565b50600090565b600060038081548110610f9a57610f9a611518565b9060005260206000200154421015610fb157600080fd5b610fb9610b74565b6005546040516370a0823160e01b81523060048201526001600160a01b03909116906370a082319060240160206040518083038186803b158015610ffc57600080fd5b505afa158015611010573d6000803e3d6000fd5b505050506040513d601f19601f82011682018060405250810190611034919061152e565b101561103f57600080fd5b6005546001600160a01b031663a9059cbb33611059610b74565b6040516001600160e01b031960e085901b1681526001600160a01b0390921660048301526024820152604401602060405180830381600087803b15801561109f57600080fd5b505af11580156110b3573d6000803e3d6000fd5b505050506040513d601f19601f820116820180604052508101906110d79190611547565b6110e057600080fd5b33600090815260066020908152604080832081518083018352815460ff1615158152600182018054845181870281018701909552808552919492938584019390929083018282801561117157602002820191906000526020600020906000905b825461010083900a900460ff1615158152602060019283018181049485019490930390920291018084116111405790505b505050505081525050905060098054806020026020016040519081016040528092919081815260200182805480156111e857602002820191906000526020600020906000905b825461010083900a900460ff1615158152602060019283018181049485019490930390920291018084116111b75790505b505050505081602001819052506111fd610b74565b91505090565b6000546001600160a01b0316336001600160a01b03161461122357600080fd5b6001600160a01b03811661123657600080fd5b600080546040516001600160a01b03808516939216917f8be0079c531659141344cd1fd0a4f28419497f9722a3daafe3b4186f6b6457e091a3600080546001600160a01b0319166001600160a01b0392909216919091179055565b600080546001600160a01b0316336001600160a01b0316146112b257600080fd5b600080546040516001600160a01b03909116914780156108fc02929091818181858888f193505050501580156112ec573d6000803e3d6000fd5b5047905090565b600080821161130157600080fd5b600061130d83856115b2565b949350505050565b82805482825590600052602060002090601f0160209004810192821561136357600052602060002091601f016020900482015b82811115611363578254825591600101919060010190611348565b5061136f9291506113ae565b5090565b828054828255906000526020600020908101928215611363579160200282015b82811115611363578251825591602001919060010190611393565b5b8082111561136f57600081556001016113af565b6001600160a01b03811681146113d857600080fd5b50565b6000602082840312156113ed57600080fd5b81356113f8816113c3565b9392505050565b60006020828403121561141157600080fd5b5035919050565b634e487b7160e01b600052604160045260246000fd5b6000602080838503121561144157600080fd5b823567ffffffffffffffff8082111561145957600080fd5b818501915085601f83011261146d57600080fd5b81358181111561147f5761147f611418565b8060051b604051601f19603f830116810181811085821117156114a4576114a4611418565b6040529182528482019250838101850191888311156114c257600080fd5b938501935b828510156114e0578435845293850193928501926114c7565b98975050505050505050565b600080604083850312156114ff57600080fd5b823561150a816113c3565b946020939093013593505050565b634e487b7160e01b600052603260045260246000fd5b60006020828403121561154057600080fd5b5051919050565b60006020828403121561155957600080fd5b815180151581146113f857600080fd5b634e487b7160e01b600052601160045260246000fd5b600060001982141561159357611593611569565b5060010190565b600082198211156115ad576115ad611569565b500190565b6000826115cf57634e487b7160e01b600052601260045260246000fd5b50049056fea2646970667358221220b60a40a4151f7e2ae6cd0e19c0e4db07004f872fced827c0dd59c5b7a63d6c6b64736f6c63430008090033",
    "sourcePath": "c:/Users/STC/Documents/GitHub/FootBall-ICO/contracts/MiFavorite/fan.sol",
    "compiler": {
        "name": "solc",
        "version": "0.8.9+commit.e5eed63a"
    },
    "functionHashes": {
        "ReIniciar()": "cff6f53e",
        "admin(address)": "63a846f8",
        "fans(address)": "074afa6d",
        "ganador()": "9114bde8",
        "items(uint256)": "bfb231d2",
        "largoFanItems(address)": "e9a72315",
        "largoItems()": "238393e4",
        "makeNewAdmin(address)": "69ed1e0a",
        "makeRemoveAdmin(address)": "70a0966b",
        "owner()": "8da5cb5b",
        "pool()": "16f0115b",
        "reclamar()": "eecd9c85",
        "redimBNB()": "fd14d598",
        "redimToken(uint256)": "5d553a9f",
        "setGanador(uint256)": "35e756c9",
        "setToken(address)": "144fa6d7",
        "tiempo()": "50188c08",
        "transferOwnership(address)": "f2fde38b",
        "updateFases(uint256[])": "366cb3f2",
        "updatePrecios(uint256[])": "9d4c2be9",
        "valor()": "ecbac7cf",
        "verFanItems(address,uint256)": "4b0749cc",
        "votar(uint256)": "21606831",
        "votos(uint256)": "b2731f0e"
    },
    "gasEstimates": {
        "creation": {
            "codeDepositCost": "1128400",
            "executionCost": "infinite",
            "totalCost": "infinite"
        },
        "external": {
            "": "229",
            "ReIniciar()": "infinite",
            "admin(address)": "2625",
            "fans(address)": "2538",
            "ganador()": "infinite",
            "items(uint256)": "6358",
            "largoFanItems(address)": "infinite",
            "largoItems()": "2404",
            "makeNewAdmin(address)": "28109",
            "makeRemoveAdmin(address)": "27981",
            "owner()": "2382",
            "pool()": "2363",
            "reclamar()": "infinite",
            "redimBNB()": "infinite",
            "redimToken(uint256)": "infinite",
            "setGanador(uint256)": "30664",
            "setToken(address)": "51079",
            "tiempo()": "258",
            "transferOwnership(address)": "30522",
            "updateFases(uint256[])": "infinite",
            "updatePrecios(uint256[])": "infinite",
            "valor()": "30414",
            "verFanItems(address,uint256)": "infinite",
            "votar(uint256)": "infinite",
            "votos(uint256)": "4686"
        }
    }
}