{
    "contractName": "TokenPool",
    "abi": [
        {
            "inputs": [],
            "stateMutability": "nonpayable",
            "type": "constructor"
        },
        {
            "anonymous": false,
            "inputs": [
                {
                    "indexed": true,
                    "internalType": "address",
                    "name": "owner",
                    "type": "address"
                },
                {
                    "indexed": true,
                    "internalType": "address",
                    "name": "spender",
                    "type": "address"
                },
                {
                    "indexed": false,
                    "internalType": "uint256",
                    "name": "value",
                    "type": "uint256"
                }
            ],
            "name": "Approval",
            "type": "event"
        },
        {
            "anonymous": false,
            "inputs": [
                {
                    "indexed": true,
                    "internalType": "address",
                    "name": "from",
                    "type": "address"
                },
                {
                    "indexed": true,
                    "internalType": "address",
                    "name": "to",
                    "type": "address"
                },
                {
                    "indexed": false,
                    "internalType": "uint256",
                    "name": "value",
                    "type": "uint256"
                }
            ],
            "name": "Transfer",
            "type": "event"
        },
        {
            "inputs": [
                {
                    "internalType": "address",
                    "name": "owner",
                    "type": "address"
                },
                {
                    "internalType": "address",
                    "name": "spender",
                    "type": "address"
                }
            ],
            "name": "allowance",
            "outputs": [
                {
                    "internalType": "uint256",
                    "name": "",
                    "type": "uint256"
                }
            ],
            "stateMutability": "view",
            "type": "function"
        },
        {
            "inputs": [
                {
                    "internalType": "address",
                    "name": "spender",
                    "type": "address"
                },
                {
                    "internalType": "uint256",
                    "name": "amount",
                    "type": "uint256"
                }
            ],
            "name": "approve",
            "outputs": [
                {
                    "internalType": "bool",
                    "name": "",
                    "type": "bool"
                }
            ],
            "stateMutability": "nonpayable",
            "type": "function"
        },
        {
            "inputs": [
                {
                    "internalType": "address",
                    "name": "account",
                    "type": "address"
                }
            ],
            "name": "balanceOf",
            "outputs": [
                {
                    "internalType": "uint256",
                    "name": "",
                    "type": "uint256"
                }
            ],
            "stateMutability": "view",
            "type": "function"
        },
        {
            "inputs": [],
            "name": "burn",
            "outputs": [],
            "stateMutability": "nonpayable",
            "type": "function"
        },
        {
            "inputs": [
                {
                    "internalType": "uint256",
                    "name": "amount",
                    "type": "uint256"
                }
            ],
            "name": "buyToken",
            "outputs": [],
            "stateMutability": "nonpayable",
            "type": "function"
        },
        {
            "inputs": [],
            "name": "decimals",
            "outputs": [
                {
                    "internalType": "uint256",
                    "name": "",
                    "type": "uint256"
                }
            ],
            "stateMutability": "view",
            "type": "function"
        },
        {
            "inputs": [
                {
                    "internalType": "address",
                    "name": "spender",
                    "type": "address"
                },
                {
                    "internalType": "uint256",
                    "name": "subtractedValue",
                    "type": "uint256"
                }
            ],
            "name": "decreaseAllowance",
            "outputs": [
                {
                    "internalType": "bool",
                    "name": "",
                    "type": "bool"
                }
            ],
            "stateMutability": "nonpayable",
            "type": "function"
        },
        {
            "inputs": [
                {
                    "internalType": "address",
                    "name": "spender",
                    "type": "address"
                },
                {
                    "internalType": "uint256",
                    "name": "addedValue",
                    "type": "uint256"
                }
            ],
            "name": "increaseAllowance",
            "outputs": [
                {
                    "internalType": "bool",
                    "name": "",
                    "type": "bool"
                }
            ],
            "stateMutability": "nonpayable",
            "type": "function"
        },
        {
            "inputs": [],
            "name": "name",
            "outputs": [
                {
                    "internalType": "string",
                    "name": "",
                    "type": "string"
                }
            ],
            "stateMutability": "view",
            "type": "function"
        },
        {
            "inputs": [],
            "name": "price",
            "outputs": [
                {
                    "internalType": "uint256",
                    "name": "",
                    "type": "uint256"
                }
            ],
            "stateMutability": "view",
            "type": "function"
        },
        {
            "inputs": [
                {
                    "internalType": "uint256",
                    "name": "amount",
                    "type": "uint256"
                }
            ],
            "name": "sellToken",
            "outputs": [],
            "stateMutability": "nonpayable",
            "type": "function"
        },
        {
            "inputs": [],
            "name": "symbol",
            "outputs": [
                {
                    "internalType": "string",
                    "name": "",
                    "type": "string"
                }
            ],
            "stateMutability": "view",
            "type": "function"
        },
        {
            "inputs": [],
            "name": "tokenPool",
            "outputs": [
                {
                    "internalType": "address",
                    "name": "",
                    "type": "address"
                }
            ],
            "stateMutability": "view",
            "type": "function"
        },
        {
            "inputs": [],
            "name": "totalSupply",
            "outputs": [
                {
                    "internalType": "uint256",
                    "name": "",
                    "type": "uint256"
                }
            ],
            "stateMutability": "view",
            "type": "function"
        },
        {
            "inputs": [
                {
                    "internalType": "address",
                    "name": "recipient",
                    "type": "address"
                },
                {
                    "internalType": "uint256",
                    "name": "amount",
                    "type": "uint256"
                }
            ],
            "name": "transfer",
            "outputs": [
                {
                    "internalType": "bool",
                    "name": "",
                    "type": "bool"
                }
            ],
            "stateMutability": "nonpayable",
            "type": "function"
        },
        {
            "inputs": [
                {
                    "internalType": "address",
                    "name": "sender",
                    "type": "address"
                },
                {
                    "internalType": "address",
                    "name": "recipient",
                    "type": "address"
                },
                {
                    "internalType": "uint256",
                    "name": "amount",
                    "type": "uint256"
                }
            ],
            "name": "transferFrom",
            "outputs": [
                {
                    "internalType": "bool",
                    "name": "",
                    "type": "bool"
                }
            ],
            "stateMutability": "nonpayable",
            "type": "function"
        }
    ],
    "bytecode": "60c0604052601360809081527f4469616d6f6e6420536f6363657220436f696e0000000000000000000000000060a0526002906200003e90826200015c565b506040805180820190915260038082526244534360e81b6020830152906200006790826200015c565b506012600455600680547355d398326f99059ff775485246999027b31979556001600160a01b03199182168117909255600780549091169091179055348015620000b057600080fd5b5062000228565b634e487b7160e01b600052604160045260246000fd5b600181811c90821680620000e257607f821691505b6020821081036200010357634e487b7160e01b600052602260045260246000fd5b50919050565b601f8211156200015757600081815260208120601f850160051c81016020861015620001325750805b601f850160051c820191505b8181101562000153578281556001016200013e565b5050505b505050565b81516001600160401b03811115620001785762000178620000b7565b6200019081620001898454620000cd565b8462000109565b602080601f831160018114620001c85760008415620001af5750858301515b600019600386901b1c1916600185901b17855562000153565b600085815260208120601f198616915b82811015620001f957888601518255948401946001909101908401620001d8565b5085821015620002185787850151600019600388901b60f8161c191681555b5050505050600190811b01905550565b610f6980620002386000396000f3fe608060405234801561001057600080fd5b50600436106101005760003560e01c80633950935111610097578063a035b1fe11610066578063a035b1fe14610212578063a457c2d71461021a578063a9059cbb1461022d578063dd62ed3e1461024057600080fd5b806339509351146101c657806344df8e70146101d957806370a08231146101e157806395d89b411461020a57600080fd5b80632397e4d7116100d35780632397e4d71461018357806323b872dd146101985780632d296bf1146101ab578063313ce567146101be57600080fd5b806306fdde0314610105578063095ea7b314610123578063104e99291461014657806318160ddd14610171575b600080fd5b61010d610279565b60405161011a9190610bdc565b60405180910390f35b610136610131366004610c46565b61030b565b604051901515815260200161011a565b600654610159906001600160a01b031681565b6040516001600160a01b03909116815260200161011a565b6005545b60405190815260200161011a565b610196610191366004610c70565b610322565b005b6101366101a6366004610c89565b610405565b6101966101b9366004610c70565b6104bb565b600454610175565b6101366101d4366004610c46565b61058a565b6101966105c1565b6101756101ef366004610cc5565b6001600160a01b031660009081526020819052604090205490565b61010d6105f2565b610175610601565b610136610228366004610c46565b6106ad565b61013661023b366004610c46565b610748565b61017561024e366004610ce0565b6001600160a01b03918216600090815260016020908152604080832093909416825291909152205490565b60606002805461028890610d13565b80601f01602080910402602001604051908101604052809291908181526020018280546102b490610d13565b80156103015780601f106102d657610100808354040283529160200191610301565b820191906000526020600020905b8154815290600101906020018083116102e457829003601f168201915b5050505050905090565b6000610318338484610755565b5060015b92915050565b600061035361033060045490565b61033b90600a610e47565b61034d610346610601565b859061087a565b906108b6565b6007549091506001600160a01b031663a9059cbb33610378606461034d86606261087a565b6040516001600160e01b031960e085901b1681526001600160a01b03909216600483015260248201526044016020604051808303816000875af11580156103c3573d6000803e3d6000fd5b505050506040513d601f19601f820116820180604052508101906103e79190610e53565b6103ef575050565b6103f933836108d8565b6104016105c1565b5050565b6000610412848484610983565b6001600160a01b03841660009081526001602090815260408083203384529091529020548281101561049c5760405162461bcd60e51b815260206004820152602860248201527f45524332303a207472616e7366657220616d6f756e74206578636565647320616044820152676c6c6f77616e636560c01b60648201526084015b60405180910390fd5b6104b085336104ab8487610b1c565b610755565b506001949350505050565b6007546001600160a01b03166323b872dd336040516001600160e01b031960e084901b1681526001600160a01b039091166004820152306024820152604481018490526064016020604051808303816000875af1158015610520573d6000803e3d6000fd5b505050506040513d601f19601f820116820180604052508101906105449190610e53565b61054b5750565b600061056f610558610601565b61034d61056460045490565b61034690600a610e47565b90506103f933610585606461034d85606361087a565b610b37565b3360008181526001602090815260408083206001600160a01b038716845290915281205490916103189185906104ab908690610e75565b30600090815260208190526040902054156105f057306000818152602081905260409020546105f091906108d8565b565b60606003805461028890610d13565b6007546040516370a0823160e01b815230600482015260009182916001600160a01b03909116906370a0823190602401602060405180830381865afa15801561064e573d6000803e3d6000fd5b505050506040513d601f19601f820116820180604052508101906106729190610e88565b600554909150811580610683575080155b1561069d5760045461069690600a610e47565b9250505090565b6106968161034d61056460045490565b3360009081526001602090815260408083206001600160a01b03861684529091528120548281101561072f5760405162461bcd60e51b815260206004820152602560248201527f45524332303a2064656372656173656420616c6c6f77616e63652062656c6f77604482015264207a65726f60d81b6064820152608401610493565b61073e33856104ab8685610ea1565b5060019392505050565b6000610318338484610983565b6001600160a01b0383166107b75760405162461bcd60e51b8152602060048201526024808201527f45524332303a20617070726f76652066726f6d20746865207a65726f206164646044820152637265737360e01b6064820152608401610493565b6001600160a01b0382166108185760405162461bcd60e51b815260206004820152602260248201527f45524332303a20617070726f766520746f20746865207a65726f206164647265604482015261737360f01b6064820152608401610493565b6001600160a01b0383811660008181526001602090815260408083209487168084529482529182902085905590518481527f8c5be1e5ebec7d5bd14f71427d1e84f3dd0314c0f7b2291e5b200ac8c7c3b92591015b60405180910390a3505050565b60008260000361088c5750600061031c565b60006108988385610eb4565b9050826108a58583610ecb565b146108af57600080fd5b9392505050565b60008082116108c457600080fd5b60006108d08385610ecb565b949350505050565b6001600160a01b038216600090815260208190526040902054818110156109115760405162461bcd60e51b815260040161049390610eed565b61091b8282610ea1565b6001600160a01b038416600090815260208190526040902055600554610942908390610ea1565b6005556040518281526000906001600160a01b038516907fddf252ad1be2c89b69c2b068fc378daa952ba7f163c4a11628f55a4df523b3ef9060200161086d565b6001600160a01b0383166109e75760405162461bcd60e51b815260206004820152602560248201527f45524332303a207472616e736665722066726f6d20746865207a65726f206164604482015264647265737360d81b6064820152608401610493565b6001600160a01b038216610a495760405162461bcd60e51b815260206004820152602360248201527f45524332303a207472616e7366657220746f20746865207a65726f206164647260448201526265737360e81b6064820152608401610493565b6001600160a01b03831660009081526020819052604090205481811015610a825760405162461bcd60e51b815260040161049390610eed565b610a8c8282610ea1565b6001600160a01b038086166000908152602081905260408082209390935590851681529081208054849290610ac2908490610e75565b92505081905550826001600160a01b0316846001600160a01b03167fddf252ad1be2c89b69c2b068fc378daa952ba7f163c4a11628f55a4df523b3ef84604051610b0e91815260200190565b60405180910390a350505050565b600082821115610b2b57600080fd5b60006108d08385610ea1565b6001600160a01b038216600090815260208190526040902054610b5a8183610bc0565b6001600160a01b038416600090815260208190526040902055600554610b809083610bc0565b6005556040518281526001600160a01b0384169030907fddf252ad1be2c89b69c2b068fc378daa952ba7f163c4a11628f55a4df523b3ef9060200161086d565b600080610bcd8385610e75565b9050838110156108af57600080fd5b600060208083528351808285015260005b81811015610c0957858101830151858201604001528201610bed565b506000604082860101526040601f19601f8301168501019250505092915050565b80356001600160a01b0381168114610c4157600080fd5b919050565b60008060408385031215610c5957600080fd5b610c6283610c2a565b946020939093013593505050565b600060208284031215610c8257600080fd5b5035919050565b600080600060608486031215610c9e57600080fd5b610ca784610c2a565b9250610cb560208501610c2a565b9150604084013590509250925092565b600060208284031215610cd757600080fd5b6108af82610c2a565b60008060408385031215610cf357600080fd5b610cfc83610c2a565b9150610d0a60208401610c2a565b90509250929050565b600181811c90821680610d2757607f821691505b602082108103610d4757634e487b7160e01b600052602260045260246000fd5b50919050565b634e487b7160e01b600052601160045260246000fd5b600181815b80851115610d9e578160001904821115610d8457610d84610d4d565b80851615610d9157918102915b93841c9390800290610d68565b509250929050565b600082610db55750600161031c565b81610dc25750600061031c565b8160018114610dd85760028114610de257610dfe565b600191505061031c565b60ff841115610df357610df3610d4d565b50506001821b61031c565b5060208310610133831016604e8410600b8410161715610e21575081810a61031c565b610e2b8383610d63565b8060001904821115610e3f57610e3f610d4d565b029392505050565b60006108af8383610da6565b600060208284031215610e6557600080fd5b815180151581146108af57600080fd5b8082018082111561031c5761031c610d4d565b600060208284031215610e9a57600080fd5b5051919050565b8181038181111561031c5761031c610d4d565b808202811582820484141761031c5761031c610d4d565b600082610ee857634e487b7160e01b600052601260045260246000fd5b500490565b60208082526026908201527f45524332303a207472616e7366657220616d6f756e7420657863656564732062604082015265616c616e636560d01b60608201526080019056fea264697066735822122031a5a34c85e26d41f13a9e91a6c5b616906f1fc6c602c3155cbf2d7ea6d5ba1264736f6c63430008110033",
    "sourcePath": "c:/Users/STC/Documents/GitHub/Crypto-Soccer/contracts/Token DSC (BEP-20)/DiamondCSC.sol",
    "compiler": {
        "name": "solc",
        "version": "0.8.17+commit.8df45f5f"
    },
    "functionHashes": {
        "allowance(address,address)": "dd62ed3e",
        "approve(address,uint256)": "095ea7b3",
        "balanceOf(address)": "70a08231",
        "burn()": "44df8e70",
        "buyToken(uint256)": "2d296bf1",
        "decimals()": "313ce567",
        "decreaseAllowance(address,uint256)": "a457c2d7",
        "increaseAllowance(address,uint256)": "39509351",
        "name()": "06fdde03",
        "price()": "a035b1fe",
        "sellToken(uint256)": "2397e4d7",
        "symbol()": "95d89b41",
        "tokenPool()": "104e9929",
        "totalSupply()": "18160ddd",
        "transfer(address,uint256)": "a9059cbb",
        "transferFrom(address,address,uint256)": "23b872dd"
    },
    "gasEstimates": {
        "creation": {
            "codeDepositCost": "789000",
            "executionCost": "infinite",
            "totalCost": "infinite"
        },
        "external": {
            "allowance(address,address)": "infinite",
            "approve(address,uint256)": "24644",
            "balanceOf(address)": "2607",
            "burn()": "infinite",
            "buyToken(uint256)": "infinite",
            "decimals()": "2381",
            "decreaseAllowance(address,uint256)": "26999",
            "increaseAllowance(address,uint256)": "infinite",
            "name()": "infinite",
            "price()": "infinite",
            "sellToken(uint256)": "infinite",
            "symbol()": "infinite",
            "tokenPool()": "2405",
            "totalSupply()": "2371",
            "transfer(address,uint256)": "infinite",
            "transferFrom(address,address,uint256)": "infinite"
        },
        "internal": {
            "_approve(address,address,uint256)": "infinite",
            "_burn(address,uint256)": "infinite",
            "_print(address,uint256)": "infinite",
            "_transfer(address,address,uint256)": "infinite"
        }
    }
}