{
    "contractName": "Exchange",
    "abi": [
        {
            "inputs": [],
            "stateMutability": "nonpayable",
            "type": "constructor"
        },
        {
            "anonymous": false,
            "inputs": [
                {
                    "indexed": true,
                    "internalType": "address",
                    "name": "admin",
                    "type": "address"
                }
            ],
            "name": "AdminRemoved",
            "type": "event"
        },
        {
            "anonymous": false,
            "inputs": [
                {
                    "indexed": true,
                    "internalType": "address",
                    "name": "admin",
                    "type": "address"
                }
            ],
            "name": "NewAdmin",
            "type": "event"
        },
        {
            "anonymous": false,
            "inputs": [
                {
                    "indexed": true,
                    "internalType": "address",
                    "name": "previousOwner",
                    "type": "address"
                },
                {
                    "indexed": true,
                    "internalType": "address",
                    "name": "newOwner",
                    "type": "address"
                }
            ],
            "name": "OwnershipTransferred",
            "type": "event"
        },
        {
            "inputs": [
                {
                    "internalType": "address",
                    "name": "_tokenERC20",
                    "type": "address"
                }
            ],
            "name": "ChangePrincipalToken",
            "outputs": [
                {
                    "internalType": "bool",
                    "name": "",
                    "type": "bool"
                }
            ],
            "stateMutability": "nonpayable",
            "type": "function"
        },
        {
            "inputs": [
                {
                    "internalType": "address",
                    "name": "_tokenERC20",
                    "type": "address"
                }
            ],
            "name": "ChangeTokenOTRO",
            "outputs": [
                {
                    "internalType": "bool",
                    "name": "",
                    "type": "bool"
                }
            ],
            "stateMutability": "nonpayable",
            "type": "function"
        },
        {
            "inputs": [],
            "name": "FEE_CSC",
            "outputs": [
                {
                    "internalType": "uint256",
                    "name": "",
                    "type": "uint256"
                }
            ],
            "stateMutability": "view",
            "type": "function"
        },
        {
            "inputs": [],
            "name": "MAX_CSC",
            "outputs": [
                {
                    "internalType": "uint256",
                    "name": "",
                    "type": "uint256"
                }
            ],
            "stateMutability": "view",
            "type": "function"
        },
        {
            "inputs": [],
            "name": "MIN_CSC",
            "outputs": [
                {
                    "internalType": "uint256",
                    "name": "",
                    "type": "uint256"
                }
            ],
            "stateMutability": "view",
            "type": "function"
        },
        {
            "inputs": [],
            "name": "TIME_CLAIM",
            "outputs": [
                {
                    "internalType": "uint256",
                    "name": "",
                    "type": "uint256"
                }
            ],
            "stateMutability": "view",
            "type": "function"
        },
        {
            "inputs": [
                {
                    "internalType": "address",
                    "name": "",
                    "type": "address"
                }
            ],
            "name": "admin",
            "outputs": [
                {
                    "internalType": "bool",
                    "name": "",
                    "type": "bool"
                }
            ],
            "stateMutability": "view",
            "type": "function"
        },
        {
            "inputs": [
                {
                    "internalType": "uint256",
                    "name": "_value",
                    "type": "uint256"
                },
                {
                    "internalType": "address",
                    "name": "_user",
                    "type": "address"
                }
            ],
            "name": "asignarCoinsTo",
            "outputs": [
                {
                    "internalType": "bool",
                    "name": "",
                    "type": "bool"
                }
            ],
            "stateMutability": "nonpayable",
            "type": "function"
        },
        {
            "inputs": [
                {
                    "internalType": "uint256",
                    "name": "_value",
                    "type": "uint256"
                }
            ],
            "name": "buyCoins",
            "outputs": [
                {
                    "internalType": "bool",
                    "name": "",
                    "type": "bool"
                }
            ],
            "stateMutability": "nonpayable",
            "type": "function"
        },
        {
            "inputs": [
                {
                    "internalType": "uint256",
                    "name": "_value",
                    "type": "uint256"
                },
                {
                    "internalType": "address",
                    "name": "_user",
                    "type": "address"
                }
            ],
            "name": "gastarCoinsfrom",
            "outputs": [
                {
                    "internalType": "bool",
                    "name": "",
                    "type": "bool"
                }
            ],
            "stateMutability": "nonpayable",
            "type": "function"
        },
        {
            "inputs": [],
            "name": "ingresos",
            "outputs": [
                {
                    "internalType": "uint256",
                    "name": "",
                    "type": "uint256"
                }
            ],
            "stateMutability": "view",
            "type": "function"
        },
        {
            "inputs": [
                {
                    "internalType": "address",
                    "name": "",
                    "type": "address"
                }
            ],
            "name": "investors",
            "outputs": [
                {
                    "internalType": "bool",
                    "name": "baneado",
                    "type": "bool"
                },
                {
                    "internalType": "uint256",
                    "name": "balance",
                    "type": "uint256"
                },
                {
                    "internalType": "uint256",
                    "name": "payAt",
                    "type": "uint256"
                }
            ],
            "stateMutability": "view",
            "type": "function"
        },
        {
            "inputs": [
                {
                    "internalType": "address payable",
                    "name": "_newadmin",
                    "type": "address"
                }
            ],
            "name": "makeNewAdmin",
            "outputs": [],
            "stateMutability": "nonpayable",
            "type": "function"
        },
        {
            "inputs": [
                {
                    "internalType": "address payable",
                    "name": "_oldadmin",
                    "type": "address"
                }
            ],
            "name": "makeRemoveAdmin",
            "outputs": [],
            "stateMutability": "nonpayable",
            "type": "function"
        },
        {
            "inputs": [],
            "name": "owner",
            "outputs": [
                {
                    "internalType": "address payable",
                    "name": "",
                    "type": "address"
                }
            ],
            "stateMutability": "view",
            "type": "function"
        },
        {
            "inputs": [],
            "name": "redimBNB",
            "outputs": [
                {
                    "internalType": "uint256",
                    "name": "",
                    "type": "uint256"
                }
            ],
            "stateMutability": "nonpayable",
            "type": "function"
        },
        {
            "inputs": [],
            "name": "redimOTRO",
            "outputs": [
                {
                    "internalType": "uint256",
                    "name": "",
                    "type": "uint256"
                }
            ],
            "stateMutability": "nonpayable",
            "type": "function"
        },
        {
            "inputs": [],
            "name": "redimTokenPrincipal",
            "outputs": [
                {
                    "internalType": "uint256",
                    "name": "",
                    "type": "uint256"
                }
            ],
            "stateMutability": "nonpayable",
            "type": "function"
        },
        {
            "inputs": [
                {
                    "internalType": "uint256",
                    "name": "_value",
                    "type": "uint256"
                }
            ],
            "name": "redimTokenPrincipal02",
            "outputs": [
                {
                    "internalType": "uint256",
                    "name": "",
                    "type": "uint256"
                }
            ],
            "stateMutability": "nonpayable",
            "type": "function"
        },
        {
            "inputs": [],
            "name": "retiros",
            "outputs": [
                {
                    "internalType": "uint256",
                    "name": "",
                    "type": "uint256"
                }
            ],
            "stateMutability": "view",
            "type": "function"
        },
        {
            "inputs": [
                {
                    "internalType": "uint256",
                    "name": "_value",
                    "type": "uint256"
                }
            ],
            "name": "sellCoins",
            "outputs": [
                {
                    "internalType": "bool",
                    "name": "",
                    "type": "bool"
                }
            ],
            "stateMutability": "nonpayable",
            "type": "function"
        },
        {
            "inputs": [],
            "name": "token",
            "outputs": [
                {
                    "internalType": "address",
                    "name": "",
                    "type": "address"
                }
            ],
            "stateMutability": "view",
            "type": "function"
        },
        {
            "inputs": [
                {
                    "internalType": "address payable",
                    "name": "newOwner",
                    "type": "address"
                }
            ],
            "name": "transferOwnership",
            "outputs": [],
            "stateMutability": "nonpayable",
            "type": "function"
        },
        {
            "inputs": [
                {
                    "internalType": "uint256",
                    "name": "_fee",
                    "type": "uint256"
                }
            ],
            "name": "updateFee",
            "outputs": [],
            "stateMutability": "nonpayable",
            "type": "function"
        },
        {
            "inputs": [
                {
                    "internalType": "uint256",
                    "name": "_min",
                    "type": "uint256"
                },
                {
                    "internalType": "uint256",
                    "name": "_max",
                    "type": "uint256"
                }
            ],
            "name": "updateMinMax",
            "outputs": [],
            "stateMutability": "nonpayable",
            "type": "function"
        },
        {
            "inputs": [
                {
                    "internalType": "uint256",
                    "name": "_time",
                    "type": "uint256"
                }
            ],
            "name": "updateTimeToClaim",
            "outputs": [],
            "stateMutability": "nonpayable",
            "type": "function"
        }
    ],
    "bytecode": "60806040526002805473f0fb4a5acf1b1126a991ee189408b112028d7a636001600160a01b03199182168117909255681b1ae4d6e2ef50000060035569021e19e0c9bab240000060045568056bc75e2d6310000060055562093a806006556007805482168317905560088054909116909117905534801561007f57600080fd5b50600080546001600160a01b0319163390811782558152600160208190526040909120805460ff19169091179055610f76806100bc6000396000f3fe608060405234801561001057600080fd5b506004361061018e5760003560e01c80638da5cb5b116100de578063d2a17c7b11610097578063f2fde38b11610071578063f2fde38b1461036d578063fc0c546a14610380578063fd14d59814610393578063fe4681961461039b57600080fd5b8063d2a17c7b14610352578063d47edbaa1461035b578063d60fd9b91461036457600080fd5b80638da5cb5b146102d25780639012c4a8146102fd57806391eb34e01461031057806396ba536314610319578063cac885d81461032c578063cc3600581461033f57600080fd5b8063571c94d71161014b5780636f7bc9be116101255780636f7bc9be1461025e57806370a0966b146102ae5780637b9719f2146102c15780638929cbc5146102ca57600080fd5b8063571c94d71461021557806363a846f81461022857806369ed1e0a1461024b57600080fd5b8063035092d914610193578063089a0cc5146101bb5780631140e85b146101d257806329702678146101e55780633bbd391e146101ed57806351a4cd7314610202575b600080fd5b6101a66101a1366004610e91565b6103ae565b60405190151581526020015b60405180910390f35b6101c460055481565b6040519081526020016101b2565b6101c46101e0366004610e5f565b610422565b6101c461054f565b6102006101fb366004610ec1565b6106fa565b005b6101a6610210366004610e5f565b61071c565b6101a6610223366004610e91565b61089f565b6101a6610236366004610e20565b60016020526000908152604090205460ff1681565b610200610259366004610e20565b6108f6565b61029161026c366004610e20565b60096020526000908152604090208054600182015460029092015460ff909116919083565b6040805193151584526020840192909252908201526060016101b2565b6102006102bc366004610e20565b61097b565b6101c4600b5481565b6101c46109fa565b6000546102e5906001600160a01b031681565b6040516001600160a01b0390911681526020016101b2565b61020061030b366004610e5f565b610b51565b6101c460035481565b6101a6610327366004610e20565b610b6d565b61020061033a366004610e5f565b610baa565b6101a661034d366004610e20565b610bc6565b6101c4600a5481565b6101c460045481565b6101c460065481565b61020061037b366004610e20565b610c11565b6002546102e5906001600160a01b031681565b6101c4610c96565b6101a66103a9366004610e5f565b610cfc565b3360009081526001602052604081205460ff166103ca57600080fd5b6001600160a01b0382166000908152600960205260409020805460ff16806103f55750806001015484115b156103ff57600080fd5b838160010160008282546104139190610efb565b90915550600195945050505050565b600080546001600160a01b0316331461043a57600080fd5b6007546040516370a0823160e01b815230600482015283916001600160a01b0316906370a082319060240160206040518083038186803b15801561047d57600080fd5b505afa158015610491573d6000803e3d6000fd5b505050506040513d601f19601f820116820180604052508101906104b59190610e78565b10156104c057600080fd5b60075460005460405163a9059cbb60e01b81526001600160a01b0391821660048201526024810185905291169063a9059cbb90604401602060405180830381600087803b15801561051057600080fd5b505af1158015610524573d6000803e3d6000fd5b505050506040513d601f19601f820116820180604052508101906105489190610e3d565b5090919050565b600080546001600160a01b0316331461056757600080fd5b6007546040516370a0823160e01b81523060048201526000916001600160a01b0316906370a082319060240160206040518083038186803b1580156105ab57600080fd5b505afa1580156105bf573d6000803e3d6000fd5b505050506040513d601f19601f820116820180604052508101906105e39190610e78565b116105ed57600080fd5b6007546040516370a0823160e01b81523060048201526000916001600160a01b0316906370a082319060240160206040518083038186803b15801561063157600080fd5b505afa158015610645573d6000803e3d6000fd5b505050506040513d601f19601f820116820180604052508101906106699190610e78565b60075460005460405163a9059cbb60e01b81526001600160a01b03918216600482015260248101849052929350169063a9059cbb906044015b602060405180830381600087803b1580156106bc57600080fd5b505af11580156106d0573d6000803e3d6000fd5b505050506040513d601f19601f820116820180604052508101906106f49190610e3d565b50905090565b6000546001600160a01b0316331461071157600080fd5b600391909155600455565b600060035482101561072d57600080fd5b60045482111561073c57600080fd5b336000908152600960205260409020600654600282015461075c91610dda565b42111561076857600080fd5b805460ff161561077757600080fd5b806001015483111561078857600080fd5b600554156107b25760006107a760055485610dfd90919063ffffffff16565b10156107b257600080fd5b6007546005546001600160a01b039091169063a9059cbb9033906107d7908790610dfd565b6040516001600160e01b031960e085901b1681526001600160a01b0390921660048301526024820152604401602060405180830381600087803b15801561081d57600080fd5b505af1158015610831573d6000803e3d6000fd5b505050506040513d601f19601f820116820180604052508101906108559190610e3d565b61085e57600080fd5b828160010160008282546108729190610efb565b9250508190555082600b600082825461088b9190610ee3565b909155505042600290910155506001919050565b3360009081526001602052604081205460ff166108bb57600080fd5b6001600160a01b0382166000908152600960205260409020805460ff16156108e257600080fd5b838160010160008282546104139190610ee3565b6000546001600160a01b0316331461090d57600080fd5b6001600160a01b03811661092057600080fd5b6040516001600160a01b038216907f71614071b88dee5e0b2ae578a9dd7b2ebbe9ae832ba419dc0242cd065a290b6c90600090a26001600160a01b03166000908152600160208190526040909120805460ff19169091179055565b6000546001600160a01b0316331461099257600080fd5b6001600160a01b0381166109a557600080fd5b6040516001600160a01b038216907fa3b62bc36326052d97ea62d63c3d60308ed4c3ea8ac079dd8499f1e9c4f80c0f90600090a26001600160a01b03166000908152600160205260409020805460ff19169055565b600080546001600160a01b03163314610a1257600080fd5b6008546040516370a0823160e01b81523060048201526000916001600160a01b0316906370a082319060240160206040518083038186803b158015610a5657600080fd5b505afa158015610a6a573d6000803e3d6000fd5b505050506040513d601f19601f82011682018060405250810190610a8e9190610e78565b11610a9857600080fd5b6008546040516370a0823160e01b81523060048201526000916001600160a01b0316906370a082319060240160206040518083038186803b158015610adc57600080fd5b505afa158015610af0573d6000803e3d6000fd5b505050506040513d601f19601f82011682018060405250810190610b149190610e78565b60085460005460405163a9059cbb60e01b81526001600160a01b03918216600482015260248101849052929350169063a9059cbb906044016106a2565b6000546001600160a01b03163314610b6857600080fd5b600555565b600080546001600160a01b03163314610b8557600080fd5b50600880546001600160a01b0383166001600160a01b03199091161790556001919050565b6000546001600160a01b03163314610bc157600080fd5b600655565b600080546001600160a01b03163314610bde57600080fd5b50600780546001600160a01b0383166001600160a01b031991821681179092556002805490911690911790556001919050565b6000546001600160a01b03163314610c2857600080fd5b6001600160a01b038116610c3b57600080fd5b600080546040516001600160a01b03808516939216917f8be0079c531659141344cd1fd0a4f28419497f9722a3daafe3b4186f6b6457e091a3600080546001600160a01b0319166001600160a01b0392909216919091179055565b600080546001600160a01b03163314610cae57600080fd5b60004711610cbb57600080fd5b600080546040516001600160a01b03909116914780156108fc02929091818181858888f19350505050158015610cf5573d6000803e3d6000fd5b5047905090565b336000908152600960205260408120805460ff1615610d1a57600080fd5b6007546040516323b872dd60e01b8152336004820152306024820152604481018590526001600160a01b03909116906323b872dd90606401602060405180830381600087803b158015610d6c57600080fd5b505af1158015610d80573d6000803e3d6000fd5b505050506040513d601f19601f82011682018060405250810190610da49190610e3d565b610dad57600080fd5b6001810154610dbc9084610dda565b6001820155600a54610dce9084610dda565b600a5550600192915050565b600080610de78385610ee3565b905083811015610df657600080fd5b9392505050565b600082821115610e0c57600080fd5b6000610e188385610efb565b949350505050565b600060208284031215610e3257600080fd5b8135610df681610f28565b600060208284031215610e4f57600080fd5b81518015158114610df657600080fd5b600060208284031215610e7157600080fd5b5035919050565b600060208284031215610e8a57600080fd5b5051919050565b60008060408385031215610ea457600080fd5b823591506020830135610eb681610f28565b809150509250929050565b60008060408385031215610ed457600080fd5b50508035926020909101359150565b60008219821115610ef657610ef6610f12565b500190565b600082821015610f0d57610f0d610f12565b500390565b634e487b7160e01b600052601160045260246000fd5b6001600160a01b0381168114610f3d57600080fd5b5056fea2646970667358221220e836c45455a727e2da1a38f6f08482cc0bc04a1fe37e98765e4ddcbeadcf90e964736f6c63430008070033",
    "sourcePath": "c:/Users/STC/Documents/GitHub/FootBall-ICO/contracts/Market 2.0/Exchange.sol",
    "compiler": {
        "name": "solc",
        "version": "0.8.7+commit.e28d00a7"
    },
    "functionHashes": {
        "ChangePrincipalToken(address)": "cc360058",
        "ChangeTokenOTRO(address)": "96ba5363",
        "FEE_CSC()": "089a0cc5",
        "MAX_CSC()": "d47edbaa",
        "MIN_CSC()": "91eb34e0",
        "TIME_CLAIM()": "d60fd9b9",
        "admin(address)": "63a846f8",
        "asignarCoinsTo(uint256,address)": "571c94d7",
        "buyCoins(uint256)": "fe468196",
        "gastarCoinsfrom(uint256,address)": "035092d9",
        "ingresos()": "d2a17c7b",
        "investors(address)": "6f7bc9be",
        "makeNewAdmin(address)": "69ed1e0a",
        "makeRemoveAdmin(address)": "70a0966b",
        "owner()": "8da5cb5b",
        "redimBNB()": "fd14d598",
        "redimOTRO()": "8929cbc5",
        "redimTokenPrincipal()": "29702678",
        "redimTokenPrincipal02(uint256)": "1140e85b",
        "retiros()": "7b9719f2",
        "sellCoins(uint256)": "51a4cd73",
        "token()": "fc0c546a",
        "transferOwnership(address)": "f2fde38b",
        "updateFee(uint256)": "9012c4a8",
        "updateMinMax(uint256,uint256)": "3bbd391e",
        "updateTimeToClaim(uint256)": "cac885d8"
    },
    "gasEstimates": {
        "creation": {
            "codeDepositCost": "791600",
            "executionCost": "210482",
            "totalCost": "1002082"
        },
        "external": {
            "ChangePrincipalToken(address)": "51130",
            "ChangeTokenOTRO(address)": "26853",
            "FEE_CSC()": "2341",
            "MAX_CSC()": "2362",
            "MIN_CSC()": "2362",
            "TIME_CLAIM()": "2384",
            "admin(address)": "2582",
            "asignarCoinsTo(uint256,address)": "29150",
            "buyCoins(uint256)": "infinite",
            "gastarCoinsfrom(uint256,address)": "31259",
            "ingresos()": "2340",
            "investors(address)": "6848",
            "makeNewAdmin(address)": "28048",
            "makeRemoveAdmin(address)": "28007",
            "owner()": "2360",
            "redimBNB()": "infinite",
            "redimOTRO()": "infinite",
            "redimTokenPrincipal()": "infinite",
            "redimTokenPrincipal02(uint256)": "infinite",
            "retiros()": "2384",
            "sellCoins(uint256)": "infinite",
            "token()": "2403",
            "transferOwnership(address)": "30438",
            "updateFee(uint256)": "24509",
            "updateMinMax(uint256,uint256)": "46711",
            "updateTimeToClaim(uint256)": "24575"
        }
    }
}