{
    "contractName": "Market",
    "abi": [
        {
            "inputs": [],
            "stateMutability": "nonpayable",
            "type": "constructor"
        },
        {
            "anonymous": false,
            "inputs": [
                {
                    "indexed": true,
                    "internalType": "address",
                    "name": "admin",
                    "type": "address"
                }
            ],
            "name": "AdminRemoved",
            "type": "event"
        },
        {
            "anonymous": false,
            "inputs": [
                {
                    "indexed": true,
                    "internalType": "address",
                    "name": "admin",
                    "type": "address"
                }
            ],
            "name": "NewAdmin",
            "type": "event"
        },
        {
            "anonymous": false,
            "inputs": [
                {
                    "indexed": true,
                    "internalType": "address",
                    "name": "previousOwner",
                    "type": "address"
                },
                {
                    "indexed": true,
                    "internalType": "address",
                    "name": "newOwner",
                    "type": "address"
                }
            ],
            "name": "OwnershipTransferred",
            "type": "event"
        },
        {
            "inputs": [
                {
                    "internalType": "address",
                    "name": "_tokenERC20",
                    "type": "address"
                }
            ],
            "name": "ChangePrincipalToken",
            "outputs": [
                {
                    "internalType": "bool",
                    "name": "",
                    "type": "bool"
                }
            ],
            "stateMutability": "nonpayable",
            "type": "function"
        },
        {
            "inputs": [
                {
                    "internalType": "address",
                    "name": "_tokenERC20",
                    "type": "address"
                }
            ],
            "name": "ChangeTokenOTRO",
            "outputs": [
                {
                    "internalType": "bool",
                    "name": "",
                    "type": "bool"
                }
            ],
            "stateMutability": "nonpayable",
            "type": "function"
        },
        {
            "inputs": [
                {
                    "internalType": "string",
                    "name": "_nombre",
                    "type": "string"
                },
                {
                    "internalType": "uint256",
                    "name": "_value",
                    "type": "uint256"
                },
                {
                    "internalType": "bool",
                    "name": "_acumulable",
                    "type": "bool"
                },
                {
                    "internalType": "bool",
                    "name": "_ilimitado",
                    "type": "bool"
                },
                {
                    "internalType": "uint256",
                    "name": "_cantidad",
                    "type": "uint256"
                }
            ],
            "name": "addItem",
            "outputs": [
                {
                    "internalType": "bool",
                    "name": "",
                    "type": "bool"
                }
            ],
            "stateMutability": "nonpayable",
            "type": "function"
        },
        {
            "inputs": [
                {
                    "internalType": "address",
                    "name": "",
                    "type": "address"
                }
            ],
            "name": "admin",
            "outputs": [
                {
                    "internalType": "bool",
                    "name": "",
                    "type": "bool"
                }
            ],
            "stateMutability": "view",
            "type": "function"
        },
        {
            "inputs": [
                {
                    "internalType": "uint256",
                    "name": "_value",
                    "type": "uint256"
                },
                {
                    "internalType": "address",
                    "name": "_user",
                    "type": "address"
                }
            ],
            "name": "asignarCoinsTo",
            "outputs": [
                {
                    "internalType": "bool",
                    "name": "",
                    "type": "bool"
                }
            ],
            "stateMutability": "nonpayable",
            "type": "function"
        },
        {
            "inputs": [
                {
                    "internalType": "uint256",
                    "name": "_value",
                    "type": "uint256"
                }
            ],
            "name": "buyCoins",
            "outputs": [
                {
                    "internalType": "bool",
                    "name": "",
                    "type": "bool"
                }
            ],
            "stateMutability": "nonpayable",
            "type": "function"
        },
        {
            "inputs": [
                {
                    "internalType": "uint256",
                    "name": "_id",
                    "type": "uint256"
                }
            ],
            "name": "buyItem",
            "outputs": [
                {
                    "internalType": "bool",
                    "name": "",
                    "type": "bool"
                }
            ],
            "stateMutability": "nonpayable",
            "type": "function"
        },
        {
            "inputs": [
                {
                    "internalType": "uint256",
                    "name": "_id",
                    "type": "uint256"
                },
                {
                    "internalType": "string",
                    "name": "_nombre",
                    "type": "string"
                },
                {
                    "internalType": "uint256",
                    "name": "_value",
                    "type": "uint256"
                },
                {
                    "internalType": "bool",
                    "name": "_acumulable",
                    "type": "bool"
                },
                {
                    "internalType": "bool",
                    "name": "_ilimitado",
                    "type": "bool"
                },
                {
                    "internalType": "uint256",
                    "name": "_cantidad",
                    "type": "uint256"
                }
            ],
            "name": "editItem",
            "outputs": [
                {
                    "internalType": "bool",
                    "name": "",
                    "type": "bool"
                }
            ],
            "stateMutability": "nonpayable",
            "type": "function"
        },
        {
            "inputs": [
                {
                    "internalType": "uint256",
                    "name": "_value",
                    "type": "uint256"
                }
            ],
            "name": "gastarCoins",
            "outputs": [
                {
                    "internalType": "bool",
                    "name": "",
                    "type": "bool"
                }
            ],
            "stateMutability": "nonpayable",
            "type": "function"
        },
        {
            "inputs": [
                {
                    "internalType": "uint256",
                    "name": "_value",
                    "type": "uint256"
                },
                {
                    "internalType": "address",
                    "name": "_user",
                    "type": "address"
                }
            ],
            "name": "gastarCoinsfrom",
            "outputs": [
                {
                    "internalType": "bool",
                    "name": "",
                    "type": "bool"
                }
            ],
            "stateMutability": "nonpayable",
            "type": "function"
        },
        {
            "inputs": [
                {
                    "internalType": "address",
                    "name": "",
                    "type": "address"
                },
                {
                    "internalType": "uint256",
                    "name": "",
                    "type": "uint256"
                }
            ],
            "name": "inventario",
            "outputs": [
                {
                    "internalType": "string",
                    "name": "nombre",
                    "type": "string"
                },
                {
                    "internalType": "uint256",
                    "name": "valor",
                    "type": "uint256"
                },
                {
                    "internalType": "bool",
                    "name": "acumulable",
                    "type": "bool"
                },
                {
                    "internalType": "bool",
                    "name": "ilimitado",
                    "type": "bool"
                },
                {
                    "internalType": "uint256",
                    "name": "cantidad",
                    "type": "uint256"
                }
            ],
            "stateMutability": "view",
            "type": "function"
        },
        {
            "inputs": [
                {
                    "internalType": "address",
                    "name": "",
                    "type": "address"
                }
            ],
            "name": "investors",
            "outputs": [
                {
                    "internalType": "bool",
                    "name": "registered",
                    "type": "bool"
                },
                {
                    "internalType": "string",
                    "name": "correo",
                    "type": "string"
                },
                {
                    "internalType": "uint256",
                    "name": "balance",
                    "type": "uint256"
                },
                {
                    "internalType": "uint256",
                    "name": "gastado",
                    "type": "uint256"
                }
            ],
            "stateMutability": "view",
            "type": "function"
        },
        {
            "inputs": [
                {
                    "internalType": "uint256",
                    "name": "",
                    "type": "uint256"
                }
            ],
            "name": "items",
            "outputs": [
                {
                    "internalType": "string",
                    "name": "nombre",
                    "type": "string"
                },
                {
                    "internalType": "uint256",
                    "name": "valor",
                    "type": "uint256"
                },
                {
                    "internalType": "bool",
                    "name": "acumulable",
                    "type": "bool"
                },
                {
                    "internalType": "bool",
                    "name": "ilimitado",
                    "type": "bool"
                },
                {
                    "internalType": "uint256",
                    "name": "cantidad",
                    "type": "uint256"
                }
            ],
            "stateMutability": "view",
            "type": "function"
        },
        {
            "inputs": [
                {
                    "internalType": "address",
                    "name": "_user",
                    "type": "address"
                }
            ],
            "name": "largoInventario",
            "outputs": [
                {
                    "internalType": "uint256",
                    "name": "",
                    "type": "uint256"
                }
            ],
            "stateMutability": "view",
            "type": "function"
        },
        {
            "inputs": [
                {
                    "internalType": "address payable",
                    "name": "_newadmin",
                    "type": "address"
                }
            ],
            "name": "makeNewAdmin",
            "outputs": [],
            "stateMutability": "nonpayable",
            "type": "function"
        },
        {
            "inputs": [
                {
                    "internalType": "address payable",
                    "name": "_oldadmin",
                    "type": "address"
                }
            ],
            "name": "makeRemoveAdmin",
            "outputs": [],
            "stateMutability": "nonpayable",
            "type": "function"
        },
        {
            "inputs": [],
            "name": "owner",
            "outputs": [
                {
                    "internalType": "address payable",
                    "name": "",
                    "type": "address"
                }
            ],
            "stateMutability": "view",
            "type": "function"
        },
        {
            "inputs": [],
            "name": "redimETH",
            "outputs": [
                {
                    "internalType": "uint256",
                    "name": "",
                    "type": "uint256"
                }
            ],
            "stateMutability": "nonpayable",
            "type": "function"
        },
        {
            "inputs": [],
            "name": "redimOTRO",
            "outputs": [
                {
                    "internalType": "uint256",
                    "name": "",
                    "type": "uint256"
                }
            ],
            "stateMutability": "nonpayable",
            "type": "function"
        },
        {
            "inputs": [],
            "name": "redimTokenPrincipal01",
            "outputs": [
                {
                    "internalType": "uint256",
                    "name": "",
                    "type": "uint256"
                }
            ],
            "stateMutability": "nonpayable",
            "type": "function"
        },
        {
            "inputs": [
                {
                    "internalType": "uint256",
                    "name": "_value",
                    "type": "uint256"
                }
            ],
            "name": "redimTokenPrincipal02",
            "outputs": [
                {
                    "internalType": "uint256",
                    "name": "",
                    "type": "uint256"
                }
            ],
            "stateMutability": "nonpayable",
            "type": "function"
        },
        {
            "inputs": [
                {
                    "internalType": "string",
                    "name": "_correo",
                    "type": "string"
                }
            ],
            "name": "registro",
            "outputs": [],
            "stateMutability": "nonpayable",
            "type": "function"
        },
        {
            "inputs": [
                {
                    "internalType": "uint256",
                    "name": "_value",
                    "type": "uint256"
                }
            ],
            "name": "sellCoins",
            "outputs": [
                {
                    "internalType": "bool",
                    "name": "",
                    "type": "bool"
                }
            ],
            "stateMutability": "nonpayable",
            "type": "function"
        },
        {
            "inputs": [],
            "name": "token",
            "outputs": [
                {
                    "internalType": "address",
                    "name": "",
                    "type": "address"
                }
            ],
            "stateMutability": "view",
            "type": "function"
        },
        {
            "inputs": [
                {
                    "internalType": "address payable",
                    "name": "newOwner",
                    "type": "address"
                }
            ],
            "name": "transferOwnership",
            "outputs": [],
            "stateMutability": "nonpayable",
            "type": "function"
        }
    ],
    "bytecode": "6080604052600480546001600160a01b03191673038987095f309d3640f51644430dc6c7c4e2e409179055600a6008553480156200003c57600080fd5b50600080546001600160a01b0319163390811782558152600160208181526040808420805460ff1916909317909255815160e081018352601460a082019081527f74312d6272617a696c2d6c6567656e646172696f00000000000000000000000060c083015281526843c33c19375648000081830152918201839052606082018390526103e860808301529180526007825280518051919283927f6d5257204ebe7d88fd91ae87941cb2dd9d8062b64ae5a2bd2d28ec40b9fbf6df926200010892849291019062000977565b5060208281015160018381019190915560408085015160028501805460608089015161ffff1990921693151561ff0019169390931761010091151591909102179055608095860151600390950194909455805160e081018252601760a082019081527f74322d617267656e74696e612d6c6567656e646172696f00000000000000000060c083015281526843c33c1937564800008185015260009181018290529384018190526103e894840194909452909252600782528051805191935083927fb39221ace053465ec3453ce2b36430bd138b997ecea25c1043da0c366812b82892620001f9928492019062000977565b5060208281015160018301556040808401516002808501805460608089015161ffff1990921694151561ff0019169490941761010091151591909102179055608095860151600390950194909455815160e081018352601660a082019081527f74332d616c656d616e69612d6c6567656e646172696f0000000000000000000060c083015281526843c33c1937564800008185015260009281018390529081018290526103e89481019490945291909152600781528151805192935083927fb7c774451310d1be4108bc180d1b52823cb0ee0274a6c0081bcaf94f115fb96d92620002e992849291019062000977565b50602082810151600183015560408084015160028401805460608088015161ffff1990921693151561ff0019169390931761010091151591909102179055608094850151600394850155815160e081018352600e60a082019081526d74342d6a61706f6e2d657069636f60901b60c08301528152682f6f10780d22cc00008185015260009281018390529081018290526101f49481019490945291909152600781528151805192935083927f3be6fd20d5acfde5b873b48692cd31f4d3c7e8ee8a813af4696af8859e5ca6c692620003c692849291019062000977565b50602082810151600183015560408084015160028401805460608088015161ffff1990921693151561ff0019169390931761010091151591909102179055608094850151600390940193909355805160e081018252601160a082019081527074352d636f6c6f6d6269612d657069636f60781b60c08301528152682f6f10780d22cc00008184015260009181018290529283018190526101f4938301939093526004909252600782528051805191935083927fb805995a7ec585a251200611a61d179cfd7fb105e1ab17dc415a7336783786f792620004a9928492019062000977565b50602082810151600183015560408084015160028401805460608088015161ffff1990921693151561ff0019169390931761010091151591909102179055608094850151600390940193909355805160e081018252600f60a082019081526e74362d6d657869636f2d657069636f60881b60c08301528152682f6f10780d22cc00008184015260009181018290529283018190526105dc938301939093526005909252600782528051805191935083927fbcdda56b5d08466ec462cbbe0adfa57cb0a15fcc8940ef68f702f21b787bc935926200058a928492019062000977565b50602082810151600183015560408084015160028401805460608088015161ffff1990921693151561ff0019169390931761010091151591909102179055608094850151600390940193909355805160e081018252601060a082019081526f74372d63726f616369612d657069636f60801b60c08301528152682f6f10780d22cc00008184015260009181018290529283018190526102ee938301939093526006909252600782528051805191935083927f55c5b153ab560fcde54a63b18c7f53d75501706907cef8767fbded79ab9997c7926200066c928492019062000977565b50602082810151600183015560408084015160028401805460608088015161ffff1990921693151561ff0019169390931761010091151591909102179055608094850151600390940193909355805160e081018252600b60a082019081526a74382d45552d657069636f60a81b60c08301528152682f6f10780d22cc00008184015260009181018290529283018190526101f4938301939093526007928390529182528051805191935083927fb7c49cceb9f85950584035457a41ebbd8cf93b9b612733ad25aa9731ac43aad69262000749928492019062000977565b50602082810151600183015560408084015160028401805460608088015161ffff1990921693151561ff0019169390931761010091151591909102179055608094850151600390940193909355805160e081018252601160a082019081527074392d706f72747567616c2d657069636f60781b60c08301528152682f6f10780d22cc00008184015260009181018290529283018190526102ee938301939093526008909252600782528051805191935083927f4b1bf46c9f1bd48ff8274d40bad76a6615cb6c59a637d451a3994194b2db86be926200082c928492019062000977565b50602082810151600183015560408084015160028401805460608088015161ffff1990921693151561ff0019169390931761010091151591909102179055608094850151600390940193909355805160e081018252600d60a082019081526c7431302d6573702d657069636f60981b60c08301528152682f6f10780d22cc00008184015260009181018290529283018190526101f4938301939093526009909252600782528051805191935083927ff1f3e9c34634a546b3672c043f73844d83d55591bbe61b8e7e3a72bca1a812bf926200090b928492019062000977565b5060208201516001820155604082015160028083018054606086015115156101000261ff00199415159490941661ffff19909116179290921790915560809092015160039091015560045481546001600160a01b0319166001600160a01b039091161790555062000a5a565b828054620009859062000a1d565b90600052602060002090601f016020900481019282620009a95760008555620009f4565b82601f10620009c457805160ff1916838001178555620009f4565b82800160010185558215620009f4579182015b82811115620009f4578251825591602001919060010190620009d7565b5062000a0292915062000a06565b5090565b5b8082111562000a02576000815560010162000a07565b600181811c9082168062000a3257607f821691505b6020821081141562000a5457634e487b7160e01b600052602260045260246000fd5b50919050565b611e508062000a6a6000396000f3fe608060405234801561001057600080fd5b50600436106101735760003560e01c806370a0966b116100de578063c991c47411610097578063eb5b455a11610071578063eb5b455a1461035f578063f2fde38b14610367578063fc0c546a1461037a578063fe4681961461038d57600080fd5b8063c991c47414610326578063cc36005814610339578063e7fb74c71461034c57600080fd5b806370a0966b146102965780638929cbc5146102a95780638da5cb5b146102b157806396ba5363146102dc578063ab97fd60146102ef578063bfb231d21461031357600080fd5b806351a4cd731161013057806351a4cd7314610202578063571c94d71461021557806363a846f81461022857806363f8de411461024b57806369ed1e0a146102605780636f7bc9be1461027357600080fd5b8063035092d9146101785780631140e85b146101a05780632e9928d3146101c157806330dc1a29146101c957806337be42fb146101dc5780633bc5c89b146101ef575b600080fd5b61018b6101863660046119e2565b6103a0565b60405190151581526020015b60405180910390f35b6101b36101ae366004611a12565b610424565b604051908152602001610197565b6101b3610551565b61018b6101d7366004611a12565b6105b7565b61018b6101ea366004611adc565b610615565b61018b6101fd366004611b5c565b6106d5565b61018b610210366004611a12565b6107a9565b61018b6102233660046119e2565b610926565b61018b610236366004611bd0565b60016020526000908152604090205460ff1681565b61025e610259366004611bed565b61099b565b005b61025e61026e366004611bd0565b6109de565b610286610281366004611bd0565b610a63565b6040516101979493929190611c86565b61025e6102a4366004611bd0565b610b18565b6101b3610b97565b6000546102c4906001600160a01b031681565b6040516001600160a01b039091168152602001610197565b61018b6102ea366004611bd0565b610d42565b6103026102fd366004611cb4565b610d7f565b604051610197959493929190611ce0565b610302610321366004611a12565b610e64565b6101b3610334366004611bd0565b610e7f565b61018b610347366004611bd0565b610fbc565b61018b61035a366004611a12565b611007565b6101b36113f6565b61025e610375366004611bd0565b61154d565b6004546102c4906001600160a01b031681565b61018b61039b366004611a12565b6115d2565b3360009081526001602052604081205460ff166103bc57600080fd5b6001600160a01b0382166000908152600560205260409020805460ff161580156103f75750600281015460038201546103f5908661173b565b115b1561040157600080fd5b838160030160008282546104159190611d2d565b90915550600195945050505050565b600080546001600160a01b0316331461043c57600080fd5b6002546040516370a0823160e01b815230600482015283916001600160a01b0316906370a082319060240160206040518083038186803b15801561047f57600080fd5b505afa158015610493573d6000803e3d6000fd5b505050506040513d601f19601f820116820180604052508101906104b79190611d45565b10156104c257600080fd5b60025460005460405163a9059cbb60e01b81526001600160a01b0391821660048201526024810185905291169063a9059cbb90604401602060405180830381600087803b15801561051257600080fd5b505af1158015610526573d6000803e3d6000fd5b505050506040513d601f19601f8201168201806040525081019061054a9190611d5e565b5090919050565b600080546001600160a01b0316331461056957600080fd5b6000471161057657600080fd5b600080546040516001600160a01b03909116914780156108fc02929091818181858888f193505050501580156105b0573d6000803e3d6000fd5b5047905090565b336000908152600560205260408120805460ff161580156105e95750600281015460038201546105e7908561173b565b115b156105f357600080fd5b828160030160008282546106079190611d2d565b909155506001949350505050565b3360009081526001602052604081205460ff1661063157600080fd5b6040805160a08101825287815260208082018890528615158284015285151560608301526080820185905260008a81526007825292909220815180519293849361067e9284920190611931565b5060208201516001808301919091556040830151600283018054606086015115156101000261ff00199315159390931661ffff19909116179190911790556080909201516003909101559150509695505050505050565b3360009081526001602052604081205460ff166106f157600080fd5b6040805160a0810182528781526020808201889052861515828401528515156060830152608082018590526008546000908152600782529290922081518051929384936107419284920190611931565b50602082015160018201556040820151600282018054606085015115156101000261ff00199315159390931661ffff19909116179190911790556080909101516003909101556008805490600061079783611d7b565b90915550600198975050505050505050565b336000908152600560205260408120805460ff166107c657600080fd5b80600201548382600301546107db9190611d2d565b11156107e657600080fd5b6002546040516370a0823160e01b815230600482015284916001600160a01b0316906370a082319060240160206040518083038186803b15801561082957600080fd5b505afa15801561083d573d6000803e3d6000fd5b505050506040513d601f19601f820116820180604052508101906108619190611d45565b101561086c57600080fd5b60025460405163a9059cbb60e01b8152336004820152602481018590526001600160a01b039091169063a9059cbb90604401602060405180830381600087803b1580156108b857600080fd5b505af11580156108cc573d6000803e3d6000fd5b505050506040513d601f19601f820116820180604052508101906108f09190611d5e565b6108f957600080fd5b8281600301600082825461090d9190611d2d565b9250508190555082600a60008282546106079190611d2d565b3360009081526001602052604081205460ff1661094257600080fd5b6001600160a01b0382166000908152600560205260409020805460ff1615801561097d57506002810154600382015461097b908661173b565b115b1561098757600080fd5b838160020160008282546104159190611d2d565b336000908152600560205260409020805460ff16156109b957600080fd5b805460ff19166001908117825582516109d9918301906020850190611931565b505050565b6000546001600160a01b031633146109f557600080fd5b6001600160a01b038116610a0857600080fd5b6040516001600160a01b038216907f71614071b88dee5e0b2ae578a9dd7b2ebbe9ae832ba419dc0242cd065a290b6c90600090a26001600160a01b03166000908152600160208190526040909120805460ff19169091179055565b6005602052600090815260409020805460018201805460ff9092169291610a8990611d96565b80601f0160208091040260200160405190810160405280929190818152602001828054610ab590611d96565b8015610b025780601f10610ad757610100808354040283529160200191610b02565b820191906000526020600020905b815481529060010190602001808311610ae557829003601f168201915b5050505050908060020154908060030154905084565b6000546001600160a01b03163314610b2f57600080fd5b6001600160a01b038116610b4257600080fd5b6040516001600160a01b038216907fa3b62bc36326052d97ea62d63c3d60308ed4c3ea8ac079dd8499f1e9c4f80c0f90600090a26001600160a01b03166000908152600160205260409020805460ff19169055565b600080546001600160a01b03163314610baf57600080fd5b6003546040516370a0823160e01b81523060048201526000916001600160a01b0316906370a082319060240160206040518083038186803b158015610bf357600080fd5b505afa158015610c07573d6000803e3d6000fd5b505050506040513d601f19601f82011682018060405250810190610c2b9190611d45565b11610c3557600080fd5b6003546040516370a0823160e01b81523060048201526000916001600160a01b0316906370a082319060240160206040518083038186803b158015610c7957600080fd5b505afa158015610c8d573d6000803e3d6000fd5b505050506040513d601f19601f82011682018060405250810190610cb19190611d45565b60035460005460405163a9059cbb60e01b81526001600160a01b03918216600482015260248101849052929350169063a9059cbb906044015b602060405180830381600087803b158015610d0457600080fd5b505af1158015610d18573d6000803e3d6000fd5b505050506040513d601f19601f82011682018060405250810190610d3c9190611d5e565b50905090565b600080546001600160a01b03163314610d5a57600080fd5b50600380546001600160a01b0383166001600160a01b03199091161790556001919050565b60066020528160005260406000208181548110610d9b57600080fd5b906000526020600020906004020160009150915050806000018054610dbf90611d96565b80601f0160208091040260200160405190810160405280929190818152602001828054610deb90611d96565b8015610e385780601f10610e0d57610100808354040283529160200191610e38565b820191906000526020600020905b815481529060010190602001808311610e1b57829003601f168201915b505050600184015460028501546003909501549394909360ff8083169450610100909204909116915085565b600760205260009081526040902080548190610dbf90611d96565b6001600160a01b038116600090815260066020908152604080832080548251818502810185019093528083528493849084015b82821015610faf57838290600052602060002090600402016040518060a0016040529081600082018054610ee590611d96565b80601f0160208091040260200160405190810160405280929190818152602001828054610f1190611d96565b8015610f5e5780601f10610f3357610100808354040283529160200191610f5e565b820191906000526020600020905b815481529060010190602001808311610f4157829003601f168201915b5050509183525050600182810154602080840191909152600284015460ff80821615156040860152610100909104161515606084015260039093015460809092019190915291835292019101610eb2565b5050915195945050505050565b600080546001600160a01b03163314610fd457600080fd5b50600380546001600160a01b0383166001600160a01b031991821681179092556004805490911690911790556001919050565b336000908152600560209081526040808320815160808101909252805460ff161515825260018101805485948401919061104090611d96565b80601f016020809104026020016040519081016040528092919081815260200182805461106c90611d96565b80156110b95780601f1061108e576101008083540402835291602001916110b9565b820191906000526020600020905b81548152906001019060200180831161109c57829003601f168201915b505050505081526020016002820154815260200160038201548152505090506000600760008581526020019081526020016000206040518060a001604052908160008201805461110890611d96565b80601f016020809104026020016040519081016040528092919081815260200182805461113490611d96565b80156111815780601f1061115657610100808354040283529160200191611181565b820191906000526020600020905b81548152906001019060200180831161116457829003601f168201915b505050918352505060018201546020820152600282015460ff808216151560408085019190915261010090920416151560608301526003909201546080909101528101519091506111e15780516111d79061175e565b156111e157600080fd5b81516111ec57600080fd5b806060015161120357608081015161120357600080fd5b6020810151600254604051636eb1769f60e11b81523360048201523060248201526001600160a01b039091169063dd62ed3e9060440160206040518083038186803b15801561125157600080fd5b505afa158015611265573d6000803e3d6000fd5b505050506040513d601f19601f820116820180604052508101906112899190611d45565b101561129457600080fd5b60025460208201516040516323b872dd60e01b815233600482015230602482015260448101919091526001600160a01b03909116906323b872dd90606401602060405180830381600087803b1580156112ec57600080fd5b505af1158015611300573d6000803e3d6000fd5b505050506040513d601f19601f820116820180604052508101906113249190611d5e565b61132d57600080fd5b806060015161135e576000848152600760205260408120600301805460019290611358908490611dd1565b90915550505b33600090815260066020908152604082208054600181018255908352918190208351805185946004029092019261139a92849290910190611931565b5060208281015160018301556040830151600283018054606086015115156101000261ff00199315159390931661ffff199091161791909117905560809092015160039091015581015160098054600090610415908490611d2d565b600080546001600160a01b0316331461140e57600080fd5b6002546040516370a0823160e01b81523060048201526000916001600160a01b0316906370a082319060240160206040518083038186803b15801561145257600080fd5b505afa158015611466573d6000803e3d6000fd5b505050506040513d601f19601f8201168201806040525081019061148a9190611d45565b1161149457600080fd5b6002546040516370a0823160e01b81523060048201526000916001600160a01b0316906370a082319060240160206040518083038186803b1580156114d857600080fd5b505afa1580156114ec573d6000803e3d6000fd5b505050506040513d601f19601f820116820180604052508101906115109190611d45565b60025460005460405163a9059cbb60e01b81526001600160a01b03918216600482015260248101849052929350169063a9059cbb90604401610cea565b6000546001600160a01b0316331461156457600080fd5b6001600160a01b03811661157757600080fd5b600080546040516001600160a01b03808516939216917f8be0079c531659141344cd1fd0a4f28419497f9722a3daafe3b4186f6b6457e091a3600080546001600160a01b0319166001600160a01b0392909216919091179055565b336000908152600560205260408120805460ff166115ef57600080fd5b600254604051636eb1769f60e11b815233600482015230602482015284916001600160a01b03169063dd62ed3e9060440160206040518083038186803b15801561163857600080fd5b505afa15801561164c573d6000803e3d6000fd5b505050506040513d601f19601f820116820180604052508101906116709190611d45565b101561167b57600080fd5b6002546040516323b872dd60e01b8152336004820152306024820152604481018590526001600160a01b03909116906323b872dd90606401602060405180830381600087803b1580156116cd57600080fd5b505af11580156116e1573d6000803e3d6000fd5b505050506040513d601f19601f820116820180604052508101906117059190611d5e565b61170e57600080fd5b828160020160008282546117229190611d2d565b9250508190555082600960008282546106079190611d2d565b6000806117488385611d2d565b90508381101561175757600080fd5b9392505050565b336000908152600660209081526040808320805482518185028101850190935280835284938493929190849084015b8282101561188a57838290600052602060002090600402016040518060a00160405290816000820180546117c090611d96565b80601f01602080910402602001604051908101604052809291908181526020018280546117ec90611d96565b80156118395780601f1061180e57610100808354040283529160200191611839565b820191906000526020600020905b81548152906001019060200180831161181c57829003601f168201915b5050509183525050600182810154602080840191909152600284015460ff8082161515604086015261010090910416151560608401526003909301546080909201919091529183529201910161178d565b50505050905060005b815181101561192857846040516020016118ad9190611de8565b604051602081830303815290604052805190602001208282815181106118d5576118d5611e04565b6020026020010151600001516040516020016118f19190611de8565b6040516020818303038152906040528051906020012014156119165760019250611928565b8061192081611d7b565b915050611893565b50909392505050565b82805461193d90611d96565b90600052602060002090601f01602090048101928261195f57600085556119a5565b82601f1061197857805160ff19168380011785556119a5565b828001600101855582156119a5579182015b828111156119a557825182559160200191906001019061198a565b506119b19291506119b5565b5090565b5b808211156119b157600081556001016119b6565b6001600160a01b03811681146119df57600080fd5b50565b600080604083850312156119f557600080fd5b823591506020830135611a07816119ca565b809150509250929050565b600060208284031215611a2457600080fd5b5035919050565b634e487b7160e01b600052604160045260246000fd5b600082601f830112611a5257600080fd5b813567ffffffffffffffff80821115611a6d57611a6d611a2b565b604051601f8301601f19908116603f01168101908282118183101715611a9557611a95611a2b565b81604052838152866020858801011115611aae57600080fd5b836020870160208301376000602085830101528094505050505092915050565b80151581146119df57600080fd5b60008060008060008060c08789031215611af557600080fd5b86359550602087013567ffffffffffffffff811115611b1357600080fd5b611b1f89828a01611a41565b955050604087013593506060870135611b3781611ace565b92506080870135611b4781611ace565b8092505060a087013590509295509295509295565b600080600080600060a08688031215611b7457600080fd5b853567ffffffffffffffff811115611b8b57600080fd5b611b9788828901611a41565b955050602086013593506040860135611baf81611ace565b92506060860135611bbf81611ace565b949793965091946080013592915050565b600060208284031215611be257600080fd5b8135611757816119ca565b600060208284031215611bff57600080fd5b813567ffffffffffffffff811115611c1657600080fd5b611c2284828501611a41565b949350505050565b60005b83811015611c45578181015183820152602001611c2d565b83811115611c54576000848401525b50505050565b60008151808452611c72816020860160208601611c2a565b601f01601f19169290920160200192915050565b8415158152608060208201526000611ca16080830186611c5a565b6040830194909452506060015292915050565b60008060408385031215611cc757600080fd5b8235611cd2816119ca565b946020939093013593505050565b60a081526000611cf360a0830188611c5a565b60208301969096525092151560408401529015156060830152608090910152919050565b634e487b7160e01b600052601160045260246000fd5b60008219821115611d4057611d40611d17565b500190565b600060208284031215611d5757600080fd5b5051919050565b600060208284031215611d7057600080fd5b815161175781611ace565b6000600019821415611d8f57611d8f611d17565b5060010190565b600181811c90821680611daa57607f821691505b60208210811415611dcb57634e487b7160e01b600052602260045260246000fd5b50919050565b600082821015611de357611de3611d17565b500390565b60008251611dfa818460208701611c2a565b9190910192915050565b634e487b7160e01b600052603260045260246000fdfea2646970667358221220cb48f4ac8ef1c50bce78aae4572d0582b683ddfa9fdf3820376467b8e4b4074664736f6c63430008090033",
    "sourcePath": "c:/Users/STC/Documents/GitHub/FootBall-ICO/contracts/Market/market.sol",
    "compiler": {
        "name": "solc",
        "version": "0.8.9+commit.e5eed63a"
    },
    "functionHashes": {
        "ChangePrincipalToken(address)": "cc360058",
        "ChangeTokenOTRO(address)": "96ba5363",
        "addItem(string,uint256,bool,bool,uint256)": "3bc5c89b",
        "admin(address)": "63a846f8",
        "asignarCoinsTo(uint256,address)": "571c94d7",
        "buyCoins(uint256)": "fe468196",
        "buyItem(uint256)": "e7fb74c7",
        "editItem(uint256,string,uint256,bool,bool,uint256)": "37be42fb",
        "gastarCoins(uint256)": "30dc1a29",
        "gastarCoinsfrom(uint256,address)": "035092d9",
        "inventario(address,uint256)": "ab97fd60",
        "investors(address)": "6f7bc9be",
        "items(uint256)": "bfb231d2",
        "largoInventario(address)": "c991c474",
        "makeNewAdmin(address)": "69ed1e0a",
        "makeRemoveAdmin(address)": "70a0966b",
        "owner()": "8da5cb5b",
        "redimETH()": "2e9928d3",
        "redimOTRO()": "8929cbc5",
        "redimTokenPrincipal01()": "eb5b455a",
        "redimTokenPrincipal02(uint256)": "1140e85b",
        "registro(string)": "63f8de41",
        "sellCoins(uint256)": "51a4cd73",
        "token()": "fc0c546a",
        "transferOwnership(address)": "f2fde38b"
    },
    "gasEstimates": {
        "creation": {
            "codeDepositCost": "1552000",
            "executionCost": "infinite",
            "totalCost": "infinite"
        },
        "external": {
            "ChangePrincipalToken(address)": "51064",
            "ChangeTokenOTRO(address)": "26853",
            "addItem(string,uint256,bool,bool,uint256)": "infinite",
            "admin(address)": "2581",
            "asignarCoinsTo(uint256,address)": "infinite",
            "buyCoins(uint256)": "infinite",
            "buyItem(uint256)": "infinite",
            "editItem(uint256,string,uint256,bool,bool,uint256)": "infinite",
            "gastarCoins(uint256)": "infinite",
            "gastarCoinsfrom(uint256,address)": "infinite",
            "inventario(address,uint256)": "infinite",
            "investors(address)": "infinite",
            "items(uint256)": "infinite",
            "largoInventario(address)": "infinite",
            "makeNewAdmin(address)": "28069",
            "makeRemoveAdmin(address)": "27963",
            "owner()": "2404",
            "redimETH()": "infinite",
            "redimOTRO()": "infinite",
            "redimTokenPrincipal01()": "infinite",
            "redimTokenPrincipal02(uint256)": "infinite",
            "registro(string)": "infinite",
            "sellCoins(uint256)": "infinite",
            "token()": "2425",
            "transferOwnership(address)": "30460"
        },
        "internal": {
            "viewDuplicatedItem(string memory)": "infinite"
        }
    }
}