{
    "contractName": "Market",
    "abi": [
        {
            "inputs": [],
            "stateMutability": "nonpayable",
            "type": "constructor"
        },
        {
            "anonymous": false,
            "inputs": [
                {
                    "indexed": true,
                    "internalType": "address",
                    "name": "admin",
                    "type": "address"
                }
            ],
            "name": "AdminRemoved",
            "type": "event"
        },
        {
            "anonymous": false,
            "inputs": [
                {
                    "indexed": true,
                    "internalType": "address",
                    "name": "admin",
                    "type": "address"
                }
            ],
            "name": "NewAdmin",
            "type": "event"
        },
        {
            "anonymous": false,
            "inputs": [
                {
                    "indexed": true,
                    "internalType": "address",
                    "name": "previousOwner",
                    "type": "address"
                },
                {
                    "indexed": true,
                    "internalType": "address",
                    "name": "newOwner",
                    "type": "address"
                }
            ],
            "name": "OwnershipTransferred",
            "type": "event"
        },
        {
            "inputs": [
                {
                    "internalType": "address",
                    "name": "_tokenERC20",
                    "type": "address"
                }
            ],
            "name": "ChangeTokenOTRO",
            "outputs": [
                {
                    "internalType": "bool",
                    "name": "",
                    "type": "bool"
                }
            ],
            "stateMutability": "nonpayable",
            "type": "function"
        },
        {
            "inputs": [
                {
                    "internalType": "address",
                    "name": "",
                    "type": "address"
                }
            ],
            "name": "admin",
            "outputs": [
                {
                    "internalType": "bool",
                    "name": "",
                    "type": "bool"
                }
            ],
            "stateMutability": "view",
            "type": "function"
        },
        {
            "inputs": [
                {
                    "internalType": "uint256",
                    "name": "_value",
                    "type": "uint256"
                }
            ],
            "name": "buyCoins",
            "outputs": [
                {
                    "internalType": "bool",
                    "name": "",
                    "type": "bool"
                }
            ],
            "stateMutability": "nonpayable",
            "type": "function"
        },
        {
            "inputs": [
                {
                    "internalType": "uint256",
                    "name": "_id",
                    "type": "uint256"
                }
            ],
            "name": "buyItem",
            "outputs": [
                {
                    "internalType": "bool",
                    "name": "",
                    "type": "bool"
                }
            ],
            "stateMutability": "nonpayable",
            "type": "function"
        },
        {
            "inputs": [
                {
                    "internalType": "uint256",
                    "name": "_value",
                    "type": "uint256"
                }
            ],
            "name": "gastarCoins",
            "outputs": [
                {
                    "internalType": "bool",
                    "name": "",
                    "type": "bool"
                }
            ],
            "stateMutability": "nonpayable",
            "type": "function"
        },
        {
            "inputs": [
                {
                    "internalType": "uint256",
                    "name": "_value",
                    "type": "uint256"
                },
                {
                    "internalType": "address",
                    "name": "_user",
                    "type": "address"
                }
            ],
            "name": "gastarCoinsfrom",
            "outputs": [
                {
                    "internalType": "bool",
                    "name": "",
                    "type": "bool"
                }
            ],
            "stateMutability": "nonpayable",
            "type": "function"
        },
        {
            "inputs": [
                {
                    "internalType": "address",
                    "name": "",
                    "type": "address"
                },
                {
                    "internalType": "uint256",
                    "name": "",
                    "type": "uint256"
                }
            ],
            "name": "inventario",
            "outputs": [
                {
                    "internalType": "string",
                    "name": "nombre",
                    "type": "string"
                },
                {
                    "internalType": "uint256",
                    "name": "valor",
                    "type": "uint256"
                },
                {
                    "internalType": "bool",
                    "name": "acumulable",
                    "type": "bool"
                },
                {
                    "internalType": "bool",
                    "name": "ilimitado",
                    "type": "bool"
                },
                {
                    "internalType": "uint256",
                    "name": "cantidad",
                    "type": "uint256"
                }
            ],
            "stateMutability": "view",
            "type": "function"
        },
        {
            "inputs": [
                {
                    "internalType": "address",
                    "name": "",
                    "type": "address"
                }
            ],
            "name": "investors",
            "outputs": [
                {
                    "internalType": "bool",
                    "name": "registered",
                    "type": "bool"
                },
                {
                    "internalType": "string",
                    "name": "correo",
                    "type": "string"
                },
                {
                    "internalType": "uint256",
                    "name": "balance",
                    "type": "uint256"
                },
                {
                    "internalType": "uint256",
                    "name": "gastado",
                    "type": "uint256"
                }
            ],
            "stateMutability": "view",
            "type": "function"
        },
        {
            "inputs": [
                {
                    "internalType": "uint256",
                    "name": "",
                    "type": "uint256"
                }
            ],
            "name": "items",
            "outputs": [
                {
                    "internalType": "string",
                    "name": "nombre",
                    "type": "string"
                },
                {
                    "internalType": "uint256",
                    "name": "valor",
                    "type": "uint256"
                },
                {
                    "internalType": "bool",
                    "name": "acumulable",
                    "type": "bool"
                },
                {
                    "internalType": "bool",
                    "name": "ilimitado",
                    "type": "bool"
                },
                {
                    "internalType": "uint256",
                    "name": "cantidad",
                    "type": "uint256"
                }
            ],
            "stateMutability": "view",
            "type": "function"
        },
        {
            "inputs": [
                {
                    "internalType": "address payable",
                    "name": "_newadmin",
                    "type": "address"
                }
            ],
            "name": "makeNewAdmin",
            "outputs": [],
            "stateMutability": "nonpayable",
            "type": "function"
        },
        {
            "inputs": [
                {
                    "internalType": "address payable",
                    "name": "_oldadmin",
                    "type": "address"
                }
            ],
            "name": "makeRemoveAdmin",
            "outputs": [],
            "stateMutability": "nonpayable",
            "type": "function"
        },
        {
            "inputs": [],
            "name": "owner",
            "outputs": [
                {
                    "internalType": "address payable",
                    "name": "",
                    "type": "address"
                }
            ],
            "stateMutability": "view",
            "type": "function"
        },
        {
            "inputs": [],
            "name": "redimETH",
            "outputs": [
                {
                    "internalType": "uint256",
                    "name": "",
                    "type": "uint256"
                }
            ],
            "stateMutability": "nonpayable",
            "type": "function"
        },
        {
            "inputs": [],
            "name": "redimOTRO",
            "outputs": [
                {
                    "internalType": "uint256",
                    "name": "",
                    "type": "uint256"
                }
            ],
            "stateMutability": "nonpayable",
            "type": "function"
        },
        {
            "inputs": [],
            "name": "redimTokenPrincipal01",
            "outputs": [
                {
                    "internalType": "uint256",
                    "name": "",
                    "type": "uint256"
                }
            ],
            "stateMutability": "nonpayable",
            "type": "function"
        },
        {
            "inputs": [
                {
                    "internalType": "uint256",
                    "name": "_value",
                    "type": "uint256"
                }
            ],
            "name": "redimTokenPrincipal02",
            "outputs": [
                {
                    "internalType": "uint256",
                    "name": "",
                    "type": "uint256"
                }
            ],
            "stateMutability": "nonpayable",
            "type": "function"
        },
        {
            "inputs": [
                {
                    "internalType": "string",
                    "name": "_correo",
                    "type": "string"
                }
            ],
            "name": "registro",
            "outputs": [],
            "stateMutability": "nonpayable",
            "type": "function"
        },
        {
            "inputs": [
                {
                    "internalType": "uint256",
                    "name": "_value",
                    "type": "uint256"
                }
            ],
            "name": "sellCoins",
            "outputs": [
                {
                    "internalType": "bool",
                    "name": "",
                    "type": "bool"
                }
            ],
            "stateMutability": "nonpayable",
            "type": "function"
        },
        {
            "inputs": [],
            "name": "token",
            "outputs": [
                {
                    "internalType": "address",
                    "name": "",
                    "type": "address"
                }
            ],
            "stateMutability": "view",
            "type": "function"
        },
        {
            "inputs": [
                {
                    "internalType": "address payable",
                    "name": "newOwner",
                    "type": "address"
                }
            ],
            "name": "transferOwnership",
            "outputs": [],
            "stateMutability": "nonpayable",
            "type": "function"
        }
    ],
    "bytecode": "6080604052600480546001600160a01b03191673038987095f309d3640f51644430dc6c7c4e2e4091790553480156200003757600080fd5b50600080546001600160a01b0319163390811782558152600160208181526040808420805460ff1916909317909255815160e081018352601460a082019081527f74312d6272617a696c2d6c6567656e646172696f00000000000000000000000060c083015281526843c33c19375648000081830152918201839052606082018390526103e860808301529180526007825280518051919283927f6d5257204ebe7d88fd91ae87941cb2dd9d8062b64ae5a2bd2d28ec40b9fbf6df926200010392849291019062000350565b5060208281015160018381019190915560408085015160028501805460608089015161ffff1990921693151561ff0019169390931761010091151591909102179055608095860151600390950194909455805160e081018252601760a082019081527f74322d617267656e74696e612d6c6567656e646172696f00000000000000000060c083015281526843c33c193756480000818501526000918101829052938401819052600a94840194909452909252600782528051805191935083927fb39221ace053465ec3453ce2b36430bd138b997ecea25c1043da0c366812b82892620001f3928492019062000350565b50602082810151600183810191909155604080850151600280860180546060808a015161ffff1990921694151561ff0019169490941761010091151591909102179055608096870151600390960195909555815160e081018352601660a082019081527f74332d616c656d616e69612d6c6567656e646172696f0000000000000000000060c083015281526843c33c1937564800008186015260009281018390529081018290529485019190915291909152600781528151805192935083927fb7c774451310d1be4108bc180d1b52823cb0ee0274a6c0081bcaf94f115fb96d92620002e492849291019062000350565b5060208201516001820155604082015160028083018054606086015115156101000261ff00199415159490941661ffff19909116179290921790915560809092015160039091015560045481546001600160a01b0319166001600160a01b039091161790555062000433565b8280546200035e90620003f6565b90600052602060002090601f016020900481019282620003825760008555620003cd565b82601f106200039d57805160ff1916838001178555620003cd565b82800160010185558215620003cd579182015b82811115620003cd578251825591602001919060010190620003b0565b50620003db929150620003df565b5090565b5b80821115620003db5760008155600101620003e0565b600181811c908216806200040b57607f821691505b602082108114156200042d57634e487b7160e01b600052602260045260246000fd5b50919050565b61188080620004436000396000f3fe608060405234801561001057600080fd5b506004361061012c5760003560e01c80638929cbc5116100ad578063e7fb74c711610071578063e7fb74c7146102a6578063eb5b455a146102b9578063f2fde38b146102c1578063fc0c546a146102d4578063fe468196146102e757600080fd5b80638929cbc5146102295780638da5cb5b1461023157806396ba53631461025c578063ab97fd601461026f578063bfb231d21461029357600080fd5b806363a846f8116100f457806363a846f8146101a857806363f8de41146101cb57806369ed1e0a146101e05780636f7bc9be146101f357806370a0966b1461021657600080fd5b8063035092d9146101315780631140e85b146101595780632e9928d31461017a57806330dc1a291461018257806351a4cd7314610195575b600080fd5b61014461013f366004611545565b6102fa565b60405190151581526020015b60405180910390f35b61016c610167366004611575565b610380565b604051908152602001610150565b61016c6104ad565b610144610190366004611575565b610513565b6101446101a3366004611575565b610572565b6101446101b636600461158e565b60016020526000908152604090205460ff1681565b6101de6101d93660046115c1565b6106d6565b005b6101de6101ee36600461158e565b610719565b61020661020136600461158e565b61079e565b60405161015094939291906116ce565b6101de61022436600461158e565b610853565b61016c6108d2565b600054610244906001600160a01b031681565b6040516001600160a01b039091168152602001610150565b61014461026a36600461158e565b610a7d565b61028261027d3660046116fc565b610aba565b604051610150959493929190611728565b6102826102a1366004611575565b610b9f565b6101446102b4366004611575565b610bba565b61016c610f72565b6101de6102cf36600461158e565b6110c9565b600454610244906001600160a01b031681565b6101446102f5366004611575565b61114e565b3360009081526001602052604081205460ff1661031657600080fd5b6001600160a01b0382166000908152600560205260409020805460ff16801561035157506002810154600382015461034e908661129e565b11155b1561012c578381600301600082825461036a9190611775565b909155506001925061037a915050565b92915050565b600080546001600160a01b0316331461039857600080fd5b6002546040516370a0823160e01b815230600482015283916001600160a01b0316906370a082319060240160206040518083038186803b1580156103db57600080fd5b505afa1580156103ef573d6000803e3d6000fd5b505050506040513d601f19601f82011682018060405250810190610413919061178d565b101561041e57600080fd5b60025460005460405163a9059cbb60e01b81526001600160a01b0391821660048201526024810185905291169063a9059cbb90604401602060405180830381600087803b15801561046e57600080fd5b505af1158015610482573d6000803e3d6000fd5b505050506040513d601f19601f820116820180604052508101906104a691906117a6565b5090919050565b600080546001600160a01b031633146104c557600080fd5b600047116104d257600080fd5b600080546040516001600160a01b03909116914780156108fc02929091818181858888f1935050505015801561050c573d6000803e3d6000fd5b5047905090565b336000908152600560205260408120805460ff168015610545575060028101546003820154610542908561129e565b11155b1561012c578281600301600082825461055e9190611775565b909155506001949350505050565b50919050565b336000908152600560205260408120805460ff1661058f57600080fd5b80600201548382600301546105a49190611775565b11156105af57600080fd5b6002546040516370a0823160e01b815230600482015284916001600160a01b0316906370a082319060240160206040518083038186803b1580156105f257600080fd5b505afa158015610606573d6000803e3d6000fd5b505050506040513d601f19601f8201168201806040525081019061062a919061178d565b101561063557600080fd5b60025460405163a9059cbb60e01b8152336004820152602481018590526001600160a01b039091169063a9059cbb90604401602060405180830381600087803b15801561068157600080fd5b505af1158015610695573d6000803e3d6000fd5b505050506040513d601f19601f820116820180604052508101906106b991906117a6565b6106c257600080fd5b8281600301600082825461055e9190611775565b336000908152600560205260409020805460ff16156106f457600080fd5b805460ff1916600190811782558251610714918301906020850190611494565b505050565b6000546001600160a01b0316331461073057600080fd5b6001600160a01b03811661074357600080fd5b6040516001600160a01b038216907f71614071b88dee5e0b2ae578a9dd7b2ebbe9ae832ba419dc0242cd065a290b6c90600090a26001600160a01b03166000908152600160208190526040909120805460ff19169091179055565b6005602052600090815260409020805460018201805460ff90921692916107c4906117c8565b80601f01602080910402602001604051908101604052809291908181526020018280546107f0906117c8565b801561083d5780601f106108125761010080835404028352916020019161083d565b820191906000526020600020905b81548152906001019060200180831161082057829003601f168201915b5050505050908060020154908060030154905084565b6000546001600160a01b0316331461086a57600080fd5b6001600160a01b03811661087d57600080fd5b6040516001600160a01b038216907fa3b62bc36326052d97ea62d63c3d60308ed4c3ea8ac079dd8499f1e9c4f80c0f90600090a26001600160a01b03166000908152600160205260409020805460ff19169055565b600080546001600160a01b031633146108ea57600080fd5b6003546040516370a0823160e01b81523060048201526000916001600160a01b0316906370a082319060240160206040518083038186803b15801561092e57600080fd5b505afa158015610942573d6000803e3d6000fd5b505050506040513d601f19601f82011682018060405250810190610966919061178d565b1161097057600080fd5b6003546040516370a0823160e01b81523060048201526000916001600160a01b0316906370a082319060240160206040518083038186803b1580156109b457600080fd5b505afa1580156109c8573d6000803e3d6000fd5b505050506040513d601f19601f820116820180604052508101906109ec919061178d565b60035460005460405163a9059cbb60e01b81526001600160a01b03918216600482015260248101849052929350169063a9059cbb906044015b602060405180830381600087803b158015610a3f57600080fd5b505af1158015610a53573d6000803e3d6000fd5b505050506040513d601f19601f82011682018060405250810190610a7791906117a6565b50905090565b600080546001600160a01b03163314610a9557600080fd5b50600380546001600160a01b0383166001600160a01b03199091161790556001919050565b60066020528160005260406000208181548110610ad657600080fd5b906000526020600020906004020160009150915050806000018054610afa906117c8565b80601f0160208091040260200160405190810160405280929190818152602001828054610b26906117c8565b8015610b735780601f10610b4857610100808354040283529160200191610b73565b820191906000526020600020905b815481529060010190602001808311610b5657829003601f168201915b505050600184015460028501546003909501549394909360ff8083169450610100909204909116915085565b600760205260009081526040902080548190610afa906117c8565b336000908152600560209081526040808320815160808101909252805460ff1615158252600181018054859484019190610bf3906117c8565b80601f0160208091040260200160405190810160405280929190818152602001828054610c1f906117c8565b8015610c6c5780601f10610c4157610100808354040283529160200191610c6c565b820191906000526020600020905b815481529060010190602001808311610c4f57829003601f168201915b505050505081526020016002820154815260200160038201548152505090506000600760008581526020019081526020016000206040518060a0016040529081600082018054610cbb906117c8565b80601f0160208091040260200160405190810160405280929190818152602001828054610ce7906117c8565b8015610d345780601f10610d0957610100808354040283529160200191610d34565b820191906000526020600020905b815481529060010190602001808311610d1757829003601f168201915b505050918352505060018201546020820152600282015460ff80821615156040808501919091526101009092041615156060830152600390920154608090910152810151909150610d94578051610d8a906112c1565b15610d9457600080fd5b8151610d9f57600080fd5b8060600151610dba57600181608001511015610dba57600080fd5b6020810151600254604051636eb1769f60e11b81523360048201523060248201526001600160a01b039091169063dd62ed3e9060440160206040518083038186803b158015610e0857600080fd5b505afa158015610e1c573d6000803e3d6000fd5b505050506040513d601f19601f82011682018060405250810190610e40919061178d565b1015610e4b57600080fd5b60025460208201516040516323b872dd60e01b815233600482015230602482015260448101919091526001600160a01b03909116906323b872dd90606401602060405180830381600087803b158015610ea357600080fd5b505af1158015610eb7573d6000803e3d6000fd5b505050506040513d601f19601f82011682018060405250810190610edb91906117a6565b610ee457600080fd5b336000908152600660209081526040822080546001810182559083529181902083518051859460040290920192610f2092849290910190611494565b5060208201516001808301919091556040830151600283018054606086015115156101000261ff00199315159390931661ffff1990911617919091179055608090920151600390910155949350505050565b600080546001600160a01b03163314610f8a57600080fd5b6002546040516370a0823160e01b81523060048201526000916001600160a01b0316906370a082319060240160206040518083038186803b158015610fce57600080fd5b505afa158015610fe2573d6000803e3d6000fd5b505050506040513d601f19601f82011682018060405250810190611006919061178d565b1161101057600080fd5b6002546040516370a0823160e01b81523060048201526000916001600160a01b0316906370a082319060240160206040518083038186803b15801561105457600080fd5b505afa158015611068573d6000803e3d6000fd5b505050506040513d601f19601f8201168201806040525081019061108c919061178d565b60025460005460405163a9059cbb60e01b81526001600160a01b03918216600482015260248101849052929350169063a9059cbb90604401610a25565b6000546001600160a01b031633146110e057600080fd5b6001600160a01b0381166110f357600080fd5b600080546040516001600160a01b03808516939216917f8be0079c531659141344cd1fd0a4f28419497f9722a3daafe3b4186f6b6457e091a3600080546001600160a01b0319166001600160a01b0392909216919091179055565b336000908152600560205260408120805460ff1661116b57600080fd5b600254604051636eb1769f60e11b815233600482015230602482015284916001600160a01b03169063dd62ed3e9060440160206040518083038186803b1580156111b457600080fd5b505afa1580156111c8573d6000803e3d6000fd5b505050506040513d601f19601f820116820180604052508101906111ec919061178d565b10156111f757600080fd5b6002546040516323b872dd60e01b8152336004820152306024820152604481018590526001600160a01b03909116906323b872dd90606401602060405180830381600087803b15801561124957600080fd5b505af115801561125d573d6000803e3d6000fd5b505050506040513d601f19601f8201168201806040525081019061128191906117a6565b61128a57600080fd5b8281600201600082825461055e9190611775565b6000806112ab8385611775565b9050838110156112ba57600080fd5b9392505050565b336000908152600660209081526040808320805482518185028101850190935280835284938493929190849084015b828210156113ed57838290600052602060002090600402016040518060a0016040529081600082018054611323906117c8565b80601f016020809104026020016040519081016040528092919081815260200182805461134f906117c8565b801561139c5780601f106113715761010080835404028352916020019161139c565b820191906000526020600020905b81548152906001019060200180831161137f57829003601f168201915b5050509183525050600182810154602080840191909152600284015460ff808216151560408601526101009091041615156060840152600390930154608090920191909152918352920191016112f0565b50505050905060005b815181101561148b578460405160200161141091906117fd565b6040516020818303038152906040528051906020012082828151811061143857611438611819565b60200260200101516000015160405160200161145491906117fd565b604051602081830303815290604052805190602001201415611479576001925061148b565b806114838161182f565b9150506113f6565b50909392505050565b8280546114a0906117c8565b90600052602060002090601f0160209004810192826114c25760008555611508565b82601f106114db57805160ff1916838001178555611508565b82800160010185558215611508579182015b828111156115085782518255916020019190600101906114ed565b50611514929150611518565b5090565b5b808211156115145760008155600101611519565b6001600160a01b038116811461154257600080fd5b50565b6000806040838503121561155857600080fd5b82359150602083013561156a8161152d565b809150509250929050565b60006020828403121561158757600080fd5b5035919050565b6000602082840312156115a057600080fd5b81356112ba8161152d565b634e487b7160e01b600052604160045260246000fd5b6000602082840312156115d357600080fd5b813567ffffffffffffffff808211156115eb57600080fd5b818401915084601f8301126115ff57600080fd5b813581811115611611576116116115ab565b604051601f8201601f19908116603f01168101908382118183101715611639576116396115ab565b8160405282815287602084870101111561165257600080fd5b826020860160208301376000928101602001929092525095945050505050565b60005b8381101561168d578181015183820152602001611675565b8381111561169c576000848401525b50505050565b600081518084526116ba816020860160208601611672565b601f01601f19169290920160200192915050565b84151581526080602082015260006116e960808301866116a2565b6040830194909452506060015292915050565b6000806040838503121561170f57600080fd5b823561171a8161152d565b946020939093013593505050565b60a08152600061173b60a08301886116a2565b60208301969096525092151560408401529015156060830152608090910152919050565b634e487b7160e01b600052601160045260246000fd5b600082198211156117885761178861175f565b500190565b60006020828403121561179f57600080fd5b5051919050565b6000602082840312156117b857600080fd5b815180151581146112ba57600080fd5b600181811c908216806117dc57607f821691505b6020821081141561056c57634e487b7160e01b600052602260045260246000fd5b6000825161180f818460208701611672565b9190910192915050565b634e487b7160e01b600052603260045260246000fd5b60006000198214156118435761184361175f565b506001019056fea264697066735822122033f468ade674b6cebca3c3fa68b73f99115dd2f9421fd181a5c69c58dfd22e3964736f6c63430008090033",
    "sourcePath": "c:/Users/STC/Documents/GitHub/FootBall-ICO/contracts/Market/market.sol",
    "compiler": {
        "name": "solc",
        "version": "0.8.9+commit.e5eed63a"
    },
    "functionHashes": {
        "ChangeTokenOTRO(address)": "96ba5363",
        "admin(address)": "63a846f8",
        "buyCoins(uint256)": "fe468196",
        "buyItem(uint256)": "e7fb74c7",
        "gastarCoins(uint256)": "30dc1a29",
        "gastarCoinsfrom(uint256,address)": "035092d9",
        "inventario(address,uint256)": "ab97fd60",
        "investors(address)": "6f7bc9be",
        "items(uint256)": "bfb231d2",
        "makeNewAdmin(address)": "69ed1e0a",
        "makeRemoveAdmin(address)": "70a0966b",
        "owner()": "8da5cb5b",
        "redimETH()": "2e9928d3",
        "redimOTRO()": "8929cbc5",
        "redimTokenPrincipal01()": "eb5b455a",
        "redimTokenPrincipal02(uint256)": "1140e85b",
        "registro(string)": "63f8de41",
        "sellCoins(uint256)": "51a4cd73",
        "token()": "fc0c546a",
        "transferOwnership(address)": "f2fde38b"
    },
    "gasEstimates": {
        "creation": {
            "codeDepositCost": "1254400",
            "executionCost": "infinite",
            "totalCost": "infinite"
        },
        "external": {
            "ChangeTokenOTRO(address)": "26831",
            "admin(address)": "2537",
            "buyCoins(uint256)": "infinite",
            "buyItem(uint256)": "infinite",
            "gastarCoins(uint256)": "infinite",
            "gastarCoinsfrom(uint256,address)": "infinite",
            "inventario(address,uint256)": "infinite",
            "investors(address)": "infinite",
            "items(uint256)": "infinite",
            "makeNewAdmin(address)": "28025",
            "makeRemoveAdmin(address)": "28051",
            "owner()": "2382",
            "redimETH()": "infinite",
            "redimOTRO()": "infinite",
            "redimTokenPrincipal01()": "infinite",
            "redimTokenPrincipal02(uint256)": "infinite",
            "registro(string)": "infinite",
            "sellCoins(uint256)": "infinite",
            "token()": "2425",
            "transferOwnership(address)": "30460"
        },
        "internal": {
            "viewDuplicatedItem(string memory)": "infinite"
        }
    }
}