{
    "contractName": "Market",
    "abi": [
        {
            "inputs": [
                {
                    "internalType": "address",
                    "name": "_token",
                    "type": "address"
                }
            ],
            "stateMutability": "nonpayable",
            "type": "constructor"
        },
        {
            "anonymous": false,
            "inputs": [
                {
                    "indexed": true,
                    "internalType": "address",
                    "name": "admin",
                    "type": "address"
                }
            ],
            "name": "AdminRemoved",
            "type": "event"
        },
        {
            "anonymous": false,
            "inputs": [
                {
                    "indexed": true,
                    "internalType": "address",
                    "name": "admin",
                    "type": "address"
                }
            ],
            "name": "NewAdmin",
            "type": "event"
        },
        {
            "anonymous": false,
            "inputs": [
                {
                    "indexed": true,
                    "internalType": "address",
                    "name": "previousOwner",
                    "type": "address"
                },
                {
                    "indexed": true,
                    "internalType": "address",
                    "name": "newOwner",
                    "type": "address"
                }
            ],
            "name": "OwnershipTransferred",
            "type": "event"
        },
        {
            "inputs": [
                {
                    "internalType": "address",
                    "name": "_tokenERC20",
                    "type": "address"
                }
            ],
            "name": "ChangePrincipalToken",
            "outputs": [
                {
                    "internalType": "bool",
                    "name": "",
                    "type": "bool"
                }
            ],
            "stateMutability": "nonpayable",
            "type": "function"
        },
        {
            "inputs": [
                {
                    "internalType": "address",
                    "name": "_tokenERC20",
                    "type": "address"
                }
            ],
            "name": "ChangeTokenOTRO",
            "outputs": [
                {
                    "internalType": "bool",
                    "name": "",
                    "type": "bool"
                }
            ],
            "stateMutability": "nonpayable",
            "type": "function"
        },
        {
            "inputs": [
                {
                    "internalType": "string",
                    "name": "_nombre",
                    "type": "string"
                },
                {
                    "internalType": "string",
                    "name": "_tipo",
                    "type": "string"
                },
                {
                    "internalType": "uint256",
                    "name": "_value",
                    "type": "uint256"
                },
                {
                    "internalType": "bool",
                    "name": "_acumulable",
                    "type": "bool"
                },
                {
                    "internalType": "bool",
                    "name": "_ilimitado",
                    "type": "bool"
                },
                {
                    "internalType": "uint256",
                    "name": "_cantidad",
                    "type": "uint256"
                }
            ],
            "name": "addItem",
            "outputs": [
                {
                    "internalType": "bool",
                    "name": "",
                    "type": "bool"
                }
            ],
            "stateMutability": "nonpayable",
            "type": "function"
        },
        {
            "inputs": [
                {
                    "internalType": "string",
                    "name": "_tipo",
                    "type": "string"
                },
                {
                    "internalType": "bool",
                    "name": "_ilimitado",
                    "type": "bool"
                },
                {
                    "internalType": "uint256",
                    "name": "_cantidad",
                    "type": "uint256"
                }
            ],
            "name": "addOption",
            "outputs": [
                {
                    "internalType": "bool",
                    "name": "",
                    "type": "bool"
                }
            ],
            "stateMutability": "nonpayable",
            "type": "function"
        },
        {
            "inputs": [
                {
                    "internalType": "address",
                    "name": "",
                    "type": "address"
                }
            ],
            "name": "admin",
            "outputs": [
                {
                    "internalType": "bool",
                    "name": "",
                    "type": "bool"
                }
            ],
            "stateMutability": "view",
            "type": "function"
        },
        {
            "inputs": [
                {
                    "internalType": "uint256",
                    "name": "_value",
                    "type": "uint256"
                },
                {
                    "internalType": "address",
                    "name": "_user",
                    "type": "address"
                }
            ],
            "name": "asignarCoinsTo",
            "outputs": [
                {
                    "internalType": "bool",
                    "name": "",
                    "type": "bool"
                }
            ],
            "stateMutability": "nonpayable",
            "type": "function"
        },
        {
            "inputs": [
                {
                    "internalType": "uint256",
                    "name": "_value",
                    "type": "uint256"
                }
            ],
            "name": "buyCoins",
            "outputs": [
                {
                    "internalType": "bool",
                    "name": "",
                    "type": "bool"
                }
            ],
            "stateMutability": "nonpayable",
            "type": "function"
        },
        {
            "inputs": [
                {
                    "internalType": "uint256",
                    "name": "_id",
                    "type": "uint256"
                }
            ],
            "name": "buyItem",
            "outputs": [
                {
                    "internalType": "bool",
                    "name": "",
                    "type": "bool"
                }
            ],
            "stateMutability": "nonpayable",
            "type": "function"
        },
        {
            "inputs": [
                {
                    "internalType": "uint256",
                    "name": "_id",
                    "type": "uint256"
                },
                {
                    "internalType": "string",
                    "name": "_nombre",
                    "type": "string"
                },
                {
                    "internalType": "string",
                    "name": "_tipo",
                    "type": "string"
                },
                {
                    "internalType": "uint256",
                    "name": "_value",
                    "type": "uint256"
                },
                {
                    "internalType": "bool",
                    "name": "_acumulable",
                    "type": "bool"
                },
                {
                    "internalType": "bool",
                    "name": "_ilimitado",
                    "type": "bool"
                },
                {
                    "internalType": "uint256",
                    "name": "_cantidad",
                    "type": "uint256"
                }
            ],
            "name": "editItem",
            "outputs": [
                {
                    "internalType": "bool",
                    "name": "",
                    "type": "bool"
                }
            ],
            "stateMutability": "nonpayable",
            "type": "function"
        },
        {
            "inputs": [
                {
                    "internalType": "uint256",
                    "name": "_id",
                    "type": "uint256"
                },
                {
                    "internalType": "string",
                    "name": "_tipo",
                    "type": "string"
                },
                {
                    "internalType": "bool",
                    "name": "_ilimitado",
                    "type": "bool"
                },
                {
                    "internalType": "uint256",
                    "name": "_cantidad",
                    "type": "uint256"
                }
            ],
            "name": "editOption",
            "outputs": [
                {
                    "internalType": "bool",
                    "name": "",
                    "type": "bool"
                }
            ],
            "stateMutability": "nonpayable",
            "type": "function"
        },
        {
            "inputs": [
                {
                    "internalType": "uint256",
                    "name": "_value",
                    "type": "uint256"
                }
            ],
            "name": "gastarCoins",
            "outputs": [
                {
                    "internalType": "bool",
                    "name": "",
                    "type": "bool"
                }
            ],
            "stateMutability": "nonpayable",
            "type": "function"
        },
        {
            "inputs": [
                {
                    "internalType": "uint256",
                    "name": "_value",
                    "type": "uint256"
                },
                {
                    "internalType": "address",
                    "name": "_user",
                    "type": "address"
                }
            ],
            "name": "gastarCoinsfrom",
            "outputs": [
                {
                    "internalType": "bool",
                    "name": "",
                    "type": "bool"
                }
            ],
            "stateMutability": "nonpayable",
            "type": "function"
        },
        {
            "inputs": [
                {
                    "internalType": "address",
                    "name": "",
                    "type": "address"
                },
                {
                    "internalType": "uint256",
                    "name": "",
                    "type": "uint256"
                }
            ],
            "name": "inventario",
            "outputs": [
                {
                    "internalType": "string",
                    "name": "nombre",
                    "type": "string"
                },
                {
                    "internalType": "string",
                    "name": "tipo",
                    "type": "string"
                },
                {
                    "internalType": "uint256",
                    "name": "valor",
                    "type": "uint256"
                },
                {
                    "internalType": "bool",
                    "name": "acumulable",
                    "type": "bool"
                },
                {
                    "internalType": "bool",
                    "name": "ilimitado",
                    "type": "bool"
                },
                {
                    "internalType": "uint256",
                    "name": "cantidad",
                    "type": "uint256"
                }
            ],
            "stateMutability": "view",
            "type": "function"
        },
        {
            "inputs": [
                {
                    "internalType": "address",
                    "name": "",
                    "type": "address"
                }
            ],
            "name": "investors",
            "outputs": [
                {
                    "internalType": "bool",
                    "name": "registered",
                    "type": "bool"
                },
                {
                    "internalType": "string",
                    "name": "correo",
                    "type": "string"
                },
                {
                    "internalType": "uint256",
                    "name": "balance",
                    "type": "uint256"
                },
                {
                    "internalType": "uint256",
                    "name": "gastado",
                    "type": "uint256"
                }
            ],
            "stateMutability": "view",
            "type": "function"
        },
        {
            "inputs": [
                {
                    "internalType": "uint256",
                    "name": "",
                    "type": "uint256"
                }
            ],
            "name": "items",
            "outputs": [
                {
                    "internalType": "string",
                    "name": "nombre",
                    "type": "string"
                },
                {
                    "internalType": "string",
                    "name": "tipo",
                    "type": "string"
                },
                {
                    "internalType": "uint256",
                    "name": "valor",
                    "type": "uint256"
                },
                {
                    "internalType": "bool",
                    "name": "acumulable",
                    "type": "bool"
                },
                {
                    "internalType": "bool",
                    "name": "ilimitado",
                    "type": "bool"
                },
                {
                    "internalType": "uint256",
                    "name": "cantidad",
                    "type": "uint256"
                }
            ],
            "stateMutability": "view",
            "type": "function"
        },
        {
            "inputs": [
                {
                    "internalType": "address",
                    "name": "_user",
                    "type": "address"
                }
            ],
            "name": "largoInventario",
            "outputs": [
                {
                    "internalType": "uint256",
                    "name": "",
                    "type": "uint256"
                }
            ],
            "stateMutability": "view",
            "type": "function"
        },
        {
            "inputs": [],
            "name": "largoItems",
            "outputs": [
                {
                    "internalType": "uint256",
                    "name": "",
                    "type": "uint256"
                }
            ],
            "stateMutability": "view",
            "type": "function"
        },
        {
            "inputs": [
                {
                    "internalType": "address payable",
                    "name": "_newadmin",
                    "type": "address"
                }
            ],
            "name": "makeNewAdmin",
            "outputs": [],
            "stateMutability": "nonpayable",
            "type": "function"
        },
        {
            "inputs": [
                {
                    "internalType": "address payable",
                    "name": "_oldadmin",
                    "type": "address"
                }
            ],
            "name": "makeRemoveAdmin",
            "outputs": [],
            "stateMutability": "nonpayable",
            "type": "function"
        },
        {
            "inputs": [
                {
                    "internalType": "uint256",
                    "name": "",
                    "type": "uint256"
                }
            ],
            "name": "opciones",
            "outputs": [
                {
                    "internalType": "string",
                    "name": "tipo",
                    "type": "string"
                },
                {
                    "internalType": "bool",
                    "name": "ilimitados",
                    "type": "bool"
                },
                {
                    "internalType": "uint256",
                    "name": "cantidad",
                    "type": "uint256"
                }
            ],
            "stateMutability": "view",
            "type": "function"
        },
        {
            "inputs": [],
            "name": "owner",
            "outputs": [
                {
                    "internalType": "address payable",
                    "name": "",
                    "type": "address"
                }
            ],
            "stateMutability": "view",
            "type": "function"
        },
        {
            "inputs": [],
            "name": "redimETH",
            "outputs": [
                {
                    "internalType": "uint256",
                    "name": "",
                    "type": "uint256"
                }
            ],
            "stateMutability": "nonpayable",
            "type": "function"
        },
        {
            "inputs": [],
            "name": "redimOTRO",
            "outputs": [
                {
                    "internalType": "uint256",
                    "name": "",
                    "type": "uint256"
                }
            ],
            "stateMutability": "nonpayable",
            "type": "function"
        },
        {
            "inputs": [],
            "name": "redimTokenPrincipal01",
            "outputs": [
                {
                    "internalType": "uint256",
                    "name": "",
                    "type": "uint256"
                }
            ],
            "stateMutability": "nonpayable",
            "type": "function"
        },
        {
            "inputs": [
                {
                    "internalType": "uint256",
                    "name": "_value",
                    "type": "uint256"
                }
            ],
            "name": "redimTokenPrincipal02",
            "outputs": [
                {
                    "internalType": "uint256",
                    "name": "",
                    "type": "uint256"
                }
            ],
            "stateMutability": "nonpayable",
            "type": "function"
        },
        {
            "inputs": [
                {
                    "internalType": "string",
                    "name": "_correo",
                    "type": "string"
                }
            ],
            "name": "registro",
            "outputs": [],
            "stateMutability": "nonpayable",
            "type": "function"
        },
        {
            "inputs": [
                {
                    "internalType": "uint256",
                    "name": "_value",
                    "type": "uint256"
                }
            ],
            "name": "sellCoins",
            "outputs": [
                {
                    "internalType": "bool",
                    "name": "",
                    "type": "bool"
                }
            ],
            "stateMutability": "nonpayable",
            "type": "function"
        },
        {
            "inputs": [],
            "name": "token",
            "outputs": [
                {
                    "internalType": "address",
                    "name": "",
                    "type": "address"
                }
            ],
            "stateMutability": "view",
            "type": "function"
        },
        {
            "inputs": [
                {
                    "internalType": "address payable",
                    "name": "newOwner",
                    "type": "address"
                }
            ],
            "name": "transferOwnership",
            "outputs": [],
            "stateMutability": "nonpayable",
            "type": "function"
        },
        {
            "inputs": [
                {
                    "internalType": "string",
                    "name": "_correo",
                    "type": "string"
                }
            ],
            "name": "updateRegistro",
            "outputs": [],
            "stateMutability": "nonpayable",
            "type": "function"
        },
        {
            "inputs": [
                {
                    "internalType": "address",
                    "name": "_user",
                    "type": "address"
                },
                {
                    "internalType": "string",
                    "name": "_correo",
                    "type": "string"
                }
            ],
            "name": "updateRegistroMaster",
            "outputs": [],
            "stateMutability": "nonpayable",
            "type": "function"
        }
    ],
    "bytecode": "6080604052600480546001600160a01b03191673038987095f309d3640f51644430dc6c7c4e2e4091790553480156200003757600080fd5b5060405162003432380380620034328339810160408190526200005a9162000943565b336000806101000a8154816001600160a01b0302191690836001600160a01b031602179055506001806000336001600160a01b03166001600160a01b0316815260200190815260200160002060006101000a81548160ff02191690831515021790555080600260006101000a8154816001600160a01b0302191690836001600160a01b0316021790555080600460006101000a8154816001600160a01b0302191690836001600160a01b0316021790555060006040518061014001604052806040518060c001604052806040518060400160405280601481526020017f74312d6272617a696c2d6c6567656e646172696f00000000000000000000000081525081526020016040518060400160405280600a8152602001696c6567656e646172696f60b01b81525081526020016843c33c19375648000081526020016000151581526020016000151581526020016103e881525081526020016040518060c001604052806040518060400160405280601781526020017f74322d617267656e74696e612d6c6567656e646172696f00000000000000000081525081526020016040518060400160405280600a8152602001696c6567656e646172696f60b01b81525081526020016843c33c19375648000081526020016000151581526020016000151581526020016103e881525081526020016040518060c001604052806040518060400160405280601681526020017f74332d616c656d616e69612d6c6567656e646172696f0000000000000000000081525081526020016040518060400160405280600a8152602001696c6567656e646172696f60b01b81525081526020016843c33c19375648000081526020016000151581526020016000151581526020016103e881525081526020016040518060c001604052806040518060400160405280600e81526020016d74342d6a61706f6e2d657069636f60901b815250815260200160405180604001604052806005815260200164657069636f60d81b8152508152602001682f6f10780d22cc000081526020016000151581526020016000151581526020016101f481525081526020016040518060c001604052806040518060400160405280601181526020017074352d636f6c6f6d6269612d657069636f60781b815250815260200160405180604001604052806005815260200164657069636f60d81b8152508152602001682f6f10780d22cc000081526020016000151581526020016000151581526020016101f481525081526020016040518060c001604052806040518060400160405280600f81526020016e74362d6d657869636f2d657069636f60881b815250815260200160405180604001604052806005815260200164657069636f60d81b8152508152602001682f6f10780d22cc000081526020016000151581526020016000151581526020016105dc81525081526020016040518060c001604052806040518060400160405280601081526020016f74372d63726f616369612d657069636f60801b815250815260200160405180604001604052806005815260200164657069636f60d81b8152508152602001682f6f10780d22cc000081526020016000151581526020016000151581526020016102ee81525081526020016040518060c001604052806040518060400160405280600b81526020016a74382d45552d657069636f60a81b815250815260200160405180604001604052806005815260200164657069636f60d81b8152508152602001682f6f10780d22cc000081526020016000151581526020016000151581526020016101f481525081526020016040518060c001604052806040518060400160405280601181526020017074392d706f72747567616c2d657069636f60781b815250815260200160405180604001604052806005815260200164657069636f60d81b8152508152602001682f6f10780d22cc000081526020016000151581526020016000151581526020016102ee81525081526020016040518060c001604052806040518060400160405280600d81526020016c7431302d6573702d657069636f60981b815250815260200160405180604001604052806005815260200164657069636f60d81b8152508152602001682f6f10780d22cc000081526020016000151581526020016000151581526020016101f4815250815250905060005b600a81101562000775578181600a8110620006b857620006b862000975565b602002015160078281548110620006d357620006d362000975565b90600052602060002090600502016000820151816000019080519060200190620006ff9291906200089d565b5060208281015180516200071a92600185019201906200089d565b50604082015160028201556060820151600382018054608085015115156101000261ff00199315159390931661ffff199091161791909117905560a090910151600490910155806200076c816200098b565b91505062000699565b506040805160e081018252600a60a0808301918252696c6567656e646172696f60b01b60c0840152828401918252600060608085018290526001608080870182905294865286519384018752600591840191825264657069636f60d81b94840194909452825260208281018290529482019290925292820192909252905b6002811015620008935781816002811062000812576200081262000975565b6020020151600882815481106200082d576200082d62000975565b90600052602060002090600302016000820151816000019080519060200190620008599291906200089d565b50602082015160018201805460ff1916911515919091179055604090910151600290910155806200088a816200098b565b915050620007f3565b50505050620009f2565b828054620008ab90620009b5565b90600052602060002090601f016020900481019282620008cf57600085556200091a565b82601f10620008ea57805160ff19168380011785556200091a565b828001600101855582156200091a579182015b828111156200091a578251825591602001919060010190620008fd565b50620009289291506200092c565b5090565b5b808211156200092857600081556001016200092d565b6000602082840312156200095657600080fd5b81516001600160a01b03811681146200096e57600080fd5b9392505050565b634e487b7160e01b600052603260045260246000fd5b6000600019821415620009ae57634e487b7160e01b600052601160045260246000fd5b5060010190565b600181811c90821680620009ca57607f821691505b60208210811415620009ec57634e487b7160e01b600052602260045260246000fd5b50919050565b612a308062000a026000396000f3fe608060405234801561001057600080fd5b50600436106101e45760003560e01c80636f7bc9be1161010f578063bfb231d2116100a2578063eb5b455a11610071578063eb5b455a14610447578063f2fde38b1461044f578063fc0c546a14610462578063fe4681961461047557600080fd5b8063bfb231d2146103fb578063c991c4741461040e578063cc36005814610421578063e7fb74c71461043457600080fd5b806394c37f30116100de57806394c37f301461039d57806396ba5363146103b0578063a999d3e0146103c3578063ab97fd60146103d657600080fd5b80636f7bc9be1461033457806370a0966b146103575780638929cbc51461036a5780638da5cb5b1461037257600080fd5b806330dc1a2911610187578063571c94d711610156578063571c94d7146102d657806363a846f8146102e957806363f8de411461030c57806369ed1e0a1461032157600080fd5b806330dc1a291461028a57806336ec5fe41461029d57806351a4cd73146102b057806351e954f7146102c357600080fd5b80631140e85b116101c35780631140e85b1461023757806317262d8a14610258578063238393e41461027a5780632e9928d31461028257600080fd5b8062cffbcd146101e9578063035092d91461021157806309650b8e14610224575b600080fd5b6101fc6101f7366004612431565b610488565b60405190151581526020015b60405180910390f35b6101fc61021f3660046124a0565b610539565b6101fc6102323660046124d0565b6105bd565b61024a610245366004612531565b61065f565b604051908152602001610208565b61026b610266366004612531565b61078c565b604051610208939291906125a2565b60075461024a565b61024a610852565b6101fc610298366004612531565b6108b8565b6101fc6102ab3660046125c7565b610916565b6101fc6102be366004612531565b610a17565b6101fc6102d1366004612664565b610b94565b6101fc6102e43660046124a0565b610c87565b6101fc6102f736600461270c565b60016020526000908152604090205460ff1681565b61031f61031a366004612729565b610cfc565b005b61031f61032f36600461270c565b610d3f565b61034761034236600461270c565b610dc4565b6040516102089493929190612766565b61031f61036536600461270c565b610e79565b61024a610ef8565b600054610385906001600160a01b031681565b6040516001600160a01b039091168152602001610208565b61031f6103ab366004612794565b6110a3565b6101fc6103be36600461270c565b6110fb565b61031f6103d1366004612729565b611138565b6103e96103e43660046127e4565b61116a565b60405161020896959493929190612810565b6103e9610409366004612531565b6112dd565b61024a61041c36600461270c565b611310565b6101fc61042f36600461270c565b6114df565b6101fc610442366004612531565b61152a565b61024a6119e3565b61031f61045d36600461270c565b611b3a565b600454610385906001600160a01b031681565b6101fc610483366004612531565b611bbf565b600080546001600160a01b031633146104a057600080fd5b604080516060810182528581528415156020808301919091529181018490526008805460018101825560009190915281518051929360039092027ff3f7a9fe364faab93b216da50a3214154f22a0a2b415b23a84c8169e8b636ee3019261050a92849201906122e4565b5060208201516001828101805460ff191692151592909217909155604090920151600290910155949350505050565b3360009081526001602052604081205460ff1661055557600080fd5b6001600160a01b0382166000908152600560205260409020805460ff1615801561059057506002810154600382015461058e9086611d28565b115b1561059a57600080fd5b838160030160008282546105ae9190612871565b90915550600195945050505050565b600080546001600160a01b031633146105d557600080fd5b60405180606001604052808581526020018415158152602001838152506008868154811061060557610605612889565b9060005260206000209060030201600082015181600001908051906020019061062f9291906122e4565b5060208201516001828101805460ff19169215159290921790915560409092015160029091015595945050505050565b600080546001600160a01b0316331461067757600080fd5b6002546040516370a0823160e01b815230600482015283916001600160a01b0316906370a082319060240160206040518083038186803b1580156106ba57600080fd5b505afa1580156106ce573d6000803e3d6000fd5b505050506040513d601f19601f820116820180604052508101906106f2919061289f565b10156106fd57600080fd5b60025460005460405163a9059cbb60e01b81526001600160a01b0391821660048201526024810185905291169063a9059cbb90604401602060405180830381600087803b15801561074d57600080fd5b505af1158015610761573d6000803e3d6000fd5b505050506040513d601f19601f8201168201806040525081019061078591906128b8565b5090919050565b6008818154811061079c57600080fd5b90600052602060002090600302016000915090508060000180546107bf906128d5565b80601f01602080910402602001604051908101604052809291908181526020018280546107eb906128d5565b80156108385780601f1061080d57610100808354040283529160200191610838565b820191906000526020600020905b81548152906001019060200180831161081b57829003601f168201915b505050506001830154600290930154919260ff1691905083565b600080546001600160a01b0316331461086a57600080fd5b6000471161087757600080fd5b600080546040516001600160a01b03909116914780156108fc02929091818181858888f193505050501580156108b1573d6000803e3d6000fd5b5047905090565b336000908152600560205260408120805460ff161580156108ea5750600281015460038201546108e89085611d28565b115b156108f457600080fd5b828160030160008282546109089190612871565b909155506001949350505050565b600080546001600160a01b0316331461092e57600080fd5b6040805160c08101825288815260208082018990529181018790528515156060820152841515608082015260a081018490526007805460018101825560009190915281518051929360059092027fa66cc928b5edb82af9bd49922954155ab7b0942694bea4ce44661d9a8736c68801926109ab92849201906122e4565b5060208281015180516109c492600185019201906122e4565b50604082015160028201556060820151600382018054608085015115156101000261ff00199315159390931661ffff199091161791909117905560a0909101516004909101555060019695505050505050565b336000908152600560205260408120805460ff16610a3457600080fd5b8060020154838260030154610a499190612871565b1115610a5457600080fd5b6002546040516370a0823160e01b815230600482015284916001600160a01b0316906370a082319060240160206040518083038186803b158015610a9757600080fd5b505afa158015610aab573d6000803e3d6000fd5b505050506040513d601f19601f82011682018060405250810190610acf919061289f565b1015610ada57600080fd5b60025460405163a9059cbb60e01b8152336004820152602481018590526001600160a01b039091169063a9059cbb90604401602060405180830381600087803b158015610b2657600080fd5b505af1158015610b3a573d6000803e3d6000fd5b505050506040513d601f19601f82011682018060405250810190610b5e91906128b8565b610b6757600080fd5b82816003016000828254610b7b9190612871565b9250508190555082600a60008282546109089190612871565b600080546001600160a01b03163314610bac57600080fd5b6040518060c00160405280888152602001878152602001868152602001851515815260200184151581526020018381525060078981548110610bf057610bf0612889565b90600052602060002090600502016000820151816000019080519060200190610c1a9291906122e4565b506020828101518051610c3392600185019201906122e4565b50604082015160028201556060820151600382018054608085015115156101000261ff00199315159390931661ffff199091161791909117905560a090910151600490910155506001979650505050505050565b3360009081526001602052604081205460ff16610ca357600080fd5b6001600160a01b0382166000908152600560205260409020805460ff16158015610cde575060028101546003820154610cdc9086611d28565b115b15610ce857600080fd5b838160020160008282546105ae9190612871565b336000908152600560205260409020805460ff1615610d1a57600080fd5b805460ff1916600190811782558251610d3a9183019060208501906122e4565b505050565b6000546001600160a01b03163314610d5657600080fd5b6001600160a01b038116610d6957600080fd5b6040516001600160a01b038216907f71614071b88dee5e0b2ae578a9dd7b2ebbe9ae832ba419dc0242cd065a290b6c90600090a26001600160a01b03166000908152600160208190526040909120805460ff19169091179055565b6005602052600090815260409020805460018201805460ff9092169291610dea906128d5565b80601f0160208091040260200160405190810160405280929190818152602001828054610e16906128d5565b8015610e635780601f10610e3857610100808354040283529160200191610e63565b820191906000526020600020905b815481529060010190602001808311610e4657829003601f168201915b5050505050908060020154908060030154905084565b6000546001600160a01b03163314610e9057600080fd5b6001600160a01b038116610ea357600080fd5b6040516001600160a01b038216907fa3b62bc36326052d97ea62d63c3d60308ed4c3ea8ac079dd8499f1e9c4f80c0f90600090a26001600160a01b03166000908152600160205260409020805460ff19169055565b600080546001600160a01b03163314610f1057600080fd5b6003546040516370a0823160e01b81523060048201526000916001600160a01b0316906370a082319060240160206040518083038186803b158015610f5457600080fd5b505afa158015610f68573d6000803e3d6000fd5b505050506040513d601f19601f82011682018060405250810190610f8c919061289f565b11610f9657600080fd5b6003546040516370a0823160e01b81523060048201526000916001600160a01b0316906370a082319060240160206040518083038186803b158015610fda57600080fd5b505afa158015610fee573d6000803e3d6000fd5b505050506040513d601f19601f82011682018060405250810190611012919061289f565b60035460005460405163a9059cbb60e01b81526001600160a01b03918216600482015260248101849052929350169063a9059cbb906044015b602060405180830381600087803b15801561106557600080fd5b505af1158015611079573d6000803e3d6000fd5b505050506040513d601f19601f8201168201806040525081019061109d91906128b8565b50905090565b6000546001600160a01b031633146110ba57600080fd5b6001600160a01b0382166000908152600560205260409020805460ff166110e057600080fd5b81516110f590600183019060208501906122e4565b50505050565b600080546001600160a01b0316331461111357600080fd5b50600380546001600160a01b0383166001600160a01b03199091161790556001919050565b336000908152600560205260409020805460ff1661115557600080fd5b8151610d3a90600183019060208501906122e4565b6006602052816000526040600020818154811061118657600080fd5b9060005260206000209060050201600091509150508060000180546111aa906128d5565b80601f01602080910402602001604051908101604052809291908181526020018280546111d6906128d5565b80156112235780601f106111f857610100808354040283529160200191611223565b820191906000526020600020905b81548152906001019060200180831161120657829003601f168201915b505050505090806001018054611238906128d5565b80601f0160208091040260200160405190810160405280929190818152602001828054611264906128d5565b80156112b15780601f10611286576101008083540402835291602001916112b1565b820191906000526020600020905b81548152906001019060200180831161129457829003601f168201915b505050600284015460038501546004909501549394909360ff8083169450610100909204909116915086565b600781815481106112ed57600080fd5b90600052602060002090600502016000915090508060000180546111aa906128d5565b6001600160a01b038116600090815260066020908152604080832080548251818502810185019093528083528493849084015b828210156114d257838290600052602060002090600502016040518060c0016040529081600082018054611376906128d5565b80601f01602080910402602001604051908101604052809291908181526020018280546113a2906128d5565b80156113ef5780601f106113c4576101008083540402835291602001916113ef565b820191906000526020600020905b8154815290600101906020018083116113d257829003601f168201915b50505050508152602001600182018054611408906128d5565b80601f0160208091040260200160405190810160405280929190818152602001828054611434906128d5565b80156114815780601f1061145657610100808354040283529160200191611481565b820191906000526020600020905b81548152906001019060200180831161146457829003601f168201915b50505091835250506002820154602080830191909152600383015460ff8082161515604085015261010090910416151560608301526004909201546080909101529082526001929092019101611343565b5050915195945050505050565b600080546001600160a01b031633146114f757600080fd5b50600380546001600160a01b0383166001600160a01b031991821681179092556004805490911690911790556001919050565b336000908152600560209081526040808320815160808101909252805460ff1615158252600181018054859484019190611563906128d5565b80601f016020809104026020016040519081016040528092919081815260200182805461158f906128d5565b80156115dc5780601f106115b1576101008083540402835291602001916115dc565b820191906000526020600020905b8154815290600101906020018083116115bf57829003601f168201915b5050505050815260200160028201548152602001600382015481525050905060006007848154811061161057611610612889565b90600052602060002090600502016040518060c0016040529081600082018054611639906128d5565b80601f0160208091040260200160405190810160405280929190818152602001828054611665906128d5565b80156116b25780601f10611687576101008083540402835291602001916116b2565b820191906000526020600020905b81548152906001019060200180831161169557829003601f168201915b505050505081526020016001820180546116cb906128d5565b80601f01602080910402602001604051908101604052809291908181526020018280546116f7906128d5565b80156117445780601f1061171957610100808354040283529160200191611744565b820191906000526020600020905b81548152906001019060200180831161172757829003601f168201915b505050918352505060028201546020820152600382015460ff808216151560408401526101009091041615156060808301919091526004909201546080909101528101519091506117a25761179884611d4b565b156117a257600080fd5b81516117ad57600080fd5b80608001516117c45760a08101516117c457600080fd5b6040818101516002549151636eb1769f60e11b815233600482015230602482015290916001600160a01b03169063dd62ed3e9060440160206040518083038186803b15801561181257600080fd5b505afa158015611826573d6000803e3d6000fd5b505050506040513d601f19601f8201168201806040525081019061184a919061289f565b101561185557600080fd5b60025460408281015190516323b872dd60e01b815233600482015230602482015260448101919091526001600160a01b03909116906323b872dd90606401602060405180830381600087803b1580156118ad57600080fd5b505af11580156118c1573d6000803e3d6000fd5b505050506040513d601f19601f820116820180604052508101906118e591906128b8565b6118ee57600080fd5b80608001516119325760016007858154811061190c5761190c612889565b9060005260206000209060050201600401600082825461192c9190612910565b90915550505b33600090815260066020908152604082208054600181018255908352918190208351805185946005029092019261196e928492909101906122e4565b50602082810151805161198792600185019201906122e4565b5060408281015160028301556060830151600383018054608086015115156101000261ff00199315159390931661ffff199091161791909117905560a090920151600490910155810151600980546000906105ae908490612871565b600080546001600160a01b031633146119fb57600080fd5b6002546040516370a0823160e01b81523060048201526000916001600160a01b0316906370a082319060240160206040518083038186803b158015611a3f57600080fd5b505afa158015611a53573d6000803e3d6000fd5b505050506040513d601f19601f82011682018060405250810190611a77919061289f565b11611a8157600080fd5b6002546040516370a0823160e01b81523060048201526000916001600160a01b0316906370a082319060240160206040518083038186803b158015611ac557600080fd5b505afa158015611ad9573d6000803e3d6000fd5b505050506040513d601f19601f82011682018060405250810190611afd919061289f565b60025460005460405163a9059cbb60e01b81526001600160a01b03918216600482015260248101849052929350169063a9059cbb9060440161104b565b6000546001600160a01b03163314611b5157600080fd5b6001600160a01b038116611b6457600080fd5b600080546040516001600160a01b03808516939216917f8be0079c531659141344cd1fd0a4f28419497f9722a3daafe3b4186f6b6457e091a3600080546001600160a01b0319166001600160a01b0392909216919091179055565b336000908152600560205260408120805460ff16611bdc57600080fd5b600254604051636eb1769f60e11b815233600482015230602482015284916001600160a01b03169063dd62ed3e9060440160206040518083038186803b158015611c2557600080fd5b505afa158015611c39573d6000803e3d6000fd5b505050506040513d601f19601f82011682018060405250810190611c5d919061289f565b1015611c6857600080fd5b6002546040516323b872dd60e01b8152336004820152306024820152604481018590526001600160a01b03909116906323b872dd90606401602060405180830381600087803b158015611cba57600080fd5b505af1158015611cce573d6000803e3d6000fd5b505050506040513d601f19601f82011682018060405250810190611cf291906128b8565b611cfb57600080fd5b82816002016000828254611d0f9190612871565b9250508190555082600960008282546109089190612871565b600080611d358385612871565b905083811015611d4457600080fd5b9392505050565b60008060078381548110611d6157611d61612889565b90600052602060002090600502016040518060c0016040529081600082018054611d8a906128d5565b80601f0160208091040260200160405190810160405280929190818152602001828054611db6906128d5565b8015611e035780601f10611dd857610100808354040283529160200191611e03565b820191906000526020600020905b815481529060010190602001808311611de657829003601f168201915b50505050508152602001600182018054611e1c906128d5565b80601f0160208091040260200160405190810160405280929190818152602001828054611e48906128d5565b8015611e955780601f10611e6a57610100808354040283529160200191611e95565b820191906000526020600020905b815481529060010190602001808311611e7857829003601f168201915b50505091835250506002820154602080830191909152600383015460ff8082161515604080860191909152610100909204161515606084015260049093015460809092019190915233600090815260068252828120805484518185028101850190955280855294955090938493849390929190849084015b8282101561209c57838290600052602060002090600502016040518060c0016040529081600082018054611f40906128d5565b80601f0160208091040260200160405190810160405280929190818152602001828054611f6c906128d5565b8015611fb95780601f10611f8e57610100808354040283529160200191611fb9565b820191906000526020600020905b815481529060010190602001808311611f9c57829003601f168201915b50505050508152602001600182018054611fd2906128d5565b80601f0160208091040260200160405190810160405280929190818152602001828054611ffe906128d5565b801561204b5780601f106120205761010080835404028352916020019161204b565b820191906000526020600020905b81548152906001019060200180831161202e57829003601f168201915b50505091835250506002820154602080830191909152600383015460ff8082161515604085015261010090910416151560608301526004909201546080909101529082526001929092019101611f0d565b50505050905060005b81518110156122d95784516040516120c09190602001612927565b604051602081830303815290604052805190602001208282815181106120e8576120e8612889565b6020026020010151600001516040516020016121049190612927565b60405160208183030381529060405280519060200120141561212957600193506122d9565b60208086015160405161213c9201612927565b6040516020818303038152906040528051906020012082828151811061216457612164612889565b6020026020010151602001516040516020016121809190612927565b6040516020818303038152906040528051906020012014156122c75760005b6008548110156122c557600881815481106121bc576121bc612889565b90600052602060002090600302016000016040516020016121dd9190612943565b6040516020818303038152906040528051906020012083838151811061220557612205612889565b6020026020010151602001516040516020016122219190612927565b6040516020818303038152906040528051906020012014156122b35783612247816129df565b945050836008828154811061225e5761225e612889565b906000526020600020906003020160020154101580156122a557506008818154811061228c5761228c612889565b600091825260209091206001600390920201015460ff16155b156122b357600194506122c5565b806122bd816129df565b91505061219f565b505b806122d1816129df565b9150506120a5565b509195945050505050565b8280546122f0906128d5565b90600052602060002090601f0160209004810192826123125760008555612358565b82601f1061232b57805160ff1916838001178555612358565b82800160010185558215612358579182015b8281111561235857825182559160200191906001019061233d565b50612364929150612368565b5090565b5b808211156123645760008155600101612369565b634e487b7160e01b600052604160045260246000fd5b600082601f8301126123a457600080fd5b813567ffffffffffffffff808211156123bf576123bf61237d565b604051601f8301601f19908116603f011681019082821181831017156123e7576123e761237d565b8160405283815286602085880101111561240057600080fd5b836020870160208301376000602085830101528094505050505092915050565b801515811461242e57600080fd5b50565b60008060006060848603121561244657600080fd5b833567ffffffffffffffff81111561245d57600080fd5b61246986828701612393565b935050602084013561247a81612420565b929592945050506040919091013590565b6001600160a01b038116811461242e57600080fd5b600080604083850312156124b357600080fd5b8235915060208301356124c58161248b565b809150509250929050565b600080600080608085870312156124e657600080fd5b84359350602085013567ffffffffffffffff81111561250457600080fd5b61251087828801612393565b935050604085013561252181612420565b9396929550929360600135925050565b60006020828403121561254357600080fd5b5035919050565b60005b8381101561256557818101518382015260200161254d565b838111156110f55750506000910152565b6000815180845261258e81602086016020860161254a565b601f01601f19169290920160200192915050565b6060815260006125b56060830186612576565b93151560208301525060400152919050565b60008060008060008060c087890312156125e057600080fd5b863567ffffffffffffffff808211156125f857600080fd5b6126048a838b01612393565b9750602089013591508082111561261a57600080fd5b5061262789828a01612393565b95505060408701359350606087013561263f81612420565b9250608087013561264f81612420565b8092505060a087013590509295509295509295565b600080600080600080600060e0888a03121561267f57600080fd5b87359650602088013567ffffffffffffffff8082111561269e57600080fd5b6126aa8b838c01612393565b975060408a01359150808211156126c057600080fd5b506126cd8a828b01612393565b9550506060880135935060808801356126e581612420565b925060a08801356126f581612420565b8092505060c0880135905092959891949750929550565b60006020828403121561271e57600080fd5b8135611d448161248b565b60006020828403121561273b57600080fd5b813567ffffffffffffffff81111561275257600080fd5b61275e84828501612393565b949350505050565b84151581526080602082015260006127816080830186612576565b6040830194909452506060015292915050565b600080604083850312156127a757600080fd5b82356127b28161248b565b9150602083013567ffffffffffffffff8111156127ce57600080fd5b6127da85828601612393565b9150509250929050565b600080604083850312156127f757600080fd5b82356128028161248b565b946020939093013593505050565b60c08152600061282360c0830189612576565b82810360208401526128358189612576565b604084019790975250509215156060840152901515608083015260a09091015292915050565b634e487b7160e01b600052601160045260246000fd5b600082198211156128845761288461285b565b500190565b634e487b7160e01b600052603260045260246000fd5b6000602082840312156128b157600080fd5b5051919050565b6000602082840312156128ca57600080fd5b8151611d4481612420565b600181811c908216806128e957607f821691505b6020821081141561290a57634e487b7160e01b600052602260045260246000fd5b50919050565b6000828210156129225761292261285b565b500390565b6000825161293981846020870161254a565b9190910192915050565b600080835481600182811c91508083168061295f57607f831692505b602080841082141561297f57634e487b7160e01b86526022600452602486fd5b81801561299357600181146129a4576129d1565b60ff198616895284890196506129d1565b60008a81526020902060005b868110156129c95781548b8201529085019083016129b0565b505084890196505b509498975050505050505050565b60006000198214156129f3576129f361285b565b506001019056fea26469706673582212200ae1483f09bfc487ec83f55b45af5df17785e7116122dbd257f6129933aee72964736f6c63430008090033",
    "sourcePath": "c:/Users/STC/Documents/GitHub/FootBall-ICO/contracts/Market/market.sol",
    "compiler": {
        "name": "solc",
        "version": "0.8.9+commit.e5eed63a"
    },
    "functionHashes": {
        "ChangePrincipalToken(address)": "cc360058",
        "ChangeTokenOTRO(address)": "96ba5363",
        "addItem(string,string,uint256,bool,bool,uint256)": "36ec5fe4",
        "addOption(string,bool,uint256)": "00cffbcd",
        "admin(address)": "63a846f8",
        "asignarCoinsTo(uint256,address)": "571c94d7",
        "buyCoins(uint256)": "fe468196",
        "buyItem(uint256)": "e7fb74c7",
        "editItem(uint256,string,string,uint256,bool,bool,uint256)": "51e954f7",
        "editOption(uint256,string,bool,uint256)": "09650b8e",
        "gastarCoins(uint256)": "30dc1a29",
        "gastarCoinsfrom(uint256,address)": "035092d9",
        "inventario(address,uint256)": "ab97fd60",
        "investors(address)": "6f7bc9be",
        "items(uint256)": "bfb231d2",
        "largoInventario(address)": "c991c474",
        "largoItems()": "238393e4",
        "makeNewAdmin(address)": "69ed1e0a",
        "makeRemoveAdmin(address)": "70a0966b",
        "opciones(uint256)": "17262d8a",
        "owner()": "8da5cb5b",
        "redimETH()": "2e9928d3",
        "redimOTRO()": "8929cbc5",
        "redimTokenPrincipal01()": "eb5b455a",
        "redimTokenPrincipal02(uint256)": "1140e85b",
        "registro(string)": "63f8de41",
        "sellCoins(uint256)": "51a4cd73",
        "token()": "fc0c546a",
        "transferOwnership(address)": "f2fde38b",
        "updateRegistro(string)": "a999d3e0",
        "updateRegistroMaster(address,string)": "94c37f30"
    },
    "gasEstimates": {
        "creation": {
            "codeDepositCost": "2160000",
            "executionCost": "infinite",
            "totalCost": "infinite"
        },
        "external": {
            "ChangePrincipalToken(address)": "51086",
            "ChangeTokenOTRO(address)": "26831",
            "addItem(string,string,uint256,bool,bool,uint256)": "infinite",
            "addOption(string,bool,uint256)": "infinite",
            "admin(address)": "2581",
            "asignarCoinsTo(uint256,address)": "infinite",
            "buyCoins(uint256)": "infinite",
            "buyItem(uint256)": "infinite",
            "editItem(uint256,string,string,uint256,bool,bool,uint256)": "infinite",
            "editOption(uint256,string,bool,uint256)": "infinite",
            "gastarCoins(uint256)": "infinite",
            "gastarCoinsfrom(uint256,address)": "infinite",
            "inventario(address,uint256)": "infinite",
            "investors(address)": "infinite",
            "items(uint256)": "infinite",
            "largoInventario(address)": "infinite",
            "largoItems()": "2382",
            "makeNewAdmin(address)": "28069",
            "makeRemoveAdmin(address)": "28008",
            "opciones(uint256)": "infinite",
            "owner()": "2449",
            "redimETH()": "infinite",
            "redimOTRO()": "infinite",
            "redimTokenPrincipal01()": "infinite",
            "redimTokenPrincipal02(uint256)": "infinite",
            "registro(string)": "infinite",
            "sellCoins(uint256)": "infinite",
            "token()": "2425",
            "transferOwnership(address)": "30460",
            "updateRegistro(string)": "infinite",
            "updateRegistroMaster(address,string)": "infinite"
        },
        "internal": {
            "viewDuplicatedItem(uint256)": "infinite"
        }
    }
}